{
  "_format": "hh-sol-artifact-1",
  "contractName": "UserInfo",
  "sourceName": "contracts/UserInfo.sol",
  "abi": [
    {
      "inputs": [
        {
          "internalType": "uint256",
          "name": "_userId",
          "type": "uint256"
        },
        {
          "internalType": "string",
          "name": "_role",
          "type": "string"
        }
      ],
      "name": "changeUserRole",
      "outputs": [],
      "stateMutability": "nonpayable",
      "type": "function"
    },
    {
      "inputs": [
        {
          "internalType": "string",
          "name": "_userName",
          "type": "string"
        },
        {
          "internalType": "string",
          "name": "_pwd",
          "type": "string"
        },
        {
          "internalType": "address",
          "name": "_userAddress",
          "type": "address"
        }
      ],
      "name": "createUser",
      "outputs": [],
      "stateMutability": "nonpayable",
      "type": "function"
    },
    {
      "inputs": [
        {
          "internalType": "uint256",
          "name": "_userId",
          "type": "uint256"
        }
      ],
      "name": "getUserInfo",
      "outputs": [
        {
          "components": [
            {
              "internalType": "address",
              "name": "userAddress",
              "type": "address"
            },
            {
              "internalType": "uint256",
              "name": "userId",
              "type": "uint256"
            },
            {
              "internalType": "string",
              "name": "userName",
              "type": "string"
            },
            {
              "internalType": "string",
              "name": "pwd",
              "type": "string"
            },
            {
              "internalType": "string",
              "name": "role",
              "type": "string"
            },
            {
              "internalType": "uint256",
              "name": "assert",
              "type": "uint256"
            }
          ],
          "internalType": "struct UserInfo.User",
          "name": "",
          "type": "tuple"
        }
      ],
      "stateMutability": "view",
      "type": "function"
    },
    {
      "inputs": [
        {
          "internalType": "uint256",
          "name": "_userId",
          "type": "uint256"
        },
        {
          "internalType": "string",
          "name": "_pwd",
          "type": "string"
        }
      ],
      "name": "loginUser",
      "outputs": [
        {
          "internalType": "bool",
          "name": "",
          "type": "bool"
        }
      ],
      "stateMutability": "view",
      "type": "function"
    },
    {
      "inputs": [
        {
          "internalType": "uint256",
          "name": "",
          "type": "uint256"
        }
      ],
      "name": "registeredUserAddresses",
      "outputs": [
        {
          "internalType": "address",
          "name": "",
          "type": "address"
        }
      ],
      "stateMutability": "view",
      "type": "function"
    },
    {
      "inputs": [],
      "name": "retrieve",
      "outputs": [
        {
          "internalType": "address",
          "name": "",
          "type": "address"
        }
      ],
      "stateMutability": "view",
      "type": "function"
    },
    {
      "inputs": [
        {
          "internalType": "uint256",
          "name": "",
          "type": "uint256"
        }
      ],
      "name": "userMap",
      "outputs": [
        {
          "internalType": "address",
          "name": "userAddress",
          "type": "address"
        },
        {
          "internalType": "uint256",
          "name": "userId",
          "type": "uint256"
        },
        {
          "internalType": "string",
          "name": "userName",
          "type": "string"
        },
        {
          "internalType": "string",
          "name": "pwd",
          "type": "string"
        },
        {
          "internalType": "string",
          "name": "role",
          "type": "string"
        },
        {
          "internalType": "uint256",
          "name": "assert",
          "type": "uint256"
        }
      ],
      "stateMutability": "view",
      "type": "function"
    }
  ],
  "bytecode": "0x608060405234801561001057600080fd5b50611169806100206000396000f3fe608060405234801561001057600080fd5b506004361061007d5760003560e01c8063b2cb7a591161005b578063b2cb7a59146100ec578063b5ca25411461011c578063be8c225114610138578063d379dadf1461016d5761007d565b806306bda852146100825780632365dce21461009e5780632e64cec1146100ce575b600080fd5b61009c60048036038101906100979190610b1e565b61019d565b005b6100b860048036038101906100b39190610af1565b6101cb565b6040516100c59190610deb565b60405180910390f35b6100d661020a565b6040516100e39190610deb565b60405180910390f35b61010660048036038101906101019190610b1e565b610251565b6040516101139190610e7c565b60405180910390f35b61013660048036038101906101319190610a66565b6102be565b005b610152600480360381019061014d9190610af1565b61049d565b60405161016496959493929190610e06565b60405180910390f35b61018760048036038101906101829190610af1565b610691565b6040516101949190610e97565b60405180910390f35b8060008084815260200190815260200160002060040190805190602001906101c69291906108dd565b505050565b600181815481106101db57600080fd5b906000526020600020016000915054906101000a900473ffffffffffffffffffffffffffffffffffffffff1681565b6000600160008154811061022157610220611082565b5b9060005260206000200160009054906101000a900473ffffffffffffffffffffffffffffffffffffffff16905090565b6000816040516020016102649190610d95565b6040516020818303038152906040528051906020012060008085815260200190815260200160002060030160405160200161029f9190610dac565b6040516020818303038152906040528051906020012014905092915050565b600042846040516020016102d3929190610dc3565b6040516020818303038152906040528051906020012060001c905060006040518060c001604052808473ffffffffffffffffffffffffffffffffffffffff1681526020018381526020018681526020018581526020016040518060400160405280600181526020017f30000000000000000000000000000000000000000000000000000000000000008152508152602001600081525090508060008084815260200190815260200160002060008201518160000160006101000a81548173ffffffffffffffffffffffffffffffffffffffff021916908373ffffffffffffffffffffffffffffffffffffffff1602179055506020820151816001015560408201518160020190805190602001906103eb9291906108dd565b5060608201518160030190805190602001906104089291906108dd565b5060808201518160040190805190602001906104259291906108dd565b5060a082015181600501559050506001839080600181540180825580915050600190039060005260206000200160009091909190916101000a81548173ffffffffffffffffffffffffffffffffffffffff021916908373ffffffffffffffffffffffffffffffffffffffff1602179055505050505050565b60006020528060005260406000206000915090508060000160009054906101000a900473ffffffffffffffffffffffffffffffffffffffff16908060010154908060020180546104ec90610fe6565b80601f016020809104026020016040519081016040528092919081815260200182805461051890610fe6565b80156105655780601f1061053a57610100808354040283529160200191610565565b820191906000526020600020905b81548152906001019060200180831161054857829003601f168201915b50505050509080600301805461057a90610fe6565b80601f01602080910402602001604051908101604052809291908181526020018280546105a690610fe6565b80156105f35780601f106105c8576101008083540402835291602001916105f3565b820191906000526020600020905b8154815290600101906020018083116105d657829003601f168201915b50505050509080600401805461060890610fe6565b80601f016020809104026020016040519081016040528092919081815260200182805461063490610fe6565b80156106815780601f1061065657610100808354040283529160200191610681565b820191906000526020600020905b81548152906001019060200180831161066457829003601f168201915b5050505050908060050154905086565b610699610963565b6000808381526020019081526020016000206040518060c00160405290816000820160009054906101000a900473ffffffffffffffffffffffffffffffffffffffff1673ffffffffffffffffffffffffffffffffffffffff1673ffffffffffffffffffffffffffffffffffffffff1681526020016001820154815260200160028201805461072690610fe6565b80601f016020809104026020016040519081016040528092919081815260200182805461075290610fe6565b801561079f5780601f106107745761010080835404028352916020019161079f565b820191906000526020600020905b81548152906001019060200180831161078257829003601f168201915b505050505081526020016003820180546107b890610fe6565b80601f01602080910402602001604051908101604052809291908181526020018280546107e490610fe6565b80156108315780601f1061080657610100808354040283529160200191610831565b820191906000526020600020905b81548152906001019060200180831161081457829003601f168201915b5050505050815260200160048201805461084a90610fe6565b80601f016020809104026020016040519081016040528092919081815260200182805461087690610fe6565b80156108c35780601f10610898576101008083540402835291602001916108c3565b820191906000526020600020905b8154815290600101906020018083116108a657829003601f168201915b505050505081526020016005820154815250509050919050565b8280546108e990610fe6565b90600052602060002090601f01602090048101928261090b5760008555610952565b82601f1061092457805160ff1916838001178555610952565b82800160010185558215610952579182015b82811115610951578251825591602001919060010190610936565b5b50905061095f91906109af565b5090565b6040518060c00160405280600073ffffffffffffffffffffffffffffffffffffffff16815260200160008152602001606081526020016060815260200160608152602001600081525090565b5b808211156109c85760008160009055506001016109b0565b5090565b60006109df6109da84610ede565b610eb9565b9050828152602081018484840111156109fb576109fa6110e5565b5b610a06848285610fa4565b509392505050565b600081359050610a1d81611105565b92915050565b600082601f830112610a3857610a376110e0565b5b8135610a488482602086016109cc565b91505092915050565b600081359050610a608161111c565b92915050565b600080600060608486031215610a7f57610a7e6110ef565b5b600084013567ffffffffffffffff811115610a9d57610a9c6110ea565b5b610aa986828701610a23565b935050602084013567ffffffffffffffff811115610aca57610ac96110ea565b5b610ad686828701610a23565b9250506040610ae786828701610a0e565b9150509250925092565b600060208284031215610b0757610b066110ef565b5b6000610b1584828501610a51565b91505092915050565b60008060408385031215610b3557610b346110ef565b5b6000610b4385828601610a51565b925050602083013567ffffffffffffffff811115610b6457610b636110ea565b5b610b7085828601610a23565b9150509250929050565b610b8381610f5c565b82525050565b610b9281610f5c565b82525050565b610ba181610f6e565b82525050565b6000610bb282610f24565b610bbc8185610f2f565b9350610bcc818560208601610fb3565b610bd5816110f4565b840191505092915050565b6000610beb82610f24565b610bf58185610f40565b9350610c05818560208601610fb3565b610c0e816110f4565b840191505092915050565b6000610c2482610f24565b610c2e8185610f51565b9350610c3e818560208601610fb3565b80840191505092915050565b60008154610c5781610fe6565b610c618186610f51565b94506001821660008114610c7c5760018114610c8d57610cc0565b60ff19831686528186019350610cc0565b610c9685610f0f565b60005b83811015610cb857815481890152600182019150602081019050610c99565b838801955050505b50505092915050565b600060c083016000830151610ce16000860182610b7a565b506020830151610cf46020860182610d60565b5060408301518482036040860152610d0c8282610ba7565b91505060608301518482036060860152610d268282610ba7565b91505060808301518482036080860152610d408282610ba7565b91505060a0830151610d5560a0860182610d60565b508091505092915050565b610d6981610f9a565b82525050565b610d7881610f9a565b82525050565b610d8f610d8a82610f9a565b611049565b82525050565b6000610da18284610c19565b915081905092915050565b6000610db88284610c4a565b915081905092915050565b6000610dcf8285610d7e565b602082019150610ddf8284610c19565b91508190509392505050565b6000602082019050610e006000830184610b89565b92915050565b600060c082019050610e1b6000830189610b89565b610e286020830188610d6f565b8181036040830152610e3a8187610be0565b90508181036060830152610e4e8186610be0565b90508181036080830152610e628185610be0565b9050610e7160a0830184610d6f565b979650505050505050565b6000602082019050610e916000830184610b98565b92915050565b60006020820190508181036000830152610eb18184610cc9565b905092915050565b6000610ec3610ed4565b9050610ecf8282611018565b919050565b6000604051905090565b600067ffffffffffffffff821115610ef957610ef86110b1565b5b610f02826110f4565b9050602081019050919050565b60008190508160005260206000209050919050565b600081519050919050565b600082825260208201905092915050565b600082825260208201905092915050565b600081905092915050565b6000610f6782610f7a565b9050919050565b60008115159050919050565b600073ffffffffffffffffffffffffffffffffffffffff82169050919050565b6000819050919050565b82818337600083830152505050565b60005b83811015610fd1578082015181840152602081019050610fb6565b83811115610fe0576000848401525b50505050565b60006002820490506001821680610ffe57607f821691505b6020821081141561101257611011611053565b5b50919050565b611021826110f4565b810181811067ffffffffffffffff821117156110405761103f6110b1565b5b80604052505050565b6000819050919050565b7f4e487b7100000000000000000000000000000000000000000000000000000000600052602260045260246000fd5b7f4e487b7100000000000000000000000000000000000000000000000000000000600052603260045260246000fd5b7f4e487b7100000000000000000000000000000000000000000000000000000000600052604160045260246000fd5b600080fd5b600080fd5b600080fd5b600080fd5b6000601f19601f8301169050919050565b61110e81610f5c565b811461111957600080fd5b50565b61112581610f9a565b811461113057600080fd5b5056fea26469706673582212200e497f6573cd745de3f39c3a8cec1b3f3ec2e210e4097f873b0c6399122b631864736f6c63430008070033",
  "linkReferences": {},
  "deployedLinkReferences": {}
}