{
  "_format": "hh-sol-artifact-1",
  "contractName": "UserInfo",
  "sourceName": "contracts/UserInfo.sol",
  "abi": [
    {
      "anonymous": false,
      "inputs": [
        {
          "indexed": false,
          "internalType": "string",
          "name": "userId",
          "type": "string"
        }
      ],
      "name": "UserRegistered",
      "type": "event"
    },
    {
      "inputs": [
        {
          "internalType": "string",
          "name": "_userId",
          "type": "string"
        },
        {
          "internalType": "string",
          "name": "_role",
          "type": "string"
        }
      ],
      "name": "changeUserRole",
      "outputs": [],
      "stateMutability": "nonpayable",
      "type": "function"
    },
    {
      "inputs": [
        {
          "internalType": "string",
          "name": "_userName",
          "type": "string"
        },
        {
          "internalType": "string",
          "name": "_pwd",
          "type": "string"
        },
        {
          "internalType": "address",
          "name": "_userAddress",
          "type": "address"
        }
      ],
      "name": "createUser",
      "outputs": [],
      "stateMutability": "nonpayable",
      "type": "function"
    },
    {
      "inputs": [
        {
          "internalType": "string",
          "name": "_userId",
          "type": "string"
        }
      ],
      "name": "getPwd",
      "outputs": [
        {
          "internalType": "string",
          "name": "",
          "type": "string"
        }
      ],
      "stateMutability": "view",
      "type": "function"
    },
    {
      "inputs": [
        {
          "internalType": "string",
          "name": "_userId",
          "type": "string"
        }
      ],
      "name": "getUserInfo",
      "outputs": [
        {
          "components": [
            {
              "internalType": "address",
              "name": "userAddress",
              "type": "address"
            },
            {
              "internalType": "string",
              "name": "userId",
              "type": "string"
            },
            {
              "internalType": "string",
              "name": "userName",
              "type": "string"
            },
            {
              "internalType": "string",
              "name": "pwd",
              "type": "string"
            },
            {
              "internalType": "string",
              "name": "role",
              "type": "string"
            },
            {
              "internalType": "uint256",
              "name": "assert",
              "type": "uint256"
            }
          ],
          "internalType": "struct UserInfo.User",
          "name": "",
          "type": "tuple"
        }
      ],
      "stateMutability": "view",
      "type": "function"
    },
    {
      "inputs": [
        {
          "internalType": "string",
          "name": "_userId",
          "type": "string"
        },
        {
          "internalType": "string",
          "name": "_pwd",
          "type": "string"
        }
      ],
      "name": "loginUser",
      "outputs": [
        {
          "internalType": "bool",
          "name": "",
          "type": "bool"
        }
      ],
      "stateMutability": "view",
      "type": "function"
    },
    {
      "inputs": [
        {
          "internalType": "uint256",
          "name": "",
          "type": "uint256"
        }
      ],
      "name": "registeredUserAddresses",
      "outputs": [
        {
          "internalType": "address",
          "name": "",
          "type": "address"
        }
      ],
      "stateMutability": "view",
      "type": "function"
    },
    {
      "inputs": [
        {
          "internalType": "string",
          "name": "",
          "type": "string"
        }
      ],
      "name": "userMap",
      "outputs": [
        {
          "internalType": "address",
          "name": "userAddress",
          "type": "address"
        },
        {
          "internalType": "string",
          "name": "userId",
          "type": "string"
        },
        {
          "internalType": "string",
          "name": "userName",
          "type": "string"
        },
        {
          "internalType": "string",
          "name": "pwd",
          "type": "string"
        },
        {
          "internalType": "string",
          "name": "role",
          "type": "string"
        },
        {
          "internalType": "uint256",
          "name": "assert",
          "type": "uint256"
        }
      ],
      "stateMutability": "view",
      "type": "function"
    }
  ],
  "bytecode": "0x608060405234801561001057600080fd5b506113ae806100206000396000f3fe608060405234801561001057600080fd5b506004361061007d5760003560e01c80637c9b7fdd1161005b5780637c9b7fdd14610112578063ae7b16a714610142578063b5ca25411461015e578063eb15f3801461017a5761007d565b806322ce12e5146100825780632365dce2146100b25780632379f76a146100e2575b600080fd5b61009c60048036038101906100979190610cd7565b6101af565b6040516100a991906110d8565b60405180910390f35b6100cc60048036038101906100c79190610dda565b610228565b6040516100d99190611040565b60405180910390f35b6100fc60048036038101906100f79190610c8e565b610267565b60405161010991906110f3565b60405180910390f35b61012c60048036038101906101279190610c8e565b61031a565b6040516101399190611115565b60405180910390f35b61015c60048036038101906101579190610cd7565b6105fa565b005b61017860048036038101906101739190610d4f565b610634565b005b610194600480360381019061018f9190610c8e565b610873565b6040516101a69695949392919061105b565b60405180910390f35b6000816040516020016101c29190611012565b604051602081830303815290604052805190602001206000846040516101e89190611012565b90815260200160405180910390206003016040516020016102099190611029565b6040516020818303038152906040528051906020012014905092915050565b6001818154811061023857600080fd5b906000526020600020016000915054906101000a900473ffffffffffffffffffffffffffffffffffffffff1681565b60606000826040516102799190611012565b9081526020016040518091039020600301805461029590611264565b80601f01602080910402602001604051908101604052809291908181526020018280546102c190611264565b801561030e5780601f106102e35761010080835404028352916020019161030e565b820191906000526020600020905b8154815290600101906020018083116102f157829003601f168201915b50505050509050919050565b610322610b05565b6000826040516103329190611012565b90815260200160405180910390206040518060c00160405290816000820160009054906101000a900473ffffffffffffffffffffffffffffffffffffffff1673ffffffffffffffffffffffffffffffffffffffff1673ffffffffffffffffffffffffffffffffffffffff1681526020016001820180546103b190611264565b80601f01602080910402602001604051908101604052809291908181526020018280546103dd90611264565b801561042a5780601f106103ff5761010080835404028352916020019161042a565b820191906000526020600020905b81548152906001019060200180831161040d57829003601f168201915b5050505050815260200160028201805461044390611264565b80601f016020809104026020016040519081016040528092919081815260200182805461046f90611264565b80156104bc5780601f10610491576101008083540402835291602001916104bc565b820191906000526020600020905b81548152906001019060200180831161049f57829003601f168201915b505050505081526020016003820180546104d590611264565b80601f016020809104026020016040519081016040528092919081815260200182805461050190611264565b801561054e5780601f106105235761010080835404028352916020019161054e565b820191906000526020600020905b81548152906001019060200180831161053157829003601f168201915b5050505050815260200160048201805461056790611264565b80601f016020809104026020016040519081016040528092919081815260200182805461059390611264565b80156105e05780601f106105b5576101008083540402835291602001916105e0565b820191906000526020600020905b8154815290600101906020018083116105c357829003601f168201915b505050505081526020016005820154815250509050919050565b8060008360405161060b9190611012565b9081526020016040518091039020600401908051906020019061062f929190610b51565b505050565b60006040518060400160405280600181526020017f3100000000000000000000000000000000000000000000000000000000000000815250905060006040518060c001604052808473ffffffffffffffffffffffffffffffffffffffff1681526020018381526020018681526020018581526020016040518060400160405280600181526020017f3000000000000000000000000000000000000000000000000000000000000000815250815260200160008152509050806000836040516106fc9190611012565b908152602001604051809103902060008201518160000160006101000a81548173ffffffffffffffffffffffffffffffffffffffff021916908373ffffffffffffffffffffffffffffffffffffffff160217905550602082015181600101908051906020019061076d929190610b51565b50604082015181600201908051906020019061078a929190610b51565b5060608201518160030190805190602001906107a7929190610b51565b5060808201518160040190805190602001906107c4929190610b51565b5060a082015181600501559050506001839080600181540180825580915050600190039060005260206000200160009091909190916101000a81548173ffffffffffffffffffffffffffffffffffffffff021916908373ffffffffffffffffffffffffffffffffffffffff1602179055507f270ff4b111e5baa49283562af127cc5ea74e9d6c9efd5465578bd9223d5843f08260405161086491906110f3565b60405180910390a15050505050565b6000818051602081018201805184825260208301602085012081835280955050505050506000915090508060000160009054906101000a900473ffffffffffffffffffffffffffffffffffffffff16908060010180546108d290611264565b80601f01602080910402602001604051908101604052809291908181526020018280546108fe90611264565b801561094b5780601f106109205761010080835404028352916020019161094b565b820191906000526020600020905b81548152906001019060200180831161092e57829003601f168201915b50505050509080600201805461096090611264565b80601f016020809104026020016040519081016040528092919081815260200182805461098c90611264565b80156109d95780601f106109ae576101008083540402835291602001916109d9565b820191906000526020600020905b8154815290600101906020018083116109bc57829003601f168201915b5050505050908060030180546109ee90611264565b80601f0160208091040260200160405190810160405280929190818152602001828054610a1a90611264565b8015610a675780601f10610a3c57610100808354040283529160200191610a67565b820191906000526020600020905b815481529060010190602001808311610a4a57829003601f168201915b505050505090806004018054610a7c90611264565b80601f0160208091040260200160405190810160405280929190818152602001828054610aa890611264565b8015610af55780601f10610aca57610100808354040283529160200191610af5565b820191906000526020600020905b815481529060010190602001808311610ad857829003601f168201915b5050505050908060050154905086565b6040518060c00160405280600073ffffffffffffffffffffffffffffffffffffffff16815260200160608152602001606081526020016060815260200160608152602001600081525090565b828054610b5d90611264565b90600052602060002090601f016020900481019282610b7f5760008555610bc6565b82601f10610b9857805160ff1916838001178555610bc6565b82800160010185558215610bc6579182015b82811115610bc5578251825591602001919060010190610baa565b5b509050610bd39190610bd7565b5090565b5b80821115610bf0576000816000905550600101610bd8565b5090565b6000610c07610c028461115c565b611137565b905082815260208101848484011115610c2357610c2261132a565b5b610c2e848285611222565b509392505050565b600081359050610c458161134a565b92915050565b600082601f830112610c6057610c5f611325565b5b8135610c70848260208601610bf4565b91505092915050565b600081359050610c8881611361565b92915050565b600060208284031215610ca457610ca3611334565b5b600082013567ffffffffffffffff811115610cc257610cc161132f565b5b610cce84828501610c4b565b91505092915050565b60008060408385031215610cee57610ced611334565b5b600083013567ffffffffffffffff811115610d0c57610d0b61132f565b5b610d1885828601610c4b565b925050602083013567ffffffffffffffff811115610d3957610d3861132f565b5b610d4585828601610c4b565b9150509250929050565b600080600060608486031215610d6857610d67611334565b5b600084013567ffffffffffffffff811115610d8657610d8561132f565b5b610d9286828701610c4b565b935050602084013567ffffffffffffffff811115610db357610db261132f565b5b610dbf86828701610c4b565b9250506040610dd086828701610c36565b9150509250925092565b600060208284031215610df057610def611334565b5b6000610dfe84828501610c79565b91505092915050565b610e10816111da565b82525050565b610e1f816111da565b82525050565b610e2e816111ec565b82525050565b6000610e3f826111a2565b610e4981856111ad565b9350610e59818560208601611231565b610e6281611339565b840191505092915050565b6000610e78826111a2565b610e8281856111be565b9350610e92818560208601611231565b610e9b81611339565b840191505092915050565b6000610eb1826111a2565b610ebb81856111cf565b9350610ecb818560208601611231565b80840191505092915050565b60008154610ee481611264565b610eee81866111cf565b94506001821660008114610f095760018114610f1a57610f4d565b60ff19831686528186019350610f4d565b610f238561118d565b60005b83811015610f4557815481890152600182019150602081019050610f26565b838801955050505b50505092915050565b600060c083016000830151610f6e6000860182610e07565b5060208301518482036020860152610f868282610e34565b91505060408301518482036040860152610fa08282610e34565b91505060608301518482036060860152610fba8282610e34565b91505060808301518482036080860152610fd48282610e34565b91505060a0830151610fe960a0860182610ff4565b508091505092915050565b610ffd81611218565b82525050565b61100c81611218565b82525050565b600061101e8284610ea6565b915081905092915050565b60006110358284610ed7565b915081905092915050565b60006020820190506110556000830184610e16565b92915050565b600060c0820190506110706000830189610e16565b81810360208301526110828188610e6d565b905081810360408301526110968187610e6d565b905081810360608301526110aa8186610e6d565b905081810360808301526110be8185610e6d565b90506110cd60a0830184611003565b979650505050505050565b60006020820190506110ed6000830184610e25565b92915050565b6000602082019050818103600083015261110d8184610e6d565b905092915050565b6000602082019050818103600083015261112f8184610f56565b905092915050565b6000611141611152565b905061114d8282611296565b919050565b6000604051905090565b600067ffffffffffffffff821115611177576111766112f6565b5b61118082611339565b9050602081019050919050565b60008190508160005260206000209050919050565b600081519050919050565b600082825260208201905092915050565b600082825260208201905092915050565b600081905092915050565b60006111e5826111f8565b9050919050565b60008115159050919050565b600073ffffffffffffffffffffffffffffffffffffffff82169050919050565b6000819050919050565b82818337600083830152505050565b60005b8381101561124f578082015181840152602081019050611234565b8381111561125e576000848401525b50505050565b6000600282049050600182168061127c57607f821691505b602082108114156112905761128f6112c7565b5b50919050565b61129f82611339565b810181811067ffffffffffffffff821117156112be576112bd6112f6565b5b80604052505050565b7f4e487b7100000000000000000000000000000000000000000000000000000000600052602260045260246000fd5b7f4e487b7100000000000000000000000000000000000000000000000000000000600052604160045260246000fd5b600080fd5b600080fd5b600080fd5b600080fd5b6000601f19601f8301169050919050565b611353816111da565b811461135e57600080fd5b50565b61136a81611218565b811461137557600080fd5b5056fea2646970667358221220ff3b93e9d8940913530c2ae251f83f382fdf6122c32bc8cb4d7b44ea470e2a2264736f6c63430008070033",
  "linkReferences": {},
  "deployedLinkReferences": {}
}