{"contracts/ContentInfo.sol":{"ContentInfo":{"abi":[{"anonymous":false,"inputs":[{"indexed":false,"internalType":"uint256","name":"commentId","type":"uint256"}],"name":"CommentCreated","type":"event"},{"anonymous":false,"inputs":[{"indexed":false,"internalType":"uint256","name":"contentId","type":"uint256"}],"name":"ContentCreated","type":"event"},{"anonymous":false,"inputs":[{"indexed":false,"internalType":"uint256","name":"praiseCount","type":"uint256"}],"name":"PraiseCommentDone","type":"event"},{"anonymous":false,"inputs":[{"indexed":false,"internalType":"uint256","name":"praiseCount","type":"uint256"}],"name":"PraiseDone","type":"event"},{"inputs":[{"internalType":"uint256","name":"","type":"uint256"}],"name":"commentMap","outputs":[{"internalType":"uint256","name":"contentId","type":"uint256"},{"internalType":"uint256","name":"userId","type":"uint256"},{"internalType":"uint256","name":"commentId","type":"uint256"},{"internalType":"string","name":"comment","type":"string"},{"internalType":"uint256","name":"updateTime","type":"uint256"},{"internalType":"uint256","name":"praiseCount","type":"uint256"},{"internalType":"uint256","name":"commentState","type":"uint256"}],"stateMutability":"view","type":"function"},{"inputs":[{"internalType":"uint256","name":"","type":"uint256"}],"name":"complainMap","outputs":[{"internalType":"uint256","name":"complaintId","type":"uint256"},{"internalType":"uint256","name":"contentId","type":"uint256"},{"internalType":"uint256","name":"userId","type":"uint256"},{"internalType":"uint256","name":"commentId","type":"uint256"},{"internalType":"string","name":"content","type":"string"},{"internalType":"uint256","name":"updateTime","type":"uint256"},{"internalType":"uint256","name":"complainState","type":"uint256"}],"stateMutability":"view","type":"function"},{"inputs":[{"internalType":"uint256","name":"","type":"uint256"},{"internalType":"uint256","name":"","type":"uint256"}],"name":"contentComments","outputs":[{"internalType":"uint256","name":"","type":"uint256"}],"stateMutability":"view","type":"function"},{"inputs":[{"internalType":"uint256","name":"","type":"uint256"}],"name":"contentIds","outputs":[{"internalType":"uint256","name":"","type":"uint256"}],"stateMutability":"view","type":"function"},{"inputs":[{"internalType":"uint256","name":"","type":"uint256"}],"name":"contentMap","outputs":[{"internalType":"uint256","name":"contentId","type":"uint256"},{"internalType":"uint256","name":"userId","type":"uint256"},{"internalType":"string","name":"title","type":"string"},{"internalType":"string","name":"content","type":"string"},{"internalType":"uint256","name":"updateTime","type":"uint256"},{"internalType":"uint256","name":"praiseCount","type":"uint256"},{"internalType":"uint256","name":"contentState","type":"uint256"}],"stateMutability":"view","type":"function"},{"inputs":[{"internalType":"uint256","name":"_contentId","type":"uint256"},{"internalType":"uint256","name":"_userId","type":"uint256"},{"internalType":"string","name":"_comment","type":"string"}],"name":"createComment","outputs":[],"stateMutability":"nonpayable","type":"function"},{"inputs":[{"internalType":"uint256","name":"_userId","type":"uint256"},{"internalType":"string","name":"_title","type":"string"},{"internalType":"string","name":"_content","type":"string"}],"name":"createContent","outputs":[],"stateMutability":"nonpayable","type":"function"},{"inputs":[{"internalType":"uint256","name":"_commentId","type":"uint256"}],"name":"deleteComment","outputs":[],"stateMutability":"nonpayable","type":"function"},{"inputs":[{"internalType":"uint256","name":"_contentId","type":"uint256"}],"name":"deleteContent","outputs":[],"stateMutability":"nonpayable","type":"function"},{"inputs":[],"name":"getAllContent","outputs":[{"components":[{"internalType":"string","name":"contentId","type":"string"},{"internalType":"string","name":"userId","type":"string"},{"internalType":"string","name":"title","type":"string"},{"internalType":"string","name":"content","type":"string"},{"internalType":"string","name":"updateTime","type":"string"},{"internalType":"string","name":"praiseCount","type":"string"},{"internalType":"string","name":"contentState","type":"string"}],"internalType":"struct ContentInfo.ReturnContent[]","name":"","type":"tuple[]"}],"stateMutability":"view","type":"function"},{"inputs":[{"internalType":"uint256","name":"_commentId","type":"uint256"}],"name":"getComment","outputs":[{"components":[{"internalType":"string","name":"contentId","type":"string"},{"internalType":"string","name":"userId","type":"string"},{"internalType":"string","name":"commentId","type":"string"},{"internalType":"string","name":"comment","type":"string"},{"internalType":"string","name":"updateTime","type":"string"},{"internalType":"string","name":"praiseCount","type":"string"},{"internalType":"string","name":"commentState","type":"string"}],"internalType":"struct ContentInfo.ReturnComment","name":"","type":"tuple"}],"stateMutability":"view","type":"function"},{"inputs":[{"internalType":"uint256","name":"_contentId","type":"uint256"}],"name":"getCommentsByContentId","outputs":[{"components":[{"internalType":"string","name":"contentId","type":"string"},{"internalType":"string","name":"userId","type":"string"},{"internalType":"string","name":"commentId","type":"string"},{"internalType":"string","name":"comment","type":"string"},{"internalType":"string","name":"updateTime","type":"string"},{"internalType":"string","name":"praiseCount","type":"string"},{"internalType":"string","name":"commentState","type":"string"}],"internalType":"struct ContentInfo.ReturnComment[]","name":"","type":"tuple[]"}],"stateMutability":"view","type":"function"},{"inputs":[{"internalType":"uint256","name":"_contentId","type":"uint256"}],"name":"getContent","outputs":[{"components":[{"internalType":"string","name":"contentId","type":"string"},{"internalType":"string","name":"userId","type":"string"},{"internalType":"string","name":"title","type":"string"},{"internalType":"string","name":"content","type":"string"},{"internalType":"string","name":"updateTime","type":"string"},{"internalType":"string","name":"praiseCount","type":"string"},{"internalType":"string","name":"contentState","type":"string"}],"internalType":"struct ContentInfo.ReturnContent","name":"","type":"tuple"}],"stateMutability":"view","type":"function"},{"inputs":[{"internalType":"uint256","name":"_commentId","type":"uint256"}],"name":"praiseComment","outputs":[],"stateMutability":"nonpayable","type":"function"},{"inputs":[{"internalType":"uint256","name":"_contentId","type":"uint256"}],"name":"praiseContent","outputs":[],"stateMutability":"nonpayable","type":"function"},{"inputs":[{"internalType":"uint256","name":"value","type":"uint256"}],"name":"uint256ToString","outputs":[{"internalType":"string","name":"","type":"string"}],"stateMutability":"pure","type":"function"},{"inputs":[{"internalType":"uint256","name":"_commentId","type":"uint256"},{"internalType":"string","name":"_comment","type":"string"}],"name":"updateComment","outputs":[],"stateMutability":"nonpayable","type":"function"},{"inputs":[{"internalType":"uint256","name":"_contentId","type":"uint256"},{"internalType":"string","name":"_title","type":"string"},{"internalType":"string","name":"_content","type":"string"}],"name":"updateContent","outputs":[],"stateMutability":"nonpayable","type":"function"}],"devdoc":{"kind":"dev","methods":{},"version":1},"evm":{"bytecode":{"linkReferences":{},"object":"608060405234801561001057600080fd5b50612b29806100206000396000f3fe608060405234801561001057600080fd5b50600436106101165760003560e01c8063846c5904116100a2578063a55a7cac11610071578063a55a7cac14610313578063aee9138214610343578063b7d17b3c1461035f578063ce7e51e31461038f578063fed216cb146103bf57610116565b8063846c5904146102755780639a55125e146102a55780639ad666a7146102c15780639f3002c2146102dd57610116565b806354315084116100e957806354315084146101cd5780635b5da505146101eb5780637d0b10261461020757806380562999146102235780638072d9e51461023f57610116565b8063064b01551461011b5780630800e300146101375780630b7ad54c146101675780632efb484014610197575b600080fd5b61013560048036038101906101309190611e0d565b6103db565b005b610151600480360381019061014c9190611d84565b6105f6565b60405161015e9190612516565b60405180910390f35b610181600480360381019061017c9190611d84565b61077b565b60405161018e9190612538565b60405180910390f35b6101b160048036038101906101ac9190611d84565b61097f565b6040516101c49796959493929190612668565b60405180910390f35b6101d5610a49565b6040516101e291906124d2565b60405180910390f35b61020560048036038101906102009190611db1565b610bd2565b005b610221600480360381019061021c9190611d84565b610d4a565b005b61023d60048036038101906102389190611d84565b610eb9565b005b61025960048036038101906102549190611d84565b610f35565b60405161026c9796959493929190612575565b60405180910390f35b61028f600480360381019061028a9190611d84565b611087565b60405161029c91906124b0565b60405180910390f35b6102bf60048036038101906102ba9190611ed8565b61126b565b005b6102db60048036038101906102d69190611d84565b6113be565b005b6102f760048036038101906102f29190611d84565b61160c565b60405161030a97969594939291906125f2565b60405180910390f35b61032d60048036038101906103289190611e98565b6116d6565b60405161033a919061255a565b60405180910390f35b61035d60048036038101906103589190611e0d565b611707565b005b61037960048036038101906103749190611d84565b611855565b604051610386919061255a565b60405180910390f35b6103a960048036038101906103a49190611d84565b611879565b6040516103b691906124f4565b60405180910390f35b6103d960048036038101906103d49190611d84565b6119da565b005b60008060008581526020019081526020016000206040518060e0016040529081600082015481526020016001820154815260200160028201805461041e906128e5565b80601f016020809104026020016040519081016040528092919081815260200182805461044a906128e5565b80156104975780601f1061046c57610100808354040283529160200191610497565b820191906000526020600020905b81548152906001019060200180831161047a57829003601f168201915b505050505081526020016003820180546104b0906128e5565b80601f01602080910402602001604051908101604052809291908181526020018280546104dc906128e5565b80156105295780601f106104fe57610100808354040283529160200191610529565b820191906000526020600020905b81548152906001019060200180831161050c57829003601f168201915b50505050508152602001600482015481526020016005820154815260200160068201548152505090508281604001819052508181606001819052504281608001818152505080600080868152602001908152602001600020600082015181600001556020820151816001015560408201518160020190805190602001906105b1929190611be2565b5060608201518160030190805190602001906105ce929190611be2565b506080820151816004015560a0820151816005015560c0820151816006015590505050505050565b6105fe611c68565b6000600260008481526020019081526020016000206040518060e001604052908160008201548152602001600182015481526020016002820154815260200160038201805461064c906128e5565b80601f0160208091040260200160405190810160405280929190818152602001828054610678906128e5565b80156106c55780601f1061069a576101008083540402835291602001916106c5565b820191906000526020600020905b8154815290600101906020018083116106a857829003601f168201915b505050505081526020016004820154815260200160058201548152602001600682015481525050905060006040518060e001604052806107088460000151611879565b815260200161071a8460200151611879565b815260200161072c8460400151611879565b8152602001836060015181526020016107488460800151611879565b815260200161075a8460a00151611879565b815260200161076c8460c00151611879565b81525090508092505050919050565b610783611ca5565b60008060008481526020019081526020016000206040518060e001604052908160008201548152602001600182015481526020016002820180546107c6906128e5565b80601f01602080910402602001604051908101604052809291908181526020018280546107f2906128e5565b801561083f5780601f106108145761010080835404028352916020019161083f565b820191906000526020600020905b81548152906001019060200180831161082257829003601f168201915b50505050508152602001600382018054610858906128e5565b80601f0160208091040260200160405190810160405280929190818152602001828054610884906128e5565b80156108d15780601f106108a6576101008083540402835291602001916108d1565b820191906000526020600020905b8154815290600101906020018083116108b457829003601f168201915b505050505081526020016004820154815260200160058201548152602001600682015481525050905060006040518060e001604052806109148460000151611879565b81526020016109268460200151611879565b8152602001836040015181526020018360600151815260200161094c8460800151611879565b815260200161095e8460a00151611879565b81526020016109708460c00151611879565b81525090508092505050919050565b60036020528060005260406000206000915090508060000154908060010154908060020154908060030154908060040180546109ba906128e5565b80601f01602080910402602001604051908101604052809291908181526020018280546109e6906128e5565b8015610a335780601f10610a0857610100808354040283529160200191610a33565b820191906000526020600020905b815481529060010190602001808311610a1657829003601f168201915b5050505050908060050154908060060154905087565b6060600060018054905090506000805b82811015610abf57600160008060018481548110610a7a57610a79612a59565b5b90600052602060002001548152602001908152602001600020600601541415610aac578180610aa890612948565b9250505b8080610ab790612948565b915050610a59565b5060008167ffffffffffffffff811115610adc57610adb612a88565b5b604051908082528060200260200182016040528015610b1557816020015b610b02611ca5565b815260200190600190039081610afa5790505b5090506000805b84811015610bc757600160008060018481548110610b3d57610b3c612a59565b5b90600052602060002001548152602001908152602001600020600601541415610bb457610b8760018281548110610b7757610b76612a59565b5b906000526020600020015461077b565b838381518110610b9a57610b99612a59565b5b60200260200101819052508180610bb090612948565b9250505b8080610bbf90612948565b915050610b1c565b508194505050505090565b6000600260008481526020019081526020016000206040518060e0016040529081600082015481526020016001820154815260200160028201548152602001600382018054610c20906128e5565b80601f0160208091040260200160405190810160405280929190818152602001828054610c4c906128e5565b8015610c995780601f10610c6e57610100808354040283529160200191610c99565b820191906000526020600020905b815481529060010190602001808311610c7c57829003601f168201915b50505050508152602001600482015481526020016005820154815260200160068201548152505090508181606001819052504281608001818152505080600260008581526020019081526020016000206000820151816000015560208201518160010155604082015181600201556060820151816003019080519060200190610d23929190611be2565b506080820151816004015560a0820151816005015560c08201518160060155905050505050565b6000600260008381526020019081526020016000206040518060e0016040529081600082015481526020016001820154815260200160028201548152602001600382018054610d98906128e5565b80601f0160208091040260200160405190810160405280929190818152602001828054610dc4906128e5565b8015610e115780601f10610de657610100808354040283529160200191610e11565b820191906000526020600020905b815481529060010190602001808311610df457829003601f168201915b505050505081526020016004820154815260200160058201548152602001600682015481525050905060008160c001818152505080600260008481526020019081526020016000206000820151816000015560208201518160010155604082015181600201556060820151816003019080519060200190610e93929190611be2565b506080820151816004015560a0820151816005015560c082015181600601559050505050565b600260008281526020019081526020016000206005016000815480929190610ee090612948565b91905055507f0b87910fc6cc852cdcd8b78a462cbe0b279427cc46dd248400a11bc14bdde8c26002600083815260200190815260200160002060050154604051610f2a919061255a565b60405180910390a150565b6000602052806000526040600020600091509050806000015490806001015490806002018054610f64906128e5565b80601f0160208091040260200160405190810160405280929190818152602001828054610f90906128e5565b8015610fdd5780601f10610fb257610100808354040283529160200191610fdd565b820191906000526020600020905b815481529060010190602001808311610fc057829003601f168201915b505050505090806003018054610ff2906128e5565b80601f016020809104026020016040519081016040528092919081815260200182805461101e906128e5565b801561106b5780601f106110405761010080835404028352916020019161106b565b820191906000526020600020905b81548152906001019060200180831161104e57829003601f168201915b5050505050908060040154908060050154908060060154905087565b60606000600460008481526020019081526020016000208054806020026020016040519081016040528092919081815260200182805480156110e857602002820191906000526020600020905b8154815260200190600101908083116110d4575b505050505090506000815190506000805b8281101561115c5760016002600086848151811061111a57611119612a59565b5b6020026020010151815260200190815260200160002060060154141561114957818061114590612948565b9250505b808061115490612948565b9150506110f9565b5060008167ffffffffffffffff81111561117957611178612a88565b5b6040519080825280602002602001820160405280156111b257816020015b61119f611c68565b8152602001906001900390816111975790505b5090506000805b8481101561125d576001600260008884815181106111da576111d9612a59565b5b6020026020010151815260200190815260200160002060060154141561124a5761121d8682815181106112105761120f612a59565b5b60200260200101516105f6565b8383815181106112305761122f612a59565b5b6020026020010181905250818061124690612948565b9250505b808061125590612948565b9150506111b9565b508195505050505050919050565b600042848460405160200161128293929190612473565b6040516020818303038152906040528051906020012060001c905060006040518060e00160405280868152602001858152602001838152602001848152602001428152602001600081526020016001815250905080600260008481526020019081526020016000206000820151816000015560208201518160010155604082015181600201556060820151816003019080519060200190611324929190611be2565b506080820151816004015560a0820151816005015560c08201518160060155905050600460008681526020019081526020016000208290806001815401808255809150506001900390600052602060002001600090919091909150557f5a1a930fed43f34b3a07db782ebcac28a661c273e662bb98458cfba5a8ccd220826040516113af919061255a565b60405180910390a15050505050565b60008060008381526020019081526020016000206040518060e00160405290816000820154815260200160018201548152602001600282018054611401906128e5565b80601f016020809104026020016040519081016040528092919081815260200182805461142d906128e5565b801561147a5780601f1061144f5761010080835404028352916020019161147a565b820191906000526020600020905b81548152906001019060200180831161145d57829003601f168201915b50505050508152602001600382018054611493906128e5565b80601f01602080910402602001604051908101604052809291908181526020018280546114bf906128e5565b801561150c5780601f106114e15761010080835404028352916020019161150c565b820191906000526020600020905b8154815290600101906020018083116114ef57829003601f168201915b50505050508152602001600482015481526020016005820154815260200160068201548152505090508060a001805180919061154790612948565b81525050806000808481526020019081526020016000206000820151816000015560208201518160010155604082015181600201908051906020019061158e929190611be2565b5060608201518160030190805190602001906115ab929190611be2565b506080820151816004015560a0820151816005015560c082015181600601559050507f666bc1474759f572309589aaab2099f4fa4aec8ef9a66ebc487fef9c7c8b82778160a00151604051611600919061255a565b60405180910390a15050565b6002602052806000526040600020600091509050806000015490806001015490806002015490806003018054611641906128e5565b80601f016020809104026020016040519081016040528092919081815260200182805461166d906128e5565b80156116ba5780601f1061168f576101008083540402835291602001916116ba565b820191906000526020600020905b81548152906001019060200180831161169d57829003601f168201915b5050505050908060040154908060050154908060060154905087565b600460205281600052604060002081815481106116f257600080fd5b90600052602060002001600091509150505481565b600042848460405160200161171e9392919061243a565b6040516020818303038152906040528051906020012060001c90506040518060e00160405280828152602001858152602001848152602001838152602001428152602001600081526020016001815250600080838152602001908152602001600020600082015181600001556020820151816001015560408201518160020190805190602001906117b0929190611be2565b5060608201518160030190805190602001906117cd929190611be2565b506080820151816004015560a0820151816005015560c0820151816006015590505060018190806001815401808255809150506001900390600052602060002001600090919091909150557fd2f22dea2df70804f9e20fc76bff2574c5cde894d91655438c75b0532431e14f81604051611847919061255a565b60405180910390a150505050565b6001818154811061186557600080fd5b906000526020600020016000915090505481565b606060008214156118c1576040518060400160405280600181526020017f300000000000000000000000000000000000000000000000000000000000000081525090506119d5565b600082905060005b600082146118f35780806118dc90612948565b915050600a826118ec9190612834565b91506118c9565b60008167ffffffffffffffff81111561190f5761190e612a88565b5b6040519080825280601f01601f1916602001820160405280156119415781602001600182028036833780820191505090505b5090505b600085146119ce5760018261195a9190612865565b9150600a85611969919061299b565b603061197591906127de565b60f81b81838151811061198b5761198a612a59565b5b60200101907effffffffffffffffffffffffffffffffffffffffffffffffffffffffffffff1916908160001a905350600a856119c79190612834565b9450611945565b8093505050505b919050565b60008060008381526020019081526020016000206040518060e00160405290816000820154815260200160018201548152602001600282018054611a1d906128e5565b80601f0160208091040260200160405190810160405280929190818152602001828054611a49906128e5565b8015611a965780601f10611a6b57610100808354040283529160200191611a96565b820191906000526020600020905b815481529060010190602001808311611a7957829003601f168201915b50505050508152602001600382018054611aaf906128e5565b80601f0160208091040260200160405190810160405280929190818152602001828054611adb906128e5565b8015611b285780601f10611afd57610100808354040283529160200191611b28565b820191906000526020600020905b815481529060010190602001808311611b0b57829003601f168201915b505050505081526020016004820154815260200160058201548152602001600682015481525050905060008160c00181815250508060008084815260200190815260200160002060008201518160000155602082015181600101556040820151816002019080519060200190611b9f929190611be2565b506060820151816003019080519060200190611bbc929190611be2565b506080820151816004015560a0820151816005015560c082015181600601559050505050565b828054611bee906128e5565b90600052602060002090601f016020900481019282611c105760008555611c57565b82601f10611c2957805160ff1916838001178555611c57565b82800160010185558215611c57579182015b82811115611c56578251825591602001919060010190611c3b565b5b509050611c649190611ce2565b5090565b6040518060e00160405280606081526020016060815260200160608152602001606081526020016060815260200160608152602001606081525090565b6040518060e00160405280606081526020016060815260200160608152602001606081526020016060815260200160608152602001606081525090565b5b80821115611cfb576000816000905550600101611ce3565b5090565b6000611d12611d0d84612703565b6126de565b905082815260208101848484011115611d2e57611d2d612abc565b5b611d398482856128a3565b509392505050565b600082601f830112611d5657611d55612ab7565b5b8135611d66848260208601611cff565b91505092915050565b600081359050611d7e81612adc565b92915050565b600060208284031215611d9a57611d99612ac6565b5b6000611da884828501611d6f565b91505092915050565b60008060408385031215611dc857611dc7612ac6565b5b6000611dd685828601611d6f565b925050602083013567ffffffffffffffff811115611df757611df6612ac1565b5b611e0385828601611d41565b9150509250929050565b600080600060608486031215611e2657611e25612ac6565b5b6000611e3486828701611d6f565b935050602084013567ffffffffffffffff811115611e5557611e54612ac1565b5b611e6186828701611d41565b925050604084013567ffffffffffffffff811115611e8257611e81612ac1565b5b611e8e86828701611d41565b9150509250925092565b60008060408385031215611eaf57611eae612ac6565b5b6000611ebd85828601611d6f565b9250506020611ece85828601611d6f565b9150509250929050565b600080600060608486031215611ef157611ef0612ac6565b5b6000611eff86828701611d6f565b9350506020611f1086828701611d6f565b925050604084013567ffffffffffffffff811115611f3157611f30612ac1565b5b611f3d86828701611d41565b9150509250925092565b6000611f5383836120fc565b905092915050565b6000611f678383612288565b905092915050565b6000611f7a82612754565b611f84818561278f565b935083602082028501611f9685612734565b8060005b85811015611fd25784840389528151611fb38582611f47565b9450611fbe83612775565b925060208a01995050600181019050611f9a565b50829750879550505050505092915050565b6000611fef8261275f565b611ff981856127a0565b93508360208202850161200b85612744565b8060005b8581101561204757848403895281516120288582611f5b565b945061203383612782565b925060208a0199505060018101905061200f565b50829750879550505050505092915050565b60006120648261276a565b61206e81856127b1565b935061207e8185602086016128b2565b61208781612acb565b840191505092915050565b600061209d8261276a565b6120a781856127c2565b93506120b78185602086016128b2565b6120c081612acb565b840191505092915050565b60006120d68261276a565b6120e081856127d3565b93506120f08185602086016128b2565b80840191505092915050565b600060e08301600083015184820360008601526121198282612059565b915050602083015184820360208601526121338282612059565b9150506040830151848203604086015261214d8282612059565b915050606083015184820360608601526121678282612059565b915050608083015184820360808601526121818282612059565b91505060a083015184820360a086015261219b8282612059565b91505060c083015184820360c08601526121b58282612059565b9150508091505092915050565b600060e08301600083015184820360008601526121df8282612059565b915050602083015184820360208601526121f98282612059565b915050604083015184820360408601526122138282612059565b9150506060830151848203606086015261222d8282612059565b915050608083015184820360808601526122478282612059565b91505060a083015184820360a08601526122618282612059565b91505060c083015184820360c086015261227b8282612059565b9150508091505092915050565b600060e08301600083015184820360008601526122a58282612059565b915050602083015184820360208601526122bf8282612059565b915050604083015184820360408601526122d98282612059565b915050606083015184820360608601526122f38282612059565b9150506080830151848203608086015261230d8282612059565b91505060a083015184820360a08601526123278282612059565b91505060c083015184820360c08601526123418282612059565b9150508091505092915050565b600060e083016000830151848203600086015261236b8282612059565b915050602083015184820360208601526123858282612059565b9150506040830151848203604086015261239f8282612059565b915050606083015184820360608601526123b98282612059565b915050608083015184820360808601526123d38282612059565b91505060a083015184820360a08601526123ed8282612059565b91505060c083015184820360c08601526124078282612059565b9150508091505092915050565b61241d81612899565b82525050565b61243461242f82612899565b612991565b82525050565b60006124468286612423565b6020820191506124568285612423565b60208201915061246682846120cb565b9150819050949350505050565b600061247f8286612423565b60208201915061248f8285612423565b60208201915061249f8284612423565b602082019150819050949350505050565b600060208201905081810360008301526124ca8184611f6f565b905092915050565b600060208201905081810360008301526124ec8184611fe4565b905092915050565b6000602082019050818103600083015261250e8184612092565b905092915050565b6000602082019050818103600083015261253081846121c2565b905092915050565b60006020820190508181036000830152612552818461234e565b905092915050565b600060208201905061256f6000830184612414565b92915050565b600060e08201905061258a600083018a612414565b6125976020830189612414565b81810360408301526125a98188612092565b905081810360608301526125bd8187612092565b90506125cc6080830186612414565b6125d960a0830185612414565b6125e660c0830184612414565b98975050505050505050565b600060e082019050612607600083018a612414565b6126146020830189612414565b6126216040830188612414565b81810360608301526126338187612092565b90506126426080830186612414565b61264f60a0830185612414565b61265c60c0830184612414565b98975050505050505050565b600060e08201905061267d600083018a612414565b61268a6020830189612414565b6126976040830188612414565b6126a46060830187612414565b81810360808301526126b68186612092565b90506126c560a0830185612414565b6126d260c0830184612414565b98975050505050505050565b60006126e86126f9565b90506126f48282612917565b919050565b6000604051905090565b600067ffffffffffffffff82111561271e5761271d612a88565b5b61272782612acb565b9050602081019050919050565b6000819050602082019050919050565b6000819050602082019050919050565b600081519050919050565b600081519050919050565b600081519050919050565b6000602082019050919050565b6000602082019050919050565b600082825260208201905092915050565b600082825260208201905092915050565b600082825260208201905092915050565b600082825260208201905092915050565b600081905092915050565b60006127e982612899565b91506127f483612899565b9250827fffffffffffffffffffffffffffffffffffffffffffffffffffffffffffffffff03821115612829576128286129cc565b5b828201905092915050565b600061283f82612899565b915061284a83612899565b92508261285a576128596129fb565b5b828204905092915050565b600061287082612899565b915061287b83612899565b92508282101561288e5761288d6129cc565b5b828203905092915050565b6000819050919050565b82818337600083830152505050565b60005b838110156128d05780820151818401526020810190506128b5565b838111156128df576000848401525b50505050565b600060028204905060018216806128fd57607f821691505b6020821081141561291157612910612a2a565b5b50919050565b61292082612acb565b810181811067ffffffffffffffff8211171561293f5761293e612a88565b5b80604052505050565b600061295382612899565b91507fffffffffffffffffffffffffffffffffffffffffffffffffffffffffffffffff821415612986576129856129cc565b5b600182019050919050565b6000819050919050565b60006129a682612899565b91506129b183612899565b9250826129c1576129c06129fb565b5b828206905092915050565b7f4e487b7100000000000000000000000000000000000000000000000000000000600052601160045260246000fd5b7f4e487b7100000000000000000000000000000000000000000000000000000000600052601260045260246000fd5b7f4e487b7100000000000000000000000000000000000000000000000000000000600052602260045260246000fd5b7f4e487b7100000000000000000000000000000000000000000000000000000000600052603260045260246000fd5b7f4e487b7100000000000000000000000000000000000000000000000000000000600052604160045260246000fd5b600080fd5b600080fd5b600080fd5b600080fd5b6000601f19601f8301169050919050565b612ae581612899565b8114612af057600080fd5b5056fea2646970667358221220e8f6a74130763c483f0a77ce05ca20caa46ab4fb746a36c60bf53a7eee40345c64736f6c63430008070033","opcodes":"PUSH1 0x80 PUSH1 0x40 MSTORE CALLVALUE DUP1 ISZERO PUSH2 0x10 JUMPI PUSH1 0x0 DUP1 REVERT JUMPDEST POP PUSH2 0x2B29 DUP1 PUSH2 0x20 PUSH1 0x0 CODECOPY PUSH1 0x0 RETURN INVALID PUSH1 0x80 PUSH1 0x40 MSTORE CALLVALUE DUP1 ISZERO PUSH2 0x10 JUMPI PUSH1 0x0 DUP1 REVERT JUMPDEST POP PUSH1 0x4 CALLDATASIZE LT PUSH2 0x116 JUMPI PUSH1 0x0 CALLDATALOAD PUSH1 0xE0 SHR DUP1 PUSH4 0x846C5904 GT PUSH2 0xA2 JUMPI DUP1 PUSH4 0xA55A7CAC GT PUSH2 0x71 JUMPI DUP1 PUSH4 0xA55A7CAC EQ PUSH2 0x313 JUMPI DUP1 PUSH4 0xAEE91382 EQ PUSH2 0x343 JUMPI DUP1 PUSH4 0xB7D17B3C EQ PUSH2 0x35F JUMPI DUP1 PUSH4 0xCE7E51E3 EQ PUSH2 0x38F JUMPI DUP1 PUSH4 0xFED216CB EQ PUSH2 0x3BF JUMPI PUSH2 0x116 JUMP JUMPDEST DUP1 PUSH4 0x846C5904 EQ PUSH2 0x275 JUMPI DUP1 PUSH4 0x9A55125E EQ PUSH2 0x2A5 JUMPI DUP1 PUSH4 0x9AD666A7 EQ PUSH2 0x2C1 JUMPI DUP1 PUSH4 0x9F3002C2 EQ PUSH2 0x2DD JUMPI PUSH2 0x116 JUMP JUMPDEST DUP1 PUSH4 0x54315084 GT PUSH2 0xE9 JUMPI DUP1 PUSH4 0x54315084 EQ PUSH2 0x1CD JUMPI DUP1 PUSH4 0x5B5DA505 EQ PUSH2 0x1EB JUMPI DUP1 PUSH4 0x7D0B1026 EQ PUSH2 0x207 JUMPI DUP1 PUSH4 0x80562999 EQ PUSH2 0x223 JUMPI DUP1 PUSH4 0x8072D9E5 EQ PUSH2 0x23F JUMPI PUSH2 0x116 JUMP JUMPDEST DUP1 PUSH4 0x64B0155 EQ PUSH2 0x11B JUMPI DUP1 PUSH4 0x800E300 EQ PUSH2 0x137 JUMPI DUP1 PUSH4 0xB7AD54C EQ PUSH2 0x167 JUMPI DUP1 PUSH4 0x2EFB4840 EQ PUSH2 0x197 JUMPI JUMPDEST PUSH1 0x0 DUP1 REVERT JUMPDEST PUSH2 0x135 PUSH1 0x4 DUP1 CALLDATASIZE SUB DUP2 ADD SWAP1 PUSH2 0x130 SWAP2 SWAP1 PUSH2 0x1E0D JUMP JUMPDEST PUSH2 0x3DB JUMP JUMPDEST STOP JUMPDEST PUSH2 0x151 PUSH1 0x4 DUP1 CALLDATASIZE SUB DUP2 ADD SWAP1 PUSH2 0x14C SWAP2 SWAP1 PUSH2 0x1D84 JUMP JUMPDEST PUSH2 0x5F6 JUMP JUMPDEST PUSH1 0x40 MLOAD PUSH2 0x15E SWAP2 SWAP1 PUSH2 0x2516 JUMP JUMPDEST PUSH1 0x40 MLOAD DUP1 SWAP2 SUB SWAP1 RETURN JUMPDEST PUSH2 0x181 PUSH1 0x4 DUP1 CALLDATASIZE SUB DUP2 ADD SWAP1 PUSH2 0x17C SWAP2 SWAP1 PUSH2 0x1D84 JUMP JUMPDEST PUSH2 0x77B JUMP JUMPDEST PUSH1 0x40 MLOAD PUSH2 0x18E SWAP2 SWAP1 PUSH2 0x2538 JUMP JUMPDEST PUSH1 0x40 MLOAD DUP1 SWAP2 SUB SWAP1 RETURN JUMPDEST PUSH2 0x1B1 PUSH1 0x4 DUP1 CALLDATASIZE SUB DUP2 ADD SWAP1 PUSH2 0x1AC SWAP2 SWAP1 PUSH2 0x1D84 JUMP JUMPDEST PUSH2 0x97F JUMP JUMPDEST PUSH1 0x40 MLOAD PUSH2 0x1C4 SWAP8 SWAP7 SWAP6 SWAP5 SWAP4 SWAP3 SWAP2 SWAP1 PUSH2 0x2668 JUMP JUMPDEST PUSH1 0x40 MLOAD DUP1 SWAP2 SUB SWAP1 RETURN JUMPDEST PUSH2 0x1D5 PUSH2 0xA49 JUMP JUMPDEST PUSH1 0x40 MLOAD PUSH2 0x1E2 SWAP2 SWAP1 PUSH2 0x24D2 JUMP JUMPDEST PUSH1 0x40 MLOAD DUP1 SWAP2 SUB SWAP1 RETURN JUMPDEST PUSH2 0x205 PUSH1 0x4 DUP1 CALLDATASIZE SUB DUP2 ADD SWAP1 PUSH2 0x200 SWAP2 SWAP1 PUSH2 0x1DB1 JUMP JUMPDEST PUSH2 0xBD2 JUMP JUMPDEST STOP JUMPDEST PUSH2 0x221 PUSH1 0x4 DUP1 CALLDATASIZE SUB DUP2 ADD SWAP1 PUSH2 0x21C SWAP2 SWAP1 PUSH2 0x1D84 JUMP JUMPDEST PUSH2 0xD4A JUMP JUMPDEST STOP JUMPDEST PUSH2 0x23D PUSH1 0x4 DUP1 CALLDATASIZE SUB DUP2 ADD SWAP1 PUSH2 0x238 SWAP2 SWAP1 PUSH2 0x1D84 JUMP JUMPDEST PUSH2 0xEB9 JUMP JUMPDEST STOP JUMPDEST PUSH2 0x259 PUSH1 0x4 DUP1 CALLDATASIZE SUB DUP2 ADD SWAP1 PUSH2 0x254 SWAP2 SWAP1 PUSH2 0x1D84 JUMP JUMPDEST PUSH2 0xF35 JUMP JUMPDEST PUSH1 0x40 MLOAD PUSH2 0x26C SWAP8 SWAP7 SWAP6 SWAP5 SWAP4 SWAP3 SWAP2 SWAP1 PUSH2 0x2575 JUMP JUMPDEST PUSH1 0x40 MLOAD DUP1 SWAP2 SUB SWAP1 RETURN JUMPDEST PUSH2 0x28F PUSH1 0x4 DUP1 CALLDATASIZE SUB DUP2 ADD SWAP1 PUSH2 0x28A SWAP2 SWAP1 PUSH2 0x1D84 JUMP JUMPDEST PUSH2 0x1087 JUMP JUMPDEST PUSH1 0x40 MLOAD PUSH2 0x29C SWAP2 SWAP1 PUSH2 0x24B0 JUMP JUMPDEST PUSH1 0x40 MLOAD DUP1 SWAP2 SUB SWAP1 RETURN JUMPDEST PUSH2 0x2BF PUSH1 0x4 DUP1 CALLDATASIZE SUB DUP2 ADD SWAP1 PUSH2 0x2BA SWAP2 SWAP1 PUSH2 0x1ED8 JUMP JUMPDEST PUSH2 0x126B JUMP JUMPDEST STOP JUMPDEST PUSH2 0x2DB PUSH1 0x4 DUP1 CALLDATASIZE SUB DUP2 ADD SWAP1 PUSH2 0x2D6 SWAP2 SWAP1 PUSH2 0x1D84 JUMP JUMPDEST PUSH2 0x13BE JUMP JUMPDEST STOP JUMPDEST PUSH2 0x2F7 PUSH1 0x4 DUP1 CALLDATASIZE SUB DUP2 ADD SWAP1 PUSH2 0x2F2 SWAP2 SWAP1 PUSH2 0x1D84 JUMP JUMPDEST PUSH2 0x160C JUMP JUMPDEST PUSH1 0x40 MLOAD PUSH2 0x30A SWAP8 SWAP7 SWAP6 SWAP5 SWAP4 SWAP3 SWAP2 SWAP1 PUSH2 0x25F2 JUMP JUMPDEST PUSH1 0x40 MLOAD DUP1 SWAP2 SUB SWAP1 RETURN JUMPDEST PUSH2 0x32D PUSH1 0x4 DUP1 CALLDATASIZE SUB DUP2 ADD SWAP1 PUSH2 0x328 SWAP2 SWAP1 PUSH2 0x1E98 JUMP JUMPDEST PUSH2 0x16D6 JUMP JUMPDEST PUSH1 0x40 MLOAD PUSH2 0x33A SWAP2 SWAP1 PUSH2 0x255A JUMP JUMPDEST PUSH1 0x40 MLOAD DUP1 SWAP2 SUB SWAP1 RETURN JUMPDEST PUSH2 0x35D PUSH1 0x4 DUP1 CALLDATASIZE SUB DUP2 ADD SWAP1 PUSH2 0x358 SWAP2 SWAP1 PUSH2 0x1E0D JUMP JUMPDEST PUSH2 0x1707 JUMP JUMPDEST STOP JUMPDEST PUSH2 0x379 PUSH1 0x4 DUP1 CALLDATASIZE SUB DUP2 ADD SWAP1 PUSH2 0x374 SWAP2 SWAP1 PUSH2 0x1D84 JUMP JUMPDEST PUSH2 0x1855 JUMP JUMPDEST PUSH1 0x40 MLOAD PUSH2 0x386 SWAP2 SWAP1 PUSH2 0x255A JUMP JUMPDEST PUSH1 0x40 MLOAD DUP1 SWAP2 SUB SWAP1 RETURN JUMPDEST PUSH2 0x3A9 PUSH1 0x4 DUP1 CALLDATASIZE SUB DUP2 ADD SWAP1 PUSH2 0x3A4 SWAP2 SWAP1 PUSH2 0x1D84 JUMP JUMPDEST PUSH2 0x1879 JUMP JUMPDEST PUSH1 0x40 MLOAD PUSH2 0x3B6 SWAP2 SWAP1 PUSH2 0x24F4 JUMP JUMPDEST PUSH1 0x40 MLOAD DUP1 SWAP2 SUB SWAP1 RETURN JUMPDEST PUSH2 0x3D9 PUSH1 0x4 DUP1 CALLDATASIZE SUB DUP2 ADD SWAP1 PUSH2 0x3D4 SWAP2 SWAP1 PUSH2 0x1D84 JUMP JUMPDEST PUSH2 0x19DA JUMP JUMPDEST STOP JUMPDEST PUSH1 0x0 DUP1 PUSH1 0x0 DUP6 DUP2 MSTORE PUSH1 0x20 ADD SWAP1 DUP2 MSTORE PUSH1 0x20 ADD PUSH1 0x0 KECCAK256 PUSH1 0x40 MLOAD DUP1 PUSH1 0xE0 ADD PUSH1 0x40 MSTORE SWAP1 DUP2 PUSH1 0x0 DUP3 ADD SLOAD DUP2 MSTORE PUSH1 0x20 ADD PUSH1 0x1 DUP3 ADD SLOAD DUP2 MSTORE PUSH1 0x20 ADD PUSH1 0x2 DUP3 ADD DUP1 SLOAD PUSH2 0x41E SWAP1 PUSH2 0x28E5 JUMP JUMPDEST DUP1 PUSH1 0x1F ADD PUSH1 0x20 DUP1 SWAP2 DIV MUL PUSH1 0x20 ADD PUSH1 0x40 MLOAD SWAP1 DUP2 ADD PUSH1 0x40 MSTORE DUP1 SWAP3 SWAP2 SWAP1 DUP2 DUP2 MSTORE PUSH1 0x20 ADD DUP3 DUP1 SLOAD PUSH2 0x44A SWAP1 PUSH2 0x28E5 JUMP JUMPDEST DUP1 ISZERO PUSH2 0x497 JUMPI DUP1 PUSH1 0x1F LT PUSH2 0x46C JUMPI PUSH2 0x100 DUP1 DUP4 SLOAD DIV MUL DUP4 MSTORE SWAP2 PUSH1 0x20 ADD SWAP2 PUSH2 0x497 JUMP JUMPDEST DUP3 ADD SWAP2 SWAP1 PUSH1 0x0 MSTORE PUSH1 0x20 PUSH1 0x0 KECCAK256 SWAP1 JUMPDEST DUP2 SLOAD DUP2 MSTORE SWAP1 PUSH1 0x1 ADD SWAP1 PUSH1 0x20 ADD DUP1 DUP4 GT PUSH2 0x47A JUMPI DUP3 SWAP1 SUB PUSH1 0x1F AND DUP3 ADD SWAP2 JUMPDEST POP POP POP POP POP DUP2 MSTORE PUSH1 0x20 ADD PUSH1 0x3 DUP3 ADD DUP1 SLOAD PUSH2 0x4B0 SWAP1 PUSH2 0x28E5 JUMP JUMPDEST DUP1 PUSH1 0x1F ADD PUSH1 0x20 DUP1 SWAP2 DIV MUL PUSH1 0x20 ADD PUSH1 0x40 MLOAD SWAP1 DUP2 ADD PUSH1 0x40 MSTORE DUP1 SWAP3 SWAP2 SWAP1 DUP2 DUP2 MSTORE PUSH1 0x20 ADD DUP3 DUP1 SLOAD PUSH2 0x4DC SWAP1 PUSH2 0x28E5 JUMP JUMPDEST DUP1 ISZERO PUSH2 0x529 JUMPI DUP1 PUSH1 0x1F LT PUSH2 0x4FE JUMPI PUSH2 0x100 DUP1 DUP4 SLOAD DIV MUL DUP4 MSTORE SWAP2 PUSH1 0x20 ADD SWAP2 PUSH2 0x529 JUMP JUMPDEST DUP3 ADD SWAP2 SWAP1 PUSH1 0x0 MSTORE PUSH1 0x20 PUSH1 0x0 KECCAK256 SWAP1 JUMPDEST DUP2 SLOAD DUP2 MSTORE SWAP1 PUSH1 0x1 ADD SWAP1 PUSH1 0x20 ADD DUP1 DUP4 GT PUSH2 0x50C JUMPI DUP3 SWAP1 SUB PUSH1 0x1F AND DUP3 ADD SWAP2 JUMPDEST POP POP POP POP POP DUP2 MSTORE PUSH1 0x20 ADD PUSH1 0x4 DUP3 ADD SLOAD DUP2 MSTORE PUSH1 0x20 ADD PUSH1 0x5 DUP3 ADD SLOAD DUP2 MSTORE PUSH1 0x20 ADD PUSH1 0x6 DUP3 ADD SLOAD DUP2 MSTORE POP POP SWAP1 POP DUP3 DUP2 PUSH1 0x40 ADD DUP2 SWAP1 MSTORE POP DUP2 DUP2 PUSH1 0x60 ADD DUP2 SWAP1 MSTORE POP TIMESTAMP DUP2 PUSH1 0x80 ADD DUP2 DUP2 MSTORE POP POP DUP1 PUSH1 0x0 DUP1 DUP7 DUP2 MSTORE PUSH1 0x20 ADD SWAP1 DUP2 MSTORE PUSH1 0x20 ADD PUSH1 0x0 KECCAK256 PUSH1 0x0 DUP3 ADD MLOAD DUP2 PUSH1 0x0 ADD SSTORE PUSH1 0x20 DUP3 ADD MLOAD DUP2 PUSH1 0x1 ADD SSTORE PUSH1 0x40 DUP3 ADD MLOAD DUP2 PUSH1 0x2 ADD SWAP1 DUP1 MLOAD SWAP1 PUSH1 0x20 ADD SWAP1 PUSH2 0x5B1 SWAP3 SWAP2 SWAP1 PUSH2 0x1BE2 JUMP JUMPDEST POP PUSH1 0x60 DUP3 ADD MLOAD DUP2 PUSH1 0x3 ADD SWAP1 DUP1 MLOAD SWAP1 PUSH1 0x20 ADD SWAP1 PUSH2 0x5CE SWAP3 SWAP2 SWAP1 PUSH2 0x1BE2 JUMP JUMPDEST POP PUSH1 0x80 DUP3 ADD MLOAD DUP2 PUSH1 0x4 ADD SSTORE PUSH1 0xA0 DUP3 ADD MLOAD DUP2 PUSH1 0x5 ADD SSTORE PUSH1 0xC0 DUP3 ADD MLOAD DUP2 PUSH1 0x6 ADD SSTORE SWAP1 POP POP POP POP POP POP JUMP JUMPDEST PUSH2 0x5FE PUSH2 0x1C68 JUMP JUMPDEST PUSH1 0x0 PUSH1 0x2 PUSH1 0x0 DUP5 DUP2 MSTORE PUSH1 0x20 ADD SWAP1 DUP2 MSTORE PUSH1 0x20 ADD PUSH1 0x0 KECCAK256 PUSH1 0x40 MLOAD DUP1 PUSH1 0xE0 ADD PUSH1 0x40 MSTORE SWAP1 DUP2 PUSH1 0x0 DUP3 ADD SLOAD DUP2 MSTORE PUSH1 0x20 ADD PUSH1 0x1 DUP3 ADD SLOAD DUP2 MSTORE PUSH1 0x20 ADD PUSH1 0x2 DUP3 ADD SLOAD DUP2 MSTORE PUSH1 0x20 ADD PUSH1 0x3 DUP3 ADD DUP1 SLOAD PUSH2 0x64C SWAP1 PUSH2 0x28E5 JUMP JUMPDEST DUP1 PUSH1 0x1F ADD PUSH1 0x20 DUP1 SWAP2 DIV MUL PUSH1 0x20 ADD PUSH1 0x40 MLOAD SWAP1 DUP2 ADD PUSH1 0x40 MSTORE DUP1 SWAP3 SWAP2 SWAP1 DUP2 DUP2 MSTORE PUSH1 0x20 ADD DUP3 DUP1 SLOAD PUSH2 0x678 SWAP1 PUSH2 0x28E5 JUMP JUMPDEST DUP1 ISZERO PUSH2 0x6C5 JUMPI DUP1 PUSH1 0x1F LT PUSH2 0x69A JUMPI PUSH2 0x100 DUP1 DUP4 SLOAD DIV MUL DUP4 MSTORE SWAP2 PUSH1 0x20 ADD SWAP2 PUSH2 0x6C5 JUMP JUMPDEST DUP3 ADD SWAP2 SWAP1 PUSH1 0x0 MSTORE PUSH1 0x20 PUSH1 0x0 KECCAK256 SWAP1 JUMPDEST DUP2 SLOAD DUP2 MSTORE SWAP1 PUSH1 0x1 ADD SWAP1 PUSH1 0x20 ADD DUP1 DUP4 GT PUSH2 0x6A8 JUMPI DUP3 SWAP1 SUB PUSH1 0x1F AND DUP3 ADD SWAP2 JUMPDEST POP POP POP POP POP DUP2 MSTORE PUSH1 0x20 ADD PUSH1 0x4 DUP3 ADD SLOAD DUP2 MSTORE PUSH1 0x20 ADD PUSH1 0x5 DUP3 ADD SLOAD DUP2 MSTORE PUSH1 0x20 ADD PUSH1 0x6 DUP3 ADD SLOAD DUP2 MSTORE POP POP SWAP1 POP PUSH1 0x0 PUSH1 0x40 MLOAD DUP1 PUSH1 0xE0 ADD PUSH1 0x40 MSTORE DUP1 PUSH2 0x708 DUP5 PUSH1 0x0 ADD MLOAD PUSH2 0x1879 JUMP JUMPDEST DUP2 MSTORE PUSH1 0x20 ADD PUSH2 0x71A DUP5 PUSH1 0x20 ADD MLOAD PUSH2 0x1879 JUMP JUMPDEST DUP2 MSTORE PUSH1 0x20 ADD PUSH2 0x72C DUP5 PUSH1 0x40 ADD MLOAD PUSH2 0x1879 JUMP JUMPDEST DUP2 MSTORE PUSH1 0x20 ADD DUP4 PUSH1 0x60 ADD MLOAD DUP2 MSTORE PUSH1 0x20 ADD PUSH2 0x748 DUP5 PUSH1 0x80 ADD MLOAD PUSH2 0x1879 JUMP JUMPDEST DUP2 MSTORE PUSH1 0x20 ADD PUSH2 0x75A DUP5 PUSH1 0xA0 ADD MLOAD PUSH2 0x1879 JUMP JUMPDEST DUP2 MSTORE PUSH1 0x20 ADD PUSH2 0x76C DUP5 PUSH1 0xC0 ADD MLOAD PUSH2 0x1879 JUMP JUMPDEST DUP2 MSTORE POP SWAP1 POP DUP1 SWAP3 POP POP POP SWAP2 SWAP1 POP JUMP JUMPDEST PUSH2 0x783 PUSH2 0x1CA5 JUMP JUMPDEST PUSH1 0x0 DUP1 PUSH1 0x0 DUP5 DUP2 MSTORE PUSH1 0x20 ADD SWAP1 DUP2 MSTORE PUSH1 0x20 ADD PUSH1 0x0 KECCAK256 PUSH1 0x40 MLOAD DUP1 PUSH1 0xE0 ADD PUSH1 0x40 MSTORE SWAP1 DUP2 PUSH1 0x0 DUP3 ADD SLOAD DUP2 MSTORE PUSH1 0x20 ADD PUSH1 0x1 DUP3 ADD SLOAD DUP2 MSTORE PUSH1 0x20 ADD PUSH1 0x2 DUP3 ADD DUP1 SLOAD PUSH2 0x7C6 SWAP1 PUSH2 0x28E5 JUMP JUMPDEST DUP1 PUSH1 0x1F ADD PUSH1 0x20 DUP1 SWAP2 DIV MUL PUSH1 0x20 ADD PUSH1 0x40 MLOAD SWAP1 DUP2 ADD PUSH1 0x40 MSTORE DUP1 SWAP3 SWAP2 SWAP1 DUP2 DUP2 MSTORE PUSH1 0x20 ADD DUP3 DUP1 SLOAD PUSH2 0x7F2 SWAP1 PUSH2 0x28E5 JUMP JUMPDEST DUP1 ISZERO PUSH2 0x83F JUMPI DUP1 PUSH1 0x1F LT PUSH2 0x814 JUMPI PUSH2 0x100 DUP1 DUP4 SLOAD DIV MUL DUP4 MSTORE SWAP2 PUSH1 0x20 ADD SWAP2 PUSH2 0x83F JUMP JUMPDEST DUP3 ADD SWAP2 SWAP1 PUSH1 0x0 MSTORE PUSH1 0x20 PUSH1 0x0 KECCAK256 SWAP1 JUMPDEST DUP2 SLOAD DUP2 MSTORE SWAP1 PUSH1 0x1 ADD SWAP1 PUSH1 0x20 ADD DUP1 DUP4 GT PUSH2 0x822 JUMPI DUP3 SWAP1 SUB PUSH1 0x1F AND DUP3 ADD SWAP2 JUMPDEST POP POP POP POP POP DUP2 MSTORE PUSH1 0x20 ADD PUSH1 0x3 DUP3 ADD DUP1 SLOAD PUSH2 0x858 SWAP1 PUSH2 0x28E5 JUMP JUMPDEST DUP1 PUSH1 0x1F ADD PUSH1 0x20 DUP1 SWAP2 DIV MUL PUSH1 0x20 ADD PUSH1 0x40 MLOAD SWAP1 DUP2 ADD PUSH1 0x40 MSTORE DUP1 SWAP3 SWAP2 SWAP1 DUP2 DUP2 MSTORE PUSH1 0x20 ADD DUP3 DUP1 SLOAD PUSH2 0x884 SWAP1 PUSH2 0x28E5 JUMP JUMPDEST DUP1 ISZERO PUSH2 0x8D1 JUMPI DUP1 PUSH1 0x1F LT PUSH2 0x8A6 JUMPI PUSH2 0x100 DUP1 DUP4 SLOAD DIV MUL DUP4 MSTORE SWAP2 PUSH1 0x20 ADD SWAP2 PUSH2 0x8D1 JUMP JUMPDEST DUP3 ADD SWAP2 SWAP1 PUSH1 0x0 MSTORE PUSH1 0x20 PUSH1 0x0 KECCAK256 SWAP1 JUMPDEST DUP2 SLOAD DUP2 MSTORE SWAP1 PUSH1 0x1 ADD SWAP1 PUSH1 0x20 ADD DUP1 DUP4 GT PUSH2 0x8B4 JUMPI DUP3 SWAP1 SUB PUSH1 0x1F AND DUP3 ADD SWAP2 JUMPDEST POP POP POP POP POP DUP2 MSTORE PUSH1 0x20 ADD PUSH1 0x4 DUP3 ADD SLOAD DUP2 MSTORE PUSH1 0x20 ADD PUSH1 0x5 DUP3 ADD SLOAD DUP2 MSTORE PUSH1 0x20 ADD PUSH1 0x6 DUP3 ADD SLOAD DUP2 MSTORE POP POP SWAP1 POP PUSH1 0x0 PUSH1 0x40 MLOAD DUP1 PUSH1 0xE0 ADD PUSH1 0x40 MSTORE DUP1 PUSH2 0x914 DUP5 PUSH1 0x0 ADD MLOAD PUSH2 0x1879 JUMP JUMPDEST DUP2 MSTORE PUSH1 0x20 ADD PUSH2 0x926 DUP5 PUSH1 0x20 ADD MLOAD PUSH2 0x1879 JUMP JUMPDEST DUP2 MSTORE PUSH1 0x20 ADD DUP4 PUSH1 0x40 ADD MLOAD DUP2 MSTORE PUSH1 0x20 ADD DUP4 PUSH1 0x60 ADD MLOAD DUP2 MSTORE PUSH1 0x20 ADD PUSH2 0x94C DUP5 PUSH1 0x80 ADD MLOAD PUSH2 0x1879 JUMP JUMPDEST DUP2 MSTORE PUSH1 0x20 ADD PUSH2 0x95E DUP5 PUSH1 0xA0 ADD MLOAD PUSH2 0x1879 JUMP JUMPDEST DUP2 MSTORE PUSH1 0x20 ADD PUSH2 0x970 DUP5 PUSH1 0xC0 ADD MLOAD PUSH2 0x1879 JUMP JUMPDEST DUP2 MSTORE POP SWAP1 POP DUP1 SWAP3 POP POP POP SWAP2 SWAP1 POP JUMP JUMPDEST PUSH1 0x3 PUSH1 0x20 MSTORE DUP1 PUSH1 0x0 MSTORE PUSH1 0x40 PUSH1 0x0 KECCAK256 PUSH1 0x0 SWAP2 POP SWAP1 POP DUP1 PUSH1 0x0 ADD SLOAD SWAP1 DUP1 PUSH1 0x1 ADD SLOAD SWAP1 DUP1 PUSH1 0x2 ADD SLOAD SWAP1 DUP1 PUSH1 0x3 ADD SLOAD SWAP1 DUP1 PUSH1 0x4 ADD DUP1 SLOAD PUSH2 0x9BA SWAP1 PUSH2 0x28E5 JUMP JUMPDEST DUP1 PUSH1 0x1F ADD PUSH1 0x20 DUP1 SWAP2 DIV MUL PUSH1 0x20 ADD PUSH1 0x40 MLOAD SWAP1 DUP2 ADD PUSH1 0x40 MSTORE DUP1 SWAP3 SWAP2 SWAP1 DUP2 DUP2 MSTORE PUSH1 0x20 ADD DUP3 DUP1 SLOAD PUSH2 0x9E6 SWAP1 PUSH2 0x28E5 JUMP JUMPDEST DUP1 ISZERO PUSH2 0xA33 JUMPI DUP1 PUSH1 0x1F LT PUSH2 0xA08 JUMPI PUSH2 0x100 DUP1 DUP4 SLOAD DIV MUL DUP4 MSTORE SWAP2 PUSH1 0x20 ADD SWAP2 PUSH2 0xA33 JUMP JUMPDEST DUP3 ADD SWAP2 SWAP1 PUSH1 0x0 MSTORE PUSH1 0x20 PUSH1 0x0 KECCAK256 SWAP1 JUMPDEST DUP2 SLOAD DUP2 MSTORE SWAP1 PUSH1 0x1 ADD SWAP1 PUSH1 0x20 ADD DUP1 DUP4 GT PUSH2 0xA16 JUMPI DUP3 SWAP1 SUB PUSH1 0x1F AND DUP3 ADD SWAP2 JUMPDEST POP POP POP POP POP SWAP1 DUP1 PUSH1 0x5 ADD SLOAD SWAP1 DUP1 PUSH1 0x6 ADD SLOAD SWAP1 POP DUP8 JUMP JUMPDEST PUSH1 0x60 PUSH1 0x0 PUSH1 0x1 DUP1 SLOAD SWAP1 POP SWAP1 POP PUSH1 0x0 DUP1 JUMPDEST DUP3 DUP2 LT ISZERO PUSH2 0xABF JUMPI PUSH1 0x1 PUSH1 0x0 DUP1 PUSH1 0x1 DUP5 DUP2 SLOAD DUP2 LT PUSH2 0xA7A JUMPI PUSH2 0xA79 PUSH2 0x2A59 JUMP JUMPDEST JUMPDEST SWAP1 PUSH1 0x0 MSTORE PUSH1 0x20 PUSH1 0x0 KECCAK256 ADD SLOAD DUP2 MSTORE PUSH1 0x20 ADD SWAP1 DUP2 MSTORE PUSH1 0x20 ADD PUSH1 0x0 KECCAK256 PUSH1 0x6 ADD SLOAD EQ ISZERO PUSH2 0xAAC JUMPI DUP2 DUP1 PUSH2 0xAA8 SWAP1 PUSH2 0x2948 JUMP JUMPDEST SWAP3 POP POP JUMPDEST DUP1 DUP1 PUSH2 0xAB7 SWAP1 PUSH2 0x2948 JUMP JUMPDEST SWAP2 POP POP PUSH2 0xA59 JUMP JUMPDEST POP PUSH1 0x0 DUP2 PUSH8 0xFFFFFFFFFFFFFFFF DUP2 GT ISZERO PUSH2 0xADC JUMPI PUSH2 0xADB PUSH2 0x2A88 JUMP JUMPDEST JUMPDEST PUSH1 0x40 MLOAD SWAP1 DUP1 DUP3 MSTORE DUP1 PUSH1 0x20 MUL PUSH1 0x20 ADD DUP3 ADD PUSH1 0x40 MSTORE DUP1 ISZERO PUSH2 0xB15 JUMPI DUP2 PUSH1 0x20 ADD JUMPDEST PUSH2 0xB02 PUSH2 0x1CA5 JUMP JUMPDEST DUP2 MSTORE PUSH1 0x20 ADD SWAP1 PUSH1 0x1 SWAP1 SUB SWAP1 DUP2 PUSH2 0xAFA JUMPI SWAP1 POP JUMPDEST POP SWAP1 POP PUSH1 0x0 DUP1 JUMPDEST DUP5 DUP2 LT ISZERO PUSH2 0xBC7 JUMPI PUSH1 0x1 PUSH1 0x0 DUP1 PUSH1 0x1 DUP5 DUP2 SLOAD DUP2 LT PUSH2 0xB3D JUMPI PUSH2 0xB3C PUSH2 0x2A59 JUMP JUMPDEST JUMPDEST SWAP1 PUSH1 0x0 MSTORE PUSH1 0x20 PUSH1 0x0 KECCAK256 ADD SLOAD DUP2 MSTORE PUSH1 0x20 ADD SWAP1 DUP2 MSTORE PUSH1 0x20 ADD PUSH1 0x0 KECCAK256 PUSH1 0x6 ADD SLOAD EQ ISZERO PUSH2 0xBB4 JUMPI PUSH2 0xB87 PUSH1 0x1 DUP3 DUP2 SLOAD DUP2 LT PUSH2 0xB77 JUMPI PUSH2 0xB76 PUSH2 0x2A59 JUMP JUMPDEST JUMPDEST SWAP1 PUSH1 0x0 MSTORE PUSH1 0x20 PUSH1 0x0 KECCAK256 ADD SLOAD PUSH2 0x77B JUMP JUMPDEST DUP4 DUP4 DUP2 MLOAD DUP2 LT PUSH2 0xB9A JUMPI PUSH2 0xB99 PUSH2 0x2A59 JUMP JUMPDEST JUMPDEST PUSH1 0x20 MUL PUSH1 0x20 ADD ADD DUP2 SWAP1 MSTORE POP DUP2 DUP1 PUSH2 0xBB0 SWAP1 PUSH2 0x2948 JUMP JUMPDEST SWAP3 POP POP JUMPDEST DUP1 DUP1 PUSH2 0xBBF SWAP1 PUSH2 0x2948 JUMP JUMPDEST SWAP2 POP POP PUSH2 0xB1C JUMP JUMPDEST POP DUP2 SWAP5 POP POP POP POP POP SWAP1 JUMP JUMPDEST PUSH1 0x0 PUSH1 0x2 PUSH1 0x0 DUP5 DUP2 MSTORE PUSH1 0x20 ADD SWAP1 DUP2 MSTORE PUSH1 0x20 ADD PUSH1 0x0 KECCAK256 PUSH1 0x40 MLOAD DUP1 PUSH1 0xE0 ADD PUSH1 0x40 MSTORE SWAP1 DUP2 PUSH1 0x0 DUP3 ADD SLOAD DUP2 MSTORE PUSH1 0x20 ADD PUSH1 0x1 DUP3 ADD SLOAD DUP2 MSTORE PUSH1 0x20 ADD PUSH1 0x2 DUP3 ADD SLOAD DUP2 MSTORE PUSH1 0x20 ADD PUSH1 0x3 DUP3 ADD DUP1 SLOAD PUSH2 0xC20 SWAP1 PUSH2 0x28E5 JUMP JUMPDEST DUP1 PUSH1 0x1F ADD PUSH1 0x20 DUP1 SWAP2 DIV MUL PUSH1 0x20 ADD PUSH1 0x40 MLOAD SWAP1 DUP2 ADD PUSH1 0x40 MSTORE DUP1 SWAP3 SWAP2 SWAP1 DUP2 DUP2 MSTORE PUSH1 0x20 ADD DUP3 DUP1 SLOAD PUSH2 0xC4C SWAP1 PUSH2 0x28E5 JUMP JUMPDEST DUP1 ISZERO PUSH2 0xC99 JUMPI DUP1 PUSH1 0x1F LT PUSH2 0xC6E JUMPI PUSH2 0x100 DUP1 DUP4 SLOAD DIV MUL DUP4 MSTORE SWAP2 PUSH1 0x20 ADD SWAP2 PUSH2 0xC99 JUMP JUMPDEST DUP3 ADD SWAP2 SWAP1 PUSH1 0x0 MSTORE PUSH1 0x20 PUSH1 0x0 KECCAK256 SWAP1 JUMPDEST DUP2 SLOAD DUP2 MSTORE SWAP1 PUSH1 0x1 ADD SWAP1 PUSH1 0x20 ADD DUP1 DUP4 GT PUSH2 0xC7C JUMPI DUP3 SWAP1 SUB PUSH1 0x1F AND DUP3 ADD SWAP2 JUMPDEST POP POP POP POP POP DUP2 MSTORE PUSH1 0x20 ADD PUSH1 0x4 DUP3 ADD SLOAD DUP2 MSTORE PUSH1 0x20 ADD PUSH1 0x5 DUP3 ADD SLOAD DUP2 MSTORE PUSH1 0x20 ADD PUSH1 0x6 DUP3 ADD SLOAD DUP2 MSTORE POP POP SWAP1 POP DUP2 DUP2 PUSH1 0x60 ADD DUP2 SWAP1 MSTORE POP TIMESTAMP DUP2 PUSH1 0x80 ADD DUP2 DUP2 MSTORE POP POP DUP1 PUSH1 0x2 PUSH1 0x0 DUP6 DUP2 MSTORE PUSH1 0x20 ADD SWAP1 DUP2 MSTORE PUSH1 0x20 ADD PUSH1 0x0 KECCAK256 PUSH1 0x0 DUP3 ADD MLOAD DUP2 PUSH1 0x0 ADD SSTORE PUSH1 0x20 DUP3 ADD MLOAD DUP2 PUSH1 0x1 ADD SSTORE PUSH1 0x40 DUP3 ADD MLOAD DUP2 PUSH1 0x2 ADD SSTORE PUSH1 0x60 DUP3 ADD MLOAD DUP2 PUSH1 0x3 ADD SWAP1 DUP1 MLOAD SWAP1 PUSH1 0x20 ADD SWAP1 PUSH2 0xD23 SWAP3 SWAP2 SWAP1 PUSH2 0x1BE2 JUMP JUMPDEST POP PUSH1 0x80 DUP3 ADD MLOAD DUP2 PUSH1 0x4 ADD SSTORE PUSH1 0xA0 DUP3 ADD MLOAD DUP2 PUSH1 0x5 ADD SSTORE PUSH1 0xC0 DUP3 ADD MLOAD DUP2 PUSH1 0x6 ADD SSTORE SWAP1 POP POP POP POP POP JUMP JUMPDEST PUSH1 0x0 PUSH1 0x2 PUSH1 0x0 DUP4 DUP2 MSTORE PUSH1 0x20 ADD SWAP1 DUP2 MSTORE PUSH1 0x20 ADD PUSH1 0x0 KECCAK256 PUSH1 0x40 MLOAD DUP1 PUSH1 0xE0 ADD PUSH1 0x40 MSTORE SWAP1 DUP2 PUSH1 0x0 DUP3 ADD SLOAD DUP2 MSTORE PUSH1 0x20 ADD PUSH1 0x1 DUP3 ADD SLOAD DUP2 MSTORE PUSH1 0x20 ADD PUSH1 0x2 DUP3 ADD SLOAD DUP2 MSTORE PUSH1 0x20 ADD PUSH1 0x3 DUP3 ADD DUP1 SLOAD PUSH2 0xD98 SWAP1 PUSH2 0x28E5 JUMP JUMPDEST DUP1 PUSH1 0x1F ADD PUSH1 0x20 DUP1 SWAP2 DIV MUL PUSH1 0x20 ADD PUSH1 0x40 MLOAD SWAP1 DUP2 ADD PUSH1 0x40 MSTORE DUP1 SWAP3 SWAP2 SWAP1 DUP2 DUP2 MSTORE PUSH1 0x20 ADD DUP3 DUP1 SLOAD PUSH2 0xDC4 SWAP1 PUSH2 0x28E5 JUMP JUMPDEST DUP1 ISZERO PUSH2 0xE11 JUMPI DUP1 PUSH1 0x1F LT PUSH2 0xDE6 JUMPI PUSH2 0x100 DUP1 DUP4 SLOAD DIV MUL DUP4 MSTORE SWAP2 PUSH1 0x20 ADD SWAP2 PUSH2 0xE11 JUMP JUMPDEST DUP3 ADD SWAP2 SWAP1 PUSH1 0x0 MSTORE PUSH1 0x20 PUSH1 0x0 KECCAK256 SWAP1 JUMPDEST DUP2 SLOAD DUP2 MSTORE SWAP1 PUSH1 0x1 ADD SWAP1 PUSH1 0x20 ADD DUP1 DUP4 GT PUSH2 0xDF4 JUMPI DUP3 SWAP1 SUB PUSH1 0x1F AND DUP3 ADD SWAP2 JUMPDEST POP POP POP POP POP DUP2 MSTORE PUSH1 0x20 ADD PUSH1 0x4 DUP3 ADD SLOAD DUP2 MSTORE PUSH1 0x20 ADD PUSH1 0x5 DUP3 ADD SLOAD DUP2 MSTORE PUSH1 0x20 ADD PUSH1 0x6 DUP3 ADD SLOAD DUP2 MSTORE POP POP SWAP1 POP PUSH1 0x0 DUP2 PUSH1 0xC0 ADD DUP2 DUP2 MSTORE POP POP DUP1 PUSH1 0x2 PUSH1 0x0 DUP5 DUP2 MSTORE PUSH1 0x20 ADD SWAP1 DUP2 MSTORE PUSH1 0x20 ADD PUSH1 0x0 KECCAK256 PUSH1 0x0 DUP3 ADD MLOAD DUP2 PUSH1 0x0 ADD SSTORE PUSH1 0x20 DUP3 ADD MLOAD DUP2 PUSH1 0x1 ADD SSTORE PUSH1 0x40 DUP3 ADD MLOAD DUP2 PUSH1 0x2 ADD SSTORE PUSH1 0x60 DUP3 ADD MLOAD DUP2 PUSH1 0x3 ADD SWAP1 DUP1 MLOAD SWAP1 PUSH1 0x20 ADD SWAP1 PUSH2 0xE93 SWAP3 SWAP2 SWAP1 PUSH2 0x1BE2 JUMP JUMPDEST POP PUSH1 0x80 DUP3 ADD MLOAD DUP2 PUSH1 0x4 ADD SSTORE PUSH1 0xA0 DUP3 ADD MLOAD DUP2 PUSH1 0x5 ADD SSTORE PUSH1 0xC0 DUP3 ADD MLOAD DUP2 PUSH1 0x6 ADD SSTORE SWAP1 POP POP POP POP JUMP JUMPDEST PUSH1 0x2 PUSH1 0x0 DUP3 DUP2 MSTORE PUSH1 0x20 ADD SWAP1 DUP2 MSTORE PUSH1 0x20 ADD PUSH1 0x0 KECCAK256 PUSH1 0x5 ADD PUSH1 0x0 DUP2 SLOAD DUP1 SWAP3 SWAP2 SWAP1 PUSH2 0xEE0 SWAP1 PUSH2 0x2948 JUMP JUMPDEST SWAP2 SWAP1 POP SSTORE POP PUSH32 0xB87910FC6CC852CDCD8B78A462CBE0B279427CC46DD248400A11BC14BDDE8C2 PUSH1 0x2 PUSH1 0x0 DUP4 DUP2 MSTORE PUSH1 0x20 ADD SWAP1 DUP2 MSTORE PUSH1 0x20 ADD PUSH1 0x0 KECCAK256 PUSH1 0x5 ADD SLOAD PUSH1 0x40 MLOAD PUSH2 0xF2A SWAP2 SWAP1 PUSH2 0x255A JUMP JUMPDEST PUSH1 0x40 MLOAD DUP1 SWAP2 SUB SWAP1 LOG1 POP JUMP JUMPDEST PUSH1 0x0 PUSH1 0x20 MSTORE DUP1 PUSH1 0x0 MSTORE PUSH1 0x40 PUSH1 0x0 KECCAK256 PUSH1 0x0 SWAP2 POP SWAP1 POP DUP1 PUSH1 0x0 ADD SLOAD SWAP1 DUP1 PUSH1 0x1 ADD SLOAD SWAP1 DUP1 PUSH1 0x2 ADD DUP1 SLOAD PUSH2 0xF64 SWAP1 PUSH2 0x28E5 JUMP JUMPDEST DUP1 PUSH1 0x1F ADD PUSH1 0x20 DUP1 SWAP2 DIV MUL PUSH1 0x20 ADD PUSH1 0x40 MLOAD SWAP1 DUP2 ADD PUSH1 0x40 MSTORE DUP1 SWAP3 SWAP2 SWAP1 DUP2 DUP2 MSTORE PUSH1 0x20 ADD DUP3 DUP1 SLOAD PUSH2 0xF90 SWAP1 PUSH2 0x28E5 JUMP JUMPDEST DUP1 ISZERO PUSH2 0xFDD JUMPI DUP1 PUSH1 0x1F LT PUSH2 0xFB2 JUMPI PUSH2 0x100 DUP1 DUP4 SLOAD DIV MUL DUP4 MSTORE SWAP2 PUSH1 0x20 ADD SWAP2 PUSH2 0xFDD JUMP JUMPDEST DUP3 ADD SWAP2 SWAP1 PUSH1 0x0 MSTORE PUSH1 0x20 PUSH1 0x0 KECCAK256 SWAP1 JUMPDEST DUP2 SLOAD DUP2 MSTORE SWAP1 PUSH1 0x1 ADD SWAP1 PUSH1 0x20 ADD DUP1 DUP4 GT PUSH2 0xFC0 JUMPI DUP3 SWAP1 SUB PUSH1 0x1F AND DUP3 ADD SWAP2 JUMPDEST POP POP POP POP POP SWAP1 DUP1 PUSH1 0x3 ADD DUP1 SLOAD PUSH2 0xFF2 SWAP1 PUSH2 0x28E5 JUMP JUMPDEST DUP1 PUSH1 0x1F ADD PUSH1 0x20 DUP1 SWAP2 DIV MUL PUSH1 0x20 ADD PUSH1 0x40 MLOAD SWAP1 DUP2 ADD PUSH1 0x40 MSTORE DUP1 SWAP3 SWAP2 SWAP1 DUP2 DUP2 MSTORE PUSH1 0x20 ADD DUP3 DUP1 SLOAD PUSH2 0x101E SWAP1 PUSH2 0x28E5 JUMP JUMPDEST DUP1 ISZERO PUSH2 0x106B JUMPI DUP1 PUSH1 0x1F LT PUSH2 0x1040 JUMPI PUSH2 0x100 DUP1 DUP4 SLOAD DIV MUL DUP4 MSTORE SWAP2 PUSH1 0x20 ADD SWAP2 PUSH2 0x106B JUMP JUMPDEST DUP3 ADD SWAP2 SWAP1 PUSH1 0x0 MSTORE PUSH1 0x20 PUSH1 0x0 KECCAK256 SWAP1 JUMPDEST DUP2 SLOAD DUP2 MSTORE SWAP1 PUSH1 0x1 ADD SWAP1 PUSH1 0x20 ADD DUP1 DUP4 GT PUSH2 0x104E JUMPI DUP3 SWAP1 SUB PUSH1 0x1F AND DUP3 ADD SWAP2 JUMPDEST POP POP POP POP POP SWAP1 DUP1 PUSH1 0x4 ADD SLOAD SWAP1 DUP1 PUSH1 0x5 ADD SLOAD SWAP1 DUP1 PUSH1 0x6 ADD SLOAD SWAP1 POP DUP8 JUMP JUMPDEST PUSH1 0x60 PUSH1 0x0 PUSH1 0x4 PUSH1 0x0 DUP5 DUP2 MSTORE PUSH1 0x20 ADD SWAP1 DUP2 MSTORE PUSH1 0x20 ADD PUSH1 0x0 KECCAK256 DUP1 SLOAD DUP1 PUSH1 0x20 MUL PUSH1 0x20 ADD PUSH1 0x40 MLOAD SWAP1 DUP2 ADD PUSH1 0x40 MSTORE DUP1 SWAP3 SWAP2 SWAP1 DUP2 DUP2 MSTORE PUSH1 0x20 ADD DUP3 DUP1 SLOAD DUP1 ISZERO PUSH2 0x10E8 JUMPI PUSH1 0x20 MUL DUP3 ADD SWAP2 SWAP1 PUSH1 0x0 MSTORE PUSH1 0x20 PUSH1 0x0 KECCAK256 SWAP1 JUMPDEST DUP2 SLOAD DUP2 MSTORE PUSH1 0x20 ADD SWAP1 PUSH1 0x1 ADD SWAP1 DUP1 DUP4 GT PUSH2 0x10D4 JUMPI JUMPDEST POP POP POP POP POP SWAP1 POP PUSH1 0x0 DUP2 MLOAD SWAP1 POP PUSH1 0x0 DUP1 JUMPDEST DUP3 DUP2 LT ISZERO PUSH2 0x115C JUMPI PUSH1 0x1 PUSH1 0x2 PUSH1 0x0 DUP7 DUP5 DUP2 MLOAD DUP2 LT PUSH2 0x111A JUMPI PUSH2 0x1119 PUSH2 0x2A59 JUMP JUMPDEST JUMPDEST PUSH1 0x20 MUL PUSH1 0x20 ADD ADD MLOAD DUP2 MSTORE PUSH1 0x20 ADD SWAP1 DUP2 MSTORE PUSH1 0x20 ADD PUSH1 0x0 KECCAK256 PUSH1 0x6 ADD SLOAD EQ ISZERO PUSH2 0x1149 JUMPI DUP2 DUP1 PUSH2 0x1145 SWAP1 PUSH2 0x2948 JUMP JUMPDEST SWAP3 POP POP JUMPDEST DUP1 DUP1 PUSH2 0x1154 SWAP1 PUSH2 0x2948 JUMP JUMPDEST SWAP2 POP POP PUSH2 0x10F9 JUMP JUMPDEST POP PUSH1 0x0 DUP2 PUSH8 0xFFFFFFFFFFFFFFFF DUP2 GT ISZERO PUSH2 0x1179 JUMPI PUSH2 0x1178 PUSH2 0x2A88 JUMP JUMPDEST JUMPDEST PUSH1 0x40 MLOAD SWAP1 DUP1 DUP3 MSTORE DUP1 PUSH1 0x20 MUL PUSH1 0x20 ADD DUP3 ADD PUSH1 0x40 MSTORE DUP1 ISZERO PUSH2 0x11B2 JUMPI DUP2 PUSH1 0x20 ADD JUMPDEST PUSH2 0x119F PUSH2 0x1C68 JUMP JUMPDEST DUP2 MSTORE PUSH1 0x20 ADD SWAP1 PUSH1 0x1 SWAP1 SUB SWAP1 DUP2 PUSH2 0x1197 JUMPI SWAP1 POP JUMPDEST POP SWAP1 POP PUSH1 0x0 DUP1 JUMPDEST DUP5 DUP2 LT ISZERO PUSH2 0x125D JUMPI PUSH1 0x1 PUSH1 0x2 PUSH1 0x0 DUP9 DUP5 DUP2 MLOAD DUP2 LT PUSH2 0x11DA JUMPI PUSH2 0x11D9 PUSH2 0x2A59 JUMP JUMPDEST JUMPDEST PUSH1 0x20 MUL PUSH1 0x20 ADD ADD MLOAD DUP2 MSTORE PUSH1 0x20 ADD SWAP1 DUP2 MSTORE PUSH1 0x20 ADD PUSH1 0x0 KECCAK256 PUSH1 0x6 ADD SLOAD EQ ISZERO PUSH2 0x124A JUMPI PUSH2 0x121D DUP7 DUP3 DUP2 MLOAD DUP2 LT PUSH2 0x1210 JUMPI PUSH2 0x120F PUSH2 0x2A59 JUMP JUMPDEST JUMPDEST PUSH1 0x20 MUL PUSH1 0x20 ADD ADD MLOAD PUSH2 0x5F6 JUMP JUMPDEST DUP4 DUP4 DUP2 MLOAD DUP2 LT PUSH2 0x1230 JUMPI PUSH2 0x122F PUSH2 0x2A59 JUMP JUMPDEST JUMPDEST PUSH1 0x20 MUL PUSH1 0x20 ADD ADD DUP2 SWAP1 MSTORE POP DUP2 DUP1 PUSH2 0x1246 SWAP1 PUSH2 0x2948 JUMP JUMPDEST SWAP3 POP POP JUMPDEST DUP1 DUP1 PUSH2 0x1255 SWAP1 PUSH2 0x2948 JUMP JUMPDEST SWAP2 POP POP PUSH2 0x11B9 JUMP JUMPDEST POP DUP2 SWAP6 POP POP POP POP POP POP SWAP2 SWAP1 POP JUMP JUMPDEST PUSH1 0x0 TIMESTAMP DUP5 DUP5 PUSH1 0x40 MLOAD PUSH1 0x20 ADD PUSH2 0x1282 SWAP4 SWAP3 SWAP2 SWAP1 PUSH2 0x2473 JUMP JUMPDEST PUSH1 0x40 MLOAD PUSH1 0x20 DUP2 DUP4 SUB SUB DUP2 MSTORE SWAP1 PUSH1 0x40 MSTORE DUP1 MLOAD SWAP1 PUSH1 0x20 ADD KECCAK256 PUSH1 0x0 SHR SWAP1 POP PUSH1 0x0 PUSH1 0x40 MLOAD DUP1 PUSH1 0xE0 ADD PUSH1 0x40 MSTORE DUP1 DUP7 DUP2 MSTORE PUSH1 0x20 ADD DUP6 DUP2 MSTORE PUSH1 0x20 ADD DUP4 DUP2 MSTORE PUSH1 0x20 ADD DUP5 DUP2 MSTORE PUSH1 0x20 ADD TIMESTAMP DUP2 MSTORE PUSH1 0x20 ADD PUSH1 0x0 DUP2 MSTORE PUSH1 0x20 ADD PUSH1 0x1 DUP2 MSTORE POP SWAP1 POP DUP1 PUSH1 0x2 PUSH1 0x0 DUP5 DUP2 MSTORE PUSH1 0x20 ADD SWAP1 DUP2 MSTORE PUSH1 0x20 ADD PUSH1 0x0 KECCAK256 PUSH1 0x0 DUP3 ADD MLOAD DUP2 PUSH1 0x0 ADD SSTORE PUSH1 0x20 DUP3 ADD MLOAD DUP2 PUSH1 0x1 ADD SSTORE PUSH1 0x40 DUP3 ADD MLOAD DUP2 PUSH1 0x2 ADD SSTORE PUSH1 0x60 DUP3 ADD MLOAD DUP2 PUSH1 0x3 ADD SWAP1 DUP1 MLOAD SWAP1 PUSH1 0x20 ADD SWAP1 PUSH2 0x1324 SWAP3 SWAP2 SWAP1 PUSH2 0x1BE2 JUMP JUMPDEST POP PUSH1 0x80 DUP3 ADD MLOAD DUP2 PUSH1 0x4 ADD SSTORE PUSH1 0xA0 DUP3 ADD MLOAD DUP2 PUSH1 0x5 ADD SSTORE PUSH1 0xC0 DUP3 ADD MLOAD DUP2 PUSH1 0x6 ADD SSTORE SWAP1 POP POP PUSH1 0x4 PUSH1 0x0 DUP7 DUP2 MSTORE PUSH1 0x20 ADD SWAP1 DUP2 MSTORE PUSH1 0x20 ADD PUSH1 0x0 KECCAK256 DUP3 SWAP1 DUP1 PUSH1 0x1 DUP2 SLOAD ADD DUP1 DUP3 SSTORE DUP1 SWAP2 POP POP PUSH1 0x1 SWAP1 SUB SWAP1 PUSH1 0x0 MSTORE PUSH1 0x20 PUSH1 0x0 KECCAK256 ADD PUSH1 0x0 SWAP1 SWAP2 SWAP1 SWAP2 SWAP1 SWAP2 POP SSTORE PUSH32 0x5A1A930FED43F34B3A07DB782EBCAC28A661C273E662BB98458CFBA5A8CCD220 DUP3 PUSH1 0x40 MLOAD PUSH2 0x13AF SWAP2 SWAP1 PUSH2 0x255A JUMP JUMPDEST PUSH1 0x40 MLOAD DUP1 SWAP2 SUB SWAP1 LOG1 POP POP POP POP POP JUMP JUMPDEST PUSH1 0x0 DUP1 PUSH1 0x0 DUP4 DUP2 MSTORE PUSH1 0x20 ADD SWAP1 DUP2 MSTORE PUSH1 0x20 ADD PUSH1 0x0 KECCAK256 PUSH1 0x40 MLOAD DUP1 PUSH1 0xE0 ADD PUSH1 0x40 MSTORE SWAP1 DUP2 PUSH1 0x0 DUP3 ADD SLOAD DUP2 MSTORE PUSH1 0x20 ADD PUSH1 0x1 DUP3 ADD SLOAD DUP2 MSTORE PUSH1 0x20 ADD PUSH1 0x2 DUP3 ADD DUP1 SLOAD PUSH2 0x1401 SWAP1 PUSH2 0x28E5 JUMP JUMPDEST DUP1 PUSH1 0x1F ADD PUSH1 0x20 DUP1 SWAP2 DIV MUL PUSH1 0x20 ADD PUSH1 0x40 MLOAD SWAP1 DUP2 ADD PUSH1 0x40 MSTORE DUP1 SWAP3 SWAP2 SWAP1 DUP2 DUP2 MSTORE PUSH1 0x20 ADD DUP3 DUP1 SLOAD PUSH2 0x142D SWAP1 PUSH2 0x28E5 JUMP JUMPDEST DUP1 ISZERO PUSH2 0x147A JUMPI DUP1 PUSH1 0x1F LT PUSH2 0x144F JUMPI PUSH2 0x100 DUP1 DUP4 SLOAD DIV MUL DUP4 MSTORE SWAP2 PUSH1 0x20 ADD SWAP2 PUSH2 0x147A JUMP JUMPDEST DUP3 ADD SWAP2 SWAP1 PUSH1 0x0 MSTORE PUSH1 0x20 PUSH1 0x0 KECCAK256 SWAP1 JUMPDEST DUP2 SLOAD DUP2 MSTORE SWAP1 PUSH1 0x1 ADD SWAP1 PUSH1 0x20 ADD DUP1 DUP4 GT PUSH2 0x145D JUMPI DUP3 SWAP1 SUB PUSH1 0x1F AND DUP3 ADD SWAP2 JUMPDEST POP POP POP POP POP DUP2 MSTORE PUSH1 0x20 ADD PUSH1 0x3 DUP3 ADD DUP1 SLOAD PUSH2 0x1493 SWAP1 PUSH2 0x28E5 JUMP JUMPDEST DUP1 PUSH1 0x1F ADD PUSH1 0x20 DUP1 SWAP2 DIV MUL PUSH1 0x20 ADD PUSH1 0x40 MLOAD SWAP1 DUP2 ADD PUSH1 0x40 MSTORE DUP1 SWAP3 SWAP2 SWAP1 DUP2 DUP2 MSTORE PUSH1 0x20 ADD DUP3 DUP1 SLOAD PUSH2 0x14BF SWAP1 PUSH2 0x28E5 JUMP JUMPDEST DUP1 ISZERO PUSH2 0x150C JUMPI DUP1 PUSH1 0x1F LT PUSH2 0x14E1 JUMPI PUSH2 0x100 DUP1 DUP4 SLOAD DIV MUL DUP4 MSTORE SWAP2 PUSH1 0x20 ADD SWAP2 PUSH2 0x150C JUMP JUMPDEST DUP3 ADD SWAP2 SWAP1 PUSH1 0x0 MSTORE PUSH1 0x20 PUSH1 0x0 KECCAK256 SWAP1 JUMPDEST DUP2 SLOAD DUP2 MSTORE SWAP1 PUSH1 0x1 ADD SWAP1 PUSH1 0x20 ADD DUP1 DUP4 GT PUSH2 0x14EF JUMPI DUP3 SWAP1 SUB PUSH1 0x1F AND DUP3 ADD SWAP2 JUMPDEST POP POP POP POP POP DUP2 MSTORE PUSH1 0x20 ADD PUSH1 0x4 DUP3 ADD SLOAD DUP2 MSTORE PUSH1 0x20 ADD PUSH1 0x5 DUP3 ADD SLOAD DUP2 MSTORE PUSH1 0x20 ADD PUSH1 0x6 DUP3 ADD SLOAD DUP2 MSTORE POP POP SWAP1 POP DUP1 PUSH1 0xA0 ADD DUP1 MLOAD DUP1 SWAP2 SWAP1 PUSH2 0x1547 SWAP1 PUSH2 0x2948 JUMP JUMPDEST DUP2 MSTORE POP POP DUP1 PUSH1 0x0 DUP1 DUP5 DUP2 MSTORE PUSH1 0x20 ADD SWAP1 DUP2 MSTORE PUSH1 0x20 ADD PUSH1 0x0 KECCAK256 PUSH1 0x0 DUP3 ADD MLOAD DUP2 PUSH1 0x0 ADD SSTORE PUSH1 0x20 DUP3 ADD MLOAD DUP2 PUSH1 0x1 ADD SSTORE PUSH1 0x40 DUP3 ADD MLOAD DUP2 PUSH1 0x2 ADD SWAP1 DUP1 MLOAD SWAP1 PUSH1 0x20 ADD SWAP1 PUSH2 0x158E SWAP3 SWAP2 SWAP1 PUSH2 0x1BE2 JUMP JUMPDEST POP PUSH1 0x60 DUP3 ADD MLOAD DUP2 PUSH1 0x3 ADD SWAP1 DUP1 MLOAD SWAP1 PUSH1 0x20 ADD SWAP1 PUSH2 0x15AB SWAP3 SWAP2 SWAP1 PUSH2 0x1BE2 JUMP JUMPDEST POP PUSH1 0x80 DUP3 ADD MLOAD DUP2 PUSH1 0x4 ADD SSTORE PUSH1 0xA0 DUP3 ADD MLOAD DUP2 PUSH1 0x5 ADD SSTORE PUSH1 0xC0 DUP3 ADD MLOAD DUP2 PUSH1 0x6 ADD SSTORE SWAP1 POP POP PUSH32 0x666BC1474759F572309589AAAB2099F4FA4AEC8EF9A66EBC487FEF9C7C8B8277 DUP2 PUSH1 0xA0 ADD MLOAD PUSH1 0x40 MLOAD PUSH2 0x1600 SWAP2 SWAP1 PUSH2 0x255A JUMP JUMPDEST PUSH1 0x40 MLOAD DUP1 SWAP2 SUB SWAP1 LOG1 POP POP JUMP JUMPDEST PUSH1 0x2 PUSH1 0x20 MSTORE DUP1 PUSH1 0x0 MSTORE PUSH1 0x40 PUSH1 0x0 KECCAK256 PUSH1 0x0 SWAP2 POP SWAP1 POP DUP1 PUSH1 0x0 ADD SLOAD SWAP1 DUP1 PUSH1 0x1 ADD SLOAD SWAP1 DUP1 PUSH1 0x2 ADD SLOAD SWAP1 DUP1 PUSH1 0x3 ADD DUP1 SLOAD PUSH2 0x1641 SWAP1 PUSH2 0x28E5 JUMP JUMPDEST DUP1 PUSH1 0x1F ADD PUSH1 0x20 DUP1 SWAP2 DIV MUL PUSH1 0x20 ADD PUSH1 0x40 MLOAD SWAP1 DUP2 ADD PUSH1 0x40 MSTORE DUP1 SWAP3 SWAP2 SWAP1 DUP2 DUP2 MSTORE PUSH1 0x20 ADD DUP3 DUP1 SLOAD PUSH2 0x166D SWAP1 PUSH2 0x28E5 JUMP JUMPDEST DUP1 ISZERO PUSH2 0x16BA JUMPI DUP1 PUSH1 0x1F LT PUSH2 0x168F JUMPI PUSH2 0x100 DUP1 DUP4 SLOAD DIV MUL DUP4 MSTORE SWAP2 PUSH1 0x20 ADD SWAP2 PUSH2 0x16BA JUMP JUMPDEST DUP3 ADD SWAP2 SWAP1 PUSH1 0x0 MSTORE PUSH1 0x20 PUSH1 0x0 KECCAK256 SWAP1 JUMPDEST DUP2 SLOAD DUP2 MSTORE SWAP1 PUSH1 0x1 ADD SWAP1 PUSH1 0x20 ADD DUP1 DUP4 GT PUSH2 0x169D JUMPI DUP3 SWAP1 SUB PUSH1 0x1F AND DUP3 ADD SWAP2 JUMPDEST POP POP POP POP POP SWAP1 DUP1 PUSH1 0x4 ADD SLOAD SWAP1 DUP1 PUSH1 0x5 ADD SLOAD SWAP1 DUP1 PUSH1 0x6 ADD SLOAD SWAP1 POP DUP8 JUMP JUMPDEST PUSH1 0x4 PUSH1 0x20 MSTORE DUP2 PUSH1 0x0 MSTORE PUSH1 0x40 PUSH1 0x0 KECCAK256 DUP2 DUP2 SLOAD DUP2 LT PUSH2 0x16F2 JUMPI PUSH1 0x0 DUP1 REVERT JUMPDEST SWAP1 PUSH1 0x0 MSTORE PUSH1 0x20 PUSH1 0x0 KECCAK256 ADD PUSH1 0x0 SWAP2 POP SWAP2 POP POP SLOAD DUP2 JUMP JUMPDEST PUSH1 0x0 TIMESTAMP DUP5 DUP5 PUSH1 0x40 MLOAD PUSH1 0x20 ADD PUSH2 0x171E SWAP4 SWAP3 SWAP2 SWAP1 PUSH2 0x243A JUMP JUMPDEST PUSH1 0x40 MLOAD PUSH1 0x20 DUP2 DUP4 SUB SUB DUP2 MSTORE SWAP1 PUSH1 0x40 MSTORE DUP1 MLOAD SWAP1 PUSH1 0x20 ADD KECCAK256 PUSH1 0x0 SHR SWAP1 POP PUSH1 0x40 MLOAD DUP1 PUSH1 0xE0 ADD PUSH1 0x40 MSTORE DUP1 DUP3 DUP2 MSTORE PUSH1 0x20 ADD DUP6 DUP2 MSTORE PUSH1 0x20 ADD DUP5 DUP2 MSTORE PUSH1 0x20 ADD DUP4 DUP2 MSTORE PUSH1 0x20 ADD TIMESTAMP DUP2 MSTORE PUSH1 0x20 ADD PUSH1 0x0 DUP2 MSTORE PUSH1 0x20 ADD PUSH1 0x1 DUP2 MSTORE POP PUSH1 0x0 DUP1 DUP4 DUP2 MSTORE PUSH1 0x20 ADD SWAP1 DUP2 MSTORE PUSH1 0x20 ADD PUSH1 0x0 KECCAK256 PUSH1 0x0 DUP3 ADD MLOAD DUP2 PUSH1 0x0 ADD SSTORE PUSH1 0x20 DUP3 ADD MLOAD DUP2 PUSH1 0x1 ADD SSTORE PUSH1 0x40 DUP3 ADD MLOAD DUP2 PUSH1 0x2 ADD SWAP1 DUP1 MLOAD SWAP1 PUSH1 0x20 ADD SWAP1 PUSH2 0x17B0 SWAP3 SWAP2 SWAP1 PUSH2 0x1BE2 JUMP JUMPDEST POP PUSH1 0x60 DUP3 ADD MLOAD DUP2 PUSH1 0x3 ADD SWAP1 DUP1 MLOAD SWAP1 PUSH1 0x20 ADD SWAP1 PUSH2 0x17CD SWAP3 SWAP2 SWAP1 PUSH2 0x1BE2 JUMP JUMPDEST POP PUSH1 0x80 DUP3 ADD MLOAD DUP2 PUSH1 0x4 ADD SSTORE PUSH1 0xA0 DUP3 ADD MLOAD DUP2 PUSH1 0x5 ADD SSTORE PUSH1 0xC0 DUP3 ADD MLOAD DUP2 PUSH1 0x6 ADD SSTORE SWAP1 POP POP PUSH1 0x1 DUP2 SWAP1 DUP1 PUSH1 0x1 DUP2 SLOAD ADD DUP1 DUP3 SSTORE DUP1 SWAP2 POP POP PUSH1 0x1 SWAP1 SUB SWAP1 PUSH1 0x0 MSTORE PUSH1 0x20 PUSH1 0x0 KECCAK256 ADD PUSH1 0x0 SWAP1 SWAP2 SWAP1 SWAP2 SWAP1 SWAP2 POP SSTORE PUSH32 0xD2F22DEA2DF70804F9E20FC76BFF2574C5CDE894D91655438C75B0532431E14F DUP2 PUSH1 0x40 MLOAD PUSH2 0x1847 SWAP2 SWAP1 PUSH2 0x255A JUMP JUMPDEST PUSH1 0x40 MLOAD DUP1 SWAP2 SUB SWAP1 LOG1 POP POP POP POP JUMP JUMPDEST PUSH1 0x1 DUP2 DUP2 SLOAD DUP2 LT PUSH2 0x1865 JUMPI PUSH1 0x0 DUP1 REVERT JUMPDEST SWAP1 PUSH1 0x0 MSTORE PUSH1 0x20 PUSH1 0x0 KECCAK256 ADD PUSH1 0x0 SWAP2 POP SWAP1 POP SLOAD DUP2 JUMP JUMPDEST PUSH1 0x60 PUSH1 0x0 DUP3 EQ ISZERO PUSH2 0x18C1 JUMPI PUSH1 0x40 MLOAD DUP1 PUSH1 0x40 ADD PUSH1 0x40 MSTORE DUP1 PUSH1 0x1 DUP2 MSTORE PUSH1 0x20 ADD PUSH32 0x3000000000000000000000000000000000000000000000000000000000000000 DUP2 MSTORE POP SWAP1 POP PUSH2 0x19D5 JUMP JUMPDEST PUSH1 0x0 DUP3 SWAP1 POP PUSH1 0x0 JUMPDEST PUSH1 0x0 DUP3 EQ PUSH2 0x18F3 JUMPI DUP1 DUP1 PUSH2 0x18DC SWAP1 PUSH2 0x2948 JUMP JUMPDEST SWAP2 POP POP PUSH1 0xA DUP3 PUSH2 0x18EC SWAP2 SWAP1 PUSH2 0x2834 JUMP JUMPDEST SWAP2 POP PUSH2 0x18C9 JUMP JUMPDEST PUSH1 0x0 DUP2 PUSH8 0xFFFFFFFFFFFFFFFF DUP2 GT ISZERO PUSH2 0x190F JUMPI PUSH2 0x190E PUSH2 0x2A88 JUMP JUMPDEST JUMPDEST PUSH1 0x40 MLOAD SWAP1 DUP1 DUP3 MSTORE DUP1 PUSH1 0x1F ADD PUSH1 0x1F NOT AND PUSH1 0x20 ADD DUP3 ADD PUSH1 0x40 MSTORE DUP1 ISZERO PUSH2 0x1941 JUMPI DUP2 PUSH1 0x20 ADD PUSH1 0x1 DUP3 MUL DUP1 CALLDATASIZE DUP4 CALLDATACOPY DUP1 DUP3 ADD SWAP2 POP POP SWAP1 POP JUMPDEST POP SWAP1 POP JUMPDEST PUSH1 0x0 DUP6 EQ PUSH2 0x19CE JUMPI PUSH1 0x1 DUP3 PUSH2 0x195A SWAP2 SWAP1 PUSH2 0x2865 JUMP JUMPDEST SWAP2 POP PUSH1 0xA DUP6 PUSH2 0x1969 SWAP2 SWAP1 PUSH2 0x299B JUMP JUMPDEST PUSH1 0x30 PUSH2 0x1975 SWAP2 SWAP1 PUSH2 0x27DE JUMP JUMPDEST PUSH1 0xF8 SHL DUP2 DUP4 DUP2 MLOAD DUP2 LT PUSH2 0x198B JUMPI PUSH2 0x198A PUSH2 0x2A59 JUMP JUMPDEST JUMPDEST PUSH1 0x20 ADD ADD SWAP1 PUSH31 0xFFFFFFFFFFFFFFFFFFFFFFFFFFFFFFFFFFFFFFFFFFFFFFFFFFFFFFFFFFFFFF NOT AND SWAP1 DUP2 PUSH1 0x0 BYTE SWAP1 MSTORE8 POP PUSH1 0xA DUP6 PUSH2 0x19C7 SWAP2 SWAP1 PUSH2 0x2834 JUMP JUMPDEST SWAP5 POP PUSH2 0x1945 JUMP JUMPDEST DUP1 SWAP4 POP POP POP POP JUMPDEST SWAP2 SWAP1 POP JUMP JUMPDEST PUSH1 0x0 DUP1 PUSH1 0x0 DUP4 DUP2 MSTORE PUSH1 0x20 ADD SWAP1 DUP2 MSTORE PUSH1 0x20 ADD PUSH1 0x0 KECCAK256 PUSH1 0x40 MLOAD DUP1 PUSH1 0xE0 ADD PUSH1 0x40 MSTORE SWAP1 DUP2 PUSH1 0x0 DUP3 ADD SLOAD DUP2 MSTORE PUSH1 0x20 ADD PUSH1 0x1 DUP3 ADD SLOAD DUP2 MSTORE PUSH1 0x20 ADD PUSH1 0x2 DUP3 ADD DUP1 SLOAD PUSH2 0x1A1D SWAP1 PUSH2 0x28E5 JUMP JUMPDEST DUP1 PUSH1 0x1F ADD PUSH1 0x20 DUP1 SWAP2 DIV MUL PUSH1 0x20 ADD PUSH1 0x40 MLOAD SWAP1 DUP2 ADD PUSH1 0x40 MSTORE DUP1 SWAP3 SWAP2 SWAP1 DUP2 DUP2 MSTORE PUSH1 0x20 ADD DUP3 DUP1 SLOAD PUSH2 0x1A49 SWAP1 PUSH2 0x28E5 JUMP JUMPDEST DUP1 ISZERO PUSH2 0x1A96 JUMPI DUP1 PUSH1 0x1F LT PUSH2 0x1A6B JUMPI PUSH2 0x100 DUP1 DUP4 SLOAD DIV MUL DUP4 MSTORE SWAP2 PUSH1 0x20 ADD SWAP2 PUSH2 0x1A96 JUMP JUMPDEST DUP3 ADD SWAP2 SWAP1 PUSH1 0x0 MSTORE PUSH1 0x20 PUSH1 0x0 KECCAK256 SWAP1 JUMPDEST DUP2 SLOAD DUP2 MSTORE SWAP1 PUSH1 0x1 ADD SWAP1 PUSH1 0x20 ADD DUP1 DUP4 GT PUSH2 0x1A79 JUMPI DUP3 SWAP1 SUB PUSH1 0x1F AND DUP3 ADD SWAP2 JUMPDEST POP POP POP POP POP DUP2 MSTORE PUSH1 0x20 ADD PUSH1 0x3 DUP3 ADD DUP1 SLOAD PUSH2 0x1AAF SWAP1 PUSH2 0x28E5 JUMP JUMPDEST DUP1 PUSH1 0x1F ADD PUSH1 0x20 DUP1 SWAP2 DIV MUL PUSH1 0x20 ADD PUSH1 0x40 MLOAD SWAP1 DUP2 ADD PUSH1 0x40 MSTORE DUP1 SWAP3 SWAP2 SWAP1 DUP2 DUP2 MSTORE PUSH1 0x20 ADD DUP3 DUP1 SLOAD PUSH2 0x1ADB SWAP1 PUSH2 0x28E5 JUMP JUMPDEST DUP1 ISZERO PUSH2 0x1B28 JUMPI DUP1 PUSH1 0x1F LT PUSH2 0x1AFD JUMPI PUSH2 0x100 DUP1 DUP4 SLOAD DIV MUL DUP4 MSTORE SWAP2 PUSH1 0x20 ADD SWAP2 PUSH2 0x1B28 JUMP JUMPDEST DUP3 ADD SWAP2 SWAP1 PUSH1 0x0 MSTORE PUSH1 0x20 PUSH1 0x0 KECCAK256 SWAP1 JUMPDEST DUP2 SLOAD DUP2 MSTORE SWAP1 PUSH1 0x1 ADD SWAP1 PUSH1 0x20 ADD DUP1 DUP4 GT PUSH2 0x1B0B JUMPI DUP3 SWAP1 SUB PUSH1 0x1F AND DUP3 ADD SWAP2 JUMPDEST POP POP POP POP POP DUP2 MSTORE PUSH1 0x20 ADD PUSH1 0x4 DUP3 ADD SLOAD DUP2 MSTORE PUSH1 0x20 ADD PUSH1 0x5 DUP3 ADD SLOAD DUP2 MSTORE PUSH1 0x20 ADD PUSH1 0x6 DUP3 ADD SLOAD DUP2 MSTORE POP POP SWAP1 POP PUSH1 0x0 DUP2 PUSH1 0xC0 ADD DUP2 DUP2 MSTORE POP POP DUP1 PUSH1 0x0 DUP1 DUP5 DUP2 MSTORE PUSH1 0x20 ADD SWAP1 DUP2 MSTORE PUSH1 0x20 ADD PUSH1 0x0 KECCAK256 PUSH1 0x0 DUP3 ADD MLOAD DUP2 PUSH1 0x0 ADD SSTORE PUSH1 0x20 DUP3 ADD MLOAD DUP2 PUSH1 0x1 ADD SSTORE PUSH1 0x40 DUP3 ADD MLOAD DUP2 PUSH1 0x2 ADD SWAP1 DUP1 MLOAD SWAP1 PUSH1 0x20 ADD SWAP1 PUSH2 0x1B9F SWAP3 SWAP2 SWAP1 PUSH2 0x1BE2 JUMP JUMPDEST POP PUSH1 0x60 DUP3 ADD MLOAD DUP2 PUSH1 0x3 ADD SWAP1 DUP1 MLOAD SWAP1 PUSH1 0x20 ADD SWAP1 PUSH2 0x1BBC SWAP3 SWAP2 SWAP1 PUSH2 0x1BE2 JUMP JUMPDEST POP PUSH1 0x80 DUP3 ADD MLOAD DUP2 PUSH1 0x4 ADD SSTORE PUSH1 0xA0 DUP3 ADD MLOAD DUP2 PUSH1 0x5 ADD SSTORE PUSH1 0xC0 DUP3 ADD MLOAD DUP2 PUSH1 0x6 ADD SSTORE SWAP1 POP POP POP POP JUMP JUMPDEST DUP3 DUP1 SLOAD PUSH2 0x1BEE SWAP1 PUSH2 0x28E5 JUMP JUMPDEST SWAP1 PUSH1 0x0 MSTORE PUSH1 0x20 PUSH1 0x0 KECCAK256 SWAP1 PUSH1 0x1F ADD PUSH1 0x20 SWAP1 DIV DUP2 ADD SWAP3 DUP3 PUSH2 0x1C10 JUMPI PUSH1 0x0 DUP6 SSTORE PUSH2 0x1C57 JUMP JUMPDEST DUP3 PUSH1 0x1F LT PUSH2 0x1C29 JUMPI DUP1 MLOAD PUSH1 0xFF NOT AND DUP4 DUP1 ADD OR DUP6 SSTORE PUSH2 0x1C57 JUMP JUMPDEST DUP3 DUP1 ADD PUSH1 0x1 ADD DUP6 SSTORE DUP3 ISZERO PUSH2 0x1C57 JUMPI SWAP2 DUP3 ADD JUMPDEST DUP3 DUP2 GT ISZERO PUSH2 0x1C56 JUMPI DUP3 MLOAD DUP3 SSTORE SWAP2 PUSH1 0x20 ADD SWAP2 SWAP1 PUSH1 0x1 ADD SWAP1 PUSH2 0x1C3B JUMP JUMPDEST JUMPDEST POP SWAP1 POP PUSH2 0x1C64 SWAP2 SWAP1 PUSH2 0x1CE2 JUMP JUMPDEST POP SWAP1 JUMP JUMPDEST PUSH1 0x40 MLOAD DUP1 PUSH1 0xE0 ADD PUSH1 0x40 MSTORE DUP1 PUSH1 0x60 DUP2 MSTORE PUSH1 0x20 ADD PUSH1 0x60 DUP2 MSTORE PUSH1 0x20 ADD PUSH1 0x60 DUP2 MSTORE PUSH1 0x20 ADD PUSH1 0x60 DUP2 MSTORE PUSH1 0x20 ADD PUSH1 0x60 DUP2 MSTORE PUSH1 0x20 ADD PUSH1 0x60 DUP2 MSTORE PUSH1 0x20 ADD PUSH1 0x60 DUP2 MSTORE POP SWAP1 JUMP JUMPDEST PUSH1 0x40 MLOAD DUP1 PUSH1 0xE0 ADD PUSH1 0x40 MSTORE DUP1 PUSH1 0x60 DUP2 MSTORE PUSH1 0x20 ADD PUSH1 0x60 DUP2 MSTORE PUSH1 0x20 ADD PUSH1 0x60 DUP2 MSTORE PUSH1 0x20 ADD PUSH1 0x60 DUP2 MSTORE PUSH1 0x20 ADD PUSH1 0x60 DUP2 MSTORE PUSH1 0x20 ADD PUSH1 0x60 DUP2 MSTORE PUSH1 0x20 ADD PUSH1 0x60 DUP2 MSTORE POP SWAP1 JUMP JUMPDEST JUMPDEST DUP1 DUP3 GT ISZERO PUSH2 0x1CFB JUMPI PUSH1 0x0 DUP2 PUSH1 0x0 SWAP1 SSTORE POP PUSH1 0x1 ADD PUSH2 0x1CE3 JUMP JUMPDEST POP SWAP1 JUMP JUMPDEST PUSH1 0x0 PUSH2 0x1D12 PUSH2 0x1D0D DUP5 PUSH2 0x2703 JUMP JUMPDEST PUSH2 0x26DE JUMP JUMPDEST SWAP1 POP DUP3 DUP2 MSTORE PUSH1 0x20 DUP2 ADD DUP5 DUP5 DUP5 ADD GT ISZERO PUSH2 0x1D2E JUMPI PUSH2 0x1D2D PUSH2 0x2ABC JUMP JUMPDEST JUMPDEST PUSH2 0x1D39 DUP5 DUP3 DUP6 PUSH2 0x28A3 JUMP JUMPDEST POP SWAP4 SWAP3 POP POP POP JUMP JUMPDEST PUSH1 0x0 DUP3 PUSH1 0x1F DUP4 ADD SLT PUSH2 0x1D56 JUMPI PUSH2 0x1D55 PUSH2 0x2AB7 JUMP JUMPDEST JUMPDEST DUP2 CALLDATALOAD PUSH2 0x1D66 DUP5 DUP3 PUSH1 0x20 DUP7 ADD PUSH2 0x1CFF JUMP JUMPDEST SWAP2 POP POP SWAP3 SWAP2 POP POP JUMP JUMPDEST PUSH1 0x0 DUP2 CALLDATALOAD SWAP1 POP PUSH2 0x1D7E DUP2 PUSH2 0x2ADC JUMP JUMPDEST SWAP3 SWAP2 POP POP JUMP JUMPDEST PUSH1 0x0 PUSH1 0x20 DUP3 DUP5 SUB SLT ISZERO PUSH2 0x1D9A JUMPI PUSH2 0x1D99 PUSH2 0x2AC6 JUMP JUMPDEST JUMPDEST PUSH1 0x0 PUSH2 0x1DA8 DUP5 DUP3 DUP6 ADD PUSH2 0x1D6F JUMP JUMPDEST SWAP2 POP POP SWAP3 SWAP2 POP POP JUMP JUMPDEST PUSH1 0x0 DUP1 PUSH1 0x40 DUP4 DUP6 SUB SLT ISZERO PUSH2 0x1DC8 JUMPI PUSH2 0x1DC7 PUSH2 0x2AC6 JUMP JUMPDEST JUMPDEST PUSH1 0x0 PUSH2 0x1DD6 DUP6 DUP3 DUP7 ADD PUSH2 0x1D6F JUMP JUMPDEST SWAP3 POP POP PUSH1 0x20 DUP4 ADD CALLDATALOAD PUSH8 0xFFFFFFFFFFFFFFFF DUP2 GT ISZERO PUSH2 0x1DF7 JUMPI PUSH2 0x1DF6 PUSH2 0x2AC1 JUMP JUMPDEST JUMPDEST PUSH2 0x1E03 DUP6 DUP3 DUP7 ADD PUSH2 0x1D41 JUMP JUMPDEST SWAP2 POP POP SWAP3 POP SWAP3 SWAP1 POP JUMP JUMPDEST PUSH1 0x0 DUP1 PUSH1 0x0 PUSH1 0x60 DUP5 DUP7 SUB SLT ISZERO PUSH2 0x1E26 JUMPI PUSH2 0x1E25 PUSH2 0x2AC6 JUMP JUMPDEST JUMPDEST PUSH1 0x0 PUSH2 0x1E34 DUP7 DUP3 DUP8 ADD PUSH2 0x1D6F JUMP JUMPDEST SWAP4 POP POP PUSH1 0x20 DUP5 ADD CALLDATALOAD PUSH8 0xFFFFFFFFFFFFFFFF DUP2 GT ISZERO PUSH2 0x1E55 JUMPI PUSH2 0x1E54 PUSH2 0x2AC1 JUMP JUMPDEST JUMPDEST PUSH2 0x1E61 DUP7 DUP3 DUP8 ADD PUSH2 0x1D41 JUMP JUMPDEST SWAP3 POP POP PUSH1 0x40 DUP5 ADD CALLDATALOAD PUSH8 0xFFFFFFFFFFFFFFFF DUP2 GT ISZERO PUSH2 0x1E82 JUMPI PUSH2 0x1E81 PUSH2 0x2AC1 JUMP JUMPDEST JUMPDEST PUSH2 0x1E8E DUP7 DUP3 DUP8 ADD PUSH2 0x1D41 JUMP JUMPDEST SWAP2 POP POP SWAP3 POP SWAP3 POP SWAP3 JUMP JUMPDEST PUSH1 0x0 DUP1 PUSH1 0x40 DUP4 DUP6 SUB SLT ISZERO PUSH2 0x1EAF JUMPI PUSH2 0x1EAE PUSH2 0x2AC6 JUMP JUMPDEST JUMPDEST PUSH1 0x0 PUSH2 0x1EBD DUP6 DUP3 DUP7 ADD PUSH2 0x1D6F JUMP JUMPDEST SWAP3 POP POP PUSH1 0x20 PUSH2 0x1ECE DUP6 DUP3 DUP7 ADD PUSH2 0x1D6F JUMP JUMPDEST SWAP2 POP POP SWAP3 POP SWAP3 SWAP1 POP JUMP JUMPDEST PUSH1 0x0 DUP1 PUSH1 0x0 PUSH1 0x60 DUP5 DUP7 SUB SLT ISZERO PUSH2 0x1EF1 JUMPI PUSH2 0x1EF0 PUSH2 0x2AC6 JUMP JUMPDEST JUMPDEST PUSH1 0x0 PUSH2 0x1EFF DUP7 DUP3 DUP8 ADD PUSH2 0x1D6F JUMP JUMPDEST SWAP4 POP POP PUSH1 0x20 PUSH2 0x1F10 DUP7 DUP3 DUP8 ADD PUSH2 0x1D6F JUMP JUMPDEST SWAP3 POP POP PUSH1 0x40 DUP5 ADD CALLDATALOAD PUSH8 0xFFFFFFFFFFFFFFFF DUP2 GT ISZERO PUSH2 0x1F31 JUMPI PUSH2 0x1F30 PUSH2 0x2AC1 JUMP JUMPDEST JUMPDEST PUSH2 0x1F3D DUP7 DUP3 DUP8 ADD PUSH2 0x1D41 JUMP JUMPDEST SWAP2 POP POP SWAP3 POP SWAP3 POP SWAP3 JUMP JUMPDEST PUSH1 0x0 PUSH2 0x1F53 DUP4 DUP4 PUSH2 0x20FC JUMP JUMPDEST SWAP1 POP SWAP3 SWAP2 POP POP JUMP JUMPDEST PUSH1 0x0 PUSH2 0x1F67 DUP4 DUP4 PUSH2 0x2288 JUMP JUMPDEST SWAP1 POP SWAP3 SWAP2 POP POP JUMP JUMPDEST PUSH1 0x0 PUSH2 0x1F7A DUP3 PUSH2 0x2754 JUMP JUMPDEST PUSH2 0x1F84 DUP2 DUP6 PUSH2 0x278F JUMP JUMPDEST SWAP4 POP DUP4 PUSH1 0x20 DUP3 MUL DUP6 ADD PUSH2 0x1F96 DUP6 PUSH2 0x2734 JUMP JUMPDEST DUP1 PUSH1 0x0 JUMPDEST DUP6 DUP2 LT ISZERO PUSH2 0x1FD2 JUMPI DUP5 DUP5 SUB DUP10 MSTORE DUP2 MLOAD PUSH2 0x1FB3 DUP6 DUP3 PUSH2 0x1F47 JUMP JUMPDEST SWAP5 POP PUSH2 0x1FBE DUP4 PUSH2 0x2775 JUMP JUMPDEST SWAP3 POP PUSH1 0x20 DUP11 ADD SWAP10 POP POP PUSH1 0x1 DUP2 ADD SWAP1 POP PUSH2 0x1F9A JUMP JUMPDEST POP DUP3 SWAP8 POP DUP8 SWAP6 POP POP POP POP POP POP SWAP3 SWAP2 POP POP JUMP JUMPDEST PUSH1 0x0 PUSH2 0x1FEF DUP3 PUSH2 0x275F JUMP JUMPDEST PUSH2 0x1FF9 DUP2 DUP6 PUSH2 0x27A0 JUMP JUMPDEST SWAP4 POP DUP4 PUSH1 0x20 DUP3 MUL DUP6 ADD PUSH2 0x200B DUP6 PUSH2 0x2744 JUMP JUMPDEST DUP1 PUSH1 0x0 JUMPDEST DUP6 DUP2 LT ISZERO PUSH2 0x2047 JUMPI DUP5 DUP5 SUB DUP10 MSTORE DUP2 MLOAD PUSH2 0x2028 DUP6 DUP3 PUSH2 0x1F5B JUMP JUMPDEST SWAP5 POP PUSH2 0x2033 DUP4 PUSH2 0x2782 JUMP JUMPDEST SWAP3 POP PUSH1 0x20 DUP11 ADD SWAP10 POP POP PUSH1 0x1 DUP2 ADD SWAP1 POP PUSH2 0x200F JUMP JUMPDEST POP DUP3 SWAP8 POP DUP8 SWAP6 POP POP POP POP POP POP SWAP3 SWAP2 POP POP JUMP JUMPDEST PUSH1 0x0 PUSH2 0x2064 DUP3 PUSH2 0x276A JUMP JUMPDEST PUSH2 0x206E DUP2 DUP6 PUSH2 0x27B1 JUMP JUMPDEST SWAP4 POP PUSH2 0x207E DUP2 DUP6 PUSH1 0x20 DUP7 ADD PUSH2 0x28B2 JUMP JUMPDEST PUSH2 0x2087 DUP2 PUSH2 0x2ACB JUMP JUMPDEST DUP5 ADD SWAP2 POP POP SWAP3 SWAP2 POP POP JUMP JUMPDEST PUSH1 0x0 PUSH2 0x209D DUP3 PUSH2 0x276A JUMP JUMPDEST PUSH2 0x20A7 DUP2 DUP6 PUSH2 0x27C2 JUMP JUMPDEST SWAP4 POP PUSH2 0x20B7 DUP2 DUP6 PUSH1 0x20 DUP7 ADD PUSH2 0x28B2 JUMP JUMPDEST PUSH2 0x20C0 DUP2 PUSH2 0x2ACB JUMP JUMPDEST DUP5 ADD SWAP2 POP POP SWAP3 SWAP2 POP POP JUMP JUMPDEST PUSH1 0x0 PUSH2 0x20D6 DUP3 PUSH2 0x276A JUMP JUMPDEST PUSH2 0x20E0 DUP2 DUP6 PUSH2 0x27D3 JUMP JUMPDEST SWAP4 POP PUSH2 0x20F0 DUP2 DUP6 PUSH1 0x20 DUP7 ADD PUSH2 0x28B2 JUMP JUMPDEST DUP1 DUP5 ADD SWAP2 POP POP SWAP3 SWAP2 POP POP JUMP JUMPDEST PUSH1 0x0 PUSH1 0xE0 DUP4 ADD PUSH1 0x0 DUP4 ADD MLOAD DUP5 DUP3 SUB PUSH1 0x0 DUP7 ADD MSTORE PUSH2 0x2119 DUP3 DUP3 PUSH2 0x2059 JUMP JUMPDEST SWAP2 POP POP PUSH1 0x20 DUP4 ADD MLOAD DUP5 DUP3 SUB PUSH1 0x20 DUP7 ADD MSTORE PUSH2 0x2133 DUP3 DUP3 PUSH2 0x2059 JUMP JUMPDEST SWAP2 POP POP PUSH1 0x40 DUP4 ADD MLOAD DUP5 DUP3 SUB PUSH1 0x40 DUP7 ADD MSTORE PUSH2 0x214D DUP3 DUP3 PUSH2 0x2059 JUMP JUMPDEST SWAP2 POP POP PUSH1 0x60 DUP4 ADD MLOAD DUP5 DUP3 SUB PUSH1 0x60 DUP7 ADD MSTORE PUSH2 0x2167 DUP3 DUP3 PUSH2 0x2059 JUMP JUMPDEST SWAP2 POP POP PUSH1 0x80 DUP4 ADD MLOAD DUP5 DUP3 SUB PUSH1 0x80 DUP7 ADD MSTORE PUSH2 0x2181 DUP3 DUP3 PUSH2 0x2059 JUMP JUMPDEST SWAP2 POP POP PUSH1 0xA0 DUP4 ADD MLOAD DUP5 DUP3 SUB PUSH1 0xA0 DUP7 ADD MSTORE PUSH2 0x219B DUP3 DUP3 PUSH2 0x2059 JUMP JUMPDEST SWAP2 POP POP PUSH1 0xC0 DUP4 ADD MLOAD DUP5 DUP3 SUB PUSH1 0xC0 DUP7 ADD MSTORE PUSH2 0x21B5 DUP3 DUP3 PUSH2 0x2059 JUMP JUMPDEST SWAP2 POP POP DUP1 SWAP2 POP POP SWAP3 SWAP2 POP POP JUMP JUMPDEST PUSH1 0x0 PUSH1 0xE0 DUP4 ADD PUSH1 0x0 DUP4 ADD MLOAD DUP5 DUP3 SUB PUSH1 0x0 DUP7 ADD MSTORE PUSH2 0x21DF DUP3 DUP3 PUSH2 0x2059 JUMP JUMPDEST SWAP2 POP POP PUSH1 0x20 DUP4 ADD MLOAD DUP5 DUP3 SUB PUSH1 0x20 DUP7 ADD MSTORE PUSH2 0x21F9 DUP3 DUP3 PUSH2 0x2059 JUMP JUMPDEST SWAP2 POP POP PUSH1 0x40 DUP4 ADD MLOAD DUP5 DUP3 SUB PUSH1 0x40 DUP7 ADD MSTORE PUSH2 0x2213 DUP3 DUP3 PUSH2 0x2059 JUMP JUMPDEST SWAP2 POP POP PUSH1 0x60 DUP4 ADD MLOAD DUP5 DUP3 SUB PUSH1 0x60 DUP7 ADD MSTORE PUSH2 0x222D DUP3 DUP3 PUSH2 0x2059 JUMP JUMPDEST SWAP2 POP POP PUSH1 0x80 DUP4 ADD MLOAD DUP5 DUP3 SUB PUSH1 0x80 DUP7 ADD MSTORE PUSH2 0x2247 DUP3 DUP3 PUSH2 0x2059 JUMP JUMPDEST SWAP2 POP POP PUSH1 0xA0 DUP4 ADD MLOAD DUP5 DUP3 SUB PUSH1 0xA0 DUP7 ADD MSTORE PUSH2 0x2261 DUP3 DUP3 PUSH2 0x2059 JUMP JUMPDEST SWAP2 POP POP PUSH1 0xC0 DUP4 ADD MLOAD DUP5 DUP3 SUB PUSH1 0xC0 DUP7 ADD MSTORE PUSH2 0x227B DUP3 DUP3 PUSH2 0x2059 JUMP JUMPDEST SWAP2 POP POP DUP1 SWAP2 POP POP SWAP3 SWAP2 POP POP JUMP JUMPDEST PUSH1 0x0 PUSH1 0xE0 DUP4 ADD PUSH1 0x0 DUP4 ADD MLOAD DUP5 DUP3 SUB PUSH1 0x0 DUP7 ADD MSTORE PUSH2 0x22A5 DUP3 DUP3 PUSH2 0x2059 JUMP JUMPDEST SWAP2 POP POP PUSH1 0x20 DUP4 ADD MLOAD DUP5 DUP3 SUB PUSH1 0x20 DUP7 ADD MSTORE PUSH2 0x22BF DUP3 DUP3 PUSH2 0x2059 JUMP JUMPDEST SWAP2 POP POP PUSH1 0x40 DUP4 ADD MLOAD DUP5 DUP3 SUB PUSH1 0x40 DUP7 ADD MSTORE PUSH2 0x22D9 DUP3 DUP3 PUSH2 0x2059 JUMP JUMPDEST SWAP2 POP POP PUSH1 0x60 DUP4 ADD MLOAD DUP5 DUP3 SUB PUSH1 0x60 DUP7 ADD MSTORE PUSH2 0x22F3 DUP3 DUP3 PUSH2 0x2059 JUMP JUMPDEST SWAP2 POP POP PUSH1 0x80 DUP4 ADD MLOAD DUP5 DUP3 SUB PUSH1 0x80 DUP7 ADD MSTORE PUSH2 0x230D DUP3 DUP3 PUSH2 0x2059 JUMP JUMPDEST SWAP2 POP POP PUSH1 0xA0 DUP4 ADD MLOAD DUP5 DUP3 SUB PUSH1 0xA0 DUP7 ADD MSTORE PUSH2 0x2327 DUP3 DUP3 PUSH2 0x2059 JUMP JUMPDEST SWAP2 POP POP PUSH1 0xC0 DUP4 ADD MLOAD DUP5 DUP3 SUB PUSH1 0xC0 DUP7 ADD MSTORE PUSH2 0x2341 DUP3 DUP3 PUSH2 0x2059 JUMP JUMPDEST SWAP2 POP POP DUP1 SWAP2 POP POP SWAP3 SWAP2 POP POP JUMP JUMPDEST PUSH1 0x0 PUSH1 0xE0 DUP4 ADD PUSH1 0x0 DUP4 ADD MLOAD DUP5 DUP3 SUB PUSH1 0x0 DUP7 ADD MSTORE PUSH2 0x236B DUP3 DUP3 PUSH2 0x2059 JUMP JUMPDEST SWAP2 POP POP PUSH1 0x20 DUP4 ADD MLOAD DUP5 DUP3 SUB PUSH1 0x20 DUP7 ADD MSTORE PUSH2 0x2385 DUP3 DUP3 PUSH2 0x2059 JUMP JUMPDEST SWAP2 POP POP PUSH1 0x40 DUP4 ADD MLOAD DUP5 DUP3 SUB PUSH1 0x40 DUP7 ADD MSTORE PUSH2 0x239F DUP3 DUP3 PUSH2 0x2059 JUMP JUMPDEST SWAP2 POP POP PUSH1 0x60 DUP4 ADD MLOAD DUP5 DUP3 SUB PUSH1 0x60 DUP7 ADD MSTORE PUSH2 0x23B9 DUP3 DUP3 PUSH2 0x2059 JUMP JUMPDEST SWAP2 POP POP PUSH1 0x80 DUP4 ADD MLOAD DUP5 DUP3 SUB PUSH1 0x80 DUP7 ADD MSTORE PUSH2 0x23D3 DUP3 DUP3 PUSH2 0x2059 JUMP JUMPDEST SWAP2 POP POP PUSH1 0xA0 DUP4 ADD MLOAD DUP5 DUP3 SUB PUSH1 0xA0 DUP7 ADD MSTORE PUSH2 0x23ED DUP3 DUP3 PUSH2 0x2059 JUMP JUMPDEST SWAP2 POP POP PUSH1 0xC0 DUP4 ADD MLOAD DUP5 DUP3 SUB PUSH1 0xC0 DUP7 ADD MSTORE PUSH2 0x2407 DUP3 DUP3 PUSH2 0x2059 JUMP JUMPDEST SWAP2 POP POP DUP1 SWAP2 POP POP SWAP3 SWAP2 POP POP JUMP JUMPDEST PUSH2 0x241D DUP2 PUSH2 0x2899 JUMP JUMPDEST DUP3 MSTORE POP POP JUMP JUMPDEST PUSH2 0x2434 PUSH2 0x242F DUP3 PUSH2 0x2899 JUMP JUMPDEST PUSH2 0x2991 JUMP JUMPDEST DUP3 MSTORE POP POP JUMP JUMPDEST PUSH1 0x0 PUSH2 0x2446 DUP3 DUP7 PUSH2 0x2423 JUMP JUMPDEST PUSH1 0x20 DUP3 ADD SWAP2 POP PUSH2 0x2456 DUP3 DUP6 PUSH2 0x2423 JUMP JUMPDEST PUSH1 0x20 DUP3 ADD SWAP2 POP PUSH2 0x2466 DUP3 DUP5 PUSH2 0x20CB JUMP JUMPDEST SWAP2 POP DUP2 SWAP1 POP SWAP5 SWAP4 POP POP POP POP JUMP JUMPDEST PUSH1 0x0 PUSH2 0x247F DUP3 DUP7 PUSH2 0x2423 JUMP JUMPDEST PUSH1 0x20 DUP3 ADD SWAP2 POP PUSH2 0x248F DUP3 DUP6 PUSH2 0x2423 JUMP JUMPDEST PUSH1 0x20 DUP3 ADD SWAP2 POP PUSH2 0x249F DUP3 DUP5 PUSH2 0x2423 JUMP JUMPDEST PUSH1 0x20 DUP3 ADD SWAP2 POP DUP2 SWAP1 POP SWAP5 SWAP4 POP POP POP POP JUMP JUMPDEST PUSH1 0x0 PUSH1 0x20 DUP3 ADD SWAP1 POP DUP2 DUP2 SUB PUSH1 0x0 DUP4 ADD MSTORE PUSH2 0x24CA DUP2 DUP5 PUSH2 0x1F6F JUMP JUMPDEST SWAP1 POP SWAP3 SWAP2 POP POP JUMP JUMPDEST PUSH1 0x0 PUSH1 0x20 DUP3 ADD SWAP1 POP DUP2 DUP2 SUB PUSH1 0x0 DUP4 ADD MSTORE PUSH2 0x24EC DUP2 DUP5 PUSH2 0x1FE4 JUMP JUMPDEST SWAP1 POP SWAP3 SWAP2 POP POP JUMP JUMPDEST PUSH1 0x0 PUSH1 0x20 DUP3 ADD SWAP1 POP DUP2 DUP2 SUB PUSH1 0x0 DUP4 ADD MSTORE PUSH2 0x250E DUP2 DUP5 PUSH2 0x2092 JUMP JUMPDEST SWAP1 POP SWAP3 SWAP2 POP POP JUMP JUMPDEST PUSH1 0x0 PUSH1 0x20 DUP3 ADD SWAP1 POP DUP2 DUP2 SUB PUSH1 0x0 DUP4 ADD MSTORE PUSH2 0x2530 DUP2 DUP5 PUSH2 0x21C2 JUMP JUMPDEST SWAP1 POP SWAP3 SWAP2 POP POP JUMP JUMPDEST PUSH1 0x0 PUSH1 0x20 DUP3 ADD SWAP1 POP DUP2 DUP2 SUB PUSH1 0x0 DUP4 ADD MSTORE PUSH2 0x2552 DUP2 DUP5 PUSH2 0x234E JUMP JUMPDEST SWAP1 POP SWAP3 SWAP2 POP POP JUMP JUMPDEST PUSH1 0x0 PUSH1 0x20 DUP3 ADD SWAP1 POP PUSH2 0x256F PUSH1 0x0 DUP4 ADD DUP5 PUSH2 0x2414 JUMP JUMPDEST SWAP3 SWAP2 POP POP JUMP JUMPDEST PUSH1 0x0 PUSH1 0xE0 DUP3 ADD SWAP1 POP PUSH2 0x258A PUSH1 0x0 DUP4 ADD DUP11 PUSH2 0x2414 JUMP JUMPDEST PUSH2 0x2597 PUSH1 0x20 DUP4 ADD DUP10 PUSH2 0x2414 JUMP JUMPDEST DUP2 DUP2 SUB PUSH1 0x40 DUP4 ADD MSTORE PUSH2 0x25A9 DUP2 DUP9 PUSH2 0x2092 JUMP JUMPDEST SWAP1 POP DUP2 DUP2 SUB PUSH1 0x60 DUP4 ADD MSTORE PUSH2 0x25BD DUP2 DUP8 PUSH2 0x2092 JUMP JUMPDEST SWAP1 POP PUSH2 0x25CC PUSH1 0x80 DUP4 ADD DUP7 PUSH2 0x2414 JUMP JUMPDEST PUSH2 0x25D9 PUSH1 0xA0 DUP4 ADD DUP6 PUSH2 0x2414 JUMP JUMPDEST PUSH2 0x25E6 PUSH1 0xC0 DUP4 ADD DUP5 PUSH2 0x2414 JUMP JUMPDEST SWAP9 SWAP8 POP POP POP POP POP POP POP POP JUMP JUMPDEST PUSH1 0x0 PUSH1 0xE0 DUP3 ADD SWAP1 POP PUSH2 0x2607 PUSH1 0x0 DUP4 ADD DUP11 PUSH2 0x2414 JUMP JUMPDEST PUSH2 0x2614 PUSH1 0x20 DUP4 ADD DUP10 PUSH2 0x2414 JUMP JUMPDEST PUSH2 0x2621 PUSH1 0x40 DUP4 ADD DUP9 PUSH2 0x2414 JUMP JUMPDEST DUP2 DUP2 SUB PUSH1 0x60 DUP4 ADD MSTORE PUSH2 0x2633 DUP2 DUP8 PUSH2 0x2092 JUMP JUMPDEST SWAP1 POP PUSH2 0x2642 PUSH1 0x80 DUP4 ADD DUP7 PUSH2 0x2414 JUMP JUMPDEST PUSH2 0x264F PUSH1 0xA0 DUP4 ADD DUP6 PUSH2 0x2414 JUMP JUMPDEST PUSH2 0x265C PUSH1 0xC0 DUP4 ADD DUP5 PUSH2 0x2414 JUMP JUMPDEST SWAP9 SWAP8 POP POP POP POP POP POP POP POP JUMP JUMPDEST PUSH1 0x0 PUSH1 0xE0 DUP3 ADD SWAP1 POP PUSH2 0x267D PUSH1 0x0 DUP4 ADD DUP11 PUSH2 0x2414 JUMP JUMPDEST PUSH2 0x268A PUSH1 0x20 DUP4 ADD DUP10 PUSH2 0x2414 JUMP JUMPDEST PUSH2 0x2697 PUSH1 0x40 DUP4 ADD DUP9 PUSH2 0x2414 JUMP JUMPDEST PUSH2 0x26A4 PUSH1 0x60 DUP4 ADD DUP8 PUSH2 0x2414 JUMP JUMPDEST DUP2 DUP2 SUB PUSH1 0x80 DUP4 ADD MSTORE PUSH2 0x26B6 DUP2 DUP7 PUSH2 0x2092 JUMP JUMPDEST SWAP1 POP PUSH2 0x26C5 PUSH1 0xA0 DUP4 ADD DUP6 PUSH2 0x2414 JUMP JUMPDEST PUSH2 0x26D2 PUSH1 0xC0 DUP4 ADD DUP5 PUSH2 0x2414 JUMP JUMPDEST SWAP9 SWAP8 POP POP POP POP POP POP POP POP JUMP JUMPDEST PUSH1 0x0 PUSH2 0x26E8 PUSH2 0x26F9 JUMP JUMPDEST SWAP1 POP PUSH2 0x26F4 DUP3 DUP3 PUSH2 0x2917 JUMP JUMPDEST SWAP2 SWAP1 POP JUMP JUMPDEST PUSH1 0x0 PUSH1 0x40 MLOAD SWAP1 POP SWAP1 JUMP JUMPDEST PUSH1 0x0 PUSH8 0xFFFFFFFFFFFFFFFF DUP3 GT ISZERO PUSH2 0x271E JUMPI PUSH2 0x271D PUSH2 0x2A88 JUMP JUMPDEST JUMPDEST PUSH2 0x2727 DUP3 PUSH2 0x2ACB JUMP JUMPDEST SWAP1 POP PUSH1 0x20 DUP2 ADD SWAP1 POP SWAP2 SWAP1 POP JUMP JUMPDEST PUSH1 0x0 DUP2 SWAP1 POP PUSH1 0x20 DUP3 ADD SWAP1 POP SWAP2 SWAP1 POP JUMP JUMPDEST PUSH1 0x0 DUP2 SWAP1 POP PUSH1 0x20 DUP3 ADD SWAP1 POP SWAP2 SWAP1 POP JUMP JUMPDEST PUSH1 0x0 DUP2 MLOAD SWAP1 POP SWAP2 SWAP1 POP JUMP JUMPDEST PUSH1 0x0 DUP2 MLOAD SWAP1 POP SWAP2 SWAP1 POP JUMP JUMPDEST PUSH1 0x0 DUP2 MLOAD SWAP1 POP SWAP2 SWAP1 POP JUMP JUMPDEST PUSH1 0x0 PUSH1 0x20 DUP3 ADD SWAP1 POP SWAP2 SWAP1 POP JUMP JUMPDEST PUSH1 0x0 PUSH1 0x20 DUP3 ADD SWAP1 POP SWAP2 SWAP1 POP JUMP JUMPDEST PUSH1 0x0 DUP3 DUP3 MSTORE PUSH1 0x20 DUP3 ADD SWAP1 POP SWAP3 SWAP2 POP POP JUMP JUMPDEST PUSH1 0x0 DUP3 DUP3 MSTORE PUSH1 0x20 DUP3 ADD SWAP1 POP SWAP3 SWAP2 POP POP JUMP JUMPDEST PUSH1 0x0 DUP3 DUP3 MSTORE PUSH1 0x20 DUP3 ADD SWAP1 POP SWAP3 SWAP2 POP POP JUMP JUMPDEST PUSH1 0x0 DUP3 DUP3 MSTORE PUSH1 0x20 DUP3 ADD SWAP1 POP SWAP3 SWAP2 POP POP JUMP JUMPDEST PUSH1 0x0 DUP2 SWAP1 POP SWAP3 SWAP2 POP POP JUMP JUMPDEST PUSH1 0x0 PUSH2 0x27E9 DUP3 PUSH2 0x2899 JUMP JUMPDEST SWAP2 POP PUSH2 0x27F4 DUP4 PUSH2 0x2899 JUMP JUMPDEST SWAP3 POP DUP3 PUSH32 0xFFFFFFFFFFFFFFFFFFFFFFFFFFFFFFFFFFFFFFFFFFFFFFFFFFFFFFFFFFFFFFFF SUB DUP3 GT ISZERO PUSH2 0x2829 JUMPI PUSH2 0x2828 PUSH2 0x29CC JUMP JUMPDEST JUMPDEST DUP3 DUP3 ADD SWAP1 POP SWAP3 SWAP2 POP POP JUMP JUMPDEST PUSH1 0x0 PUSH2 0x283F DUP3 PUSH2 0x2899 JUMP JUMPDEST SWAP2 POP PUSH2 0x284A DUP4 PUSH2 0x2899 JUMP JUMPDEST SWAP3 POP DUP3 PUSH2 0x285A JUMPI PUSH2 0x2859 PUSH2 0x29FB JUMP JUMPDEST JUMPDEST DUP3 DUP3 DIV SWAP1 POP SWAP3 SWAP2 POP POP JUMP JUMPDEST PUSH1 0x0 PUSH2 0x2870 DUP3 PUSH2 0x2899 JUMP JUMPDEST SWAP2 POP PUSH2 0x287B DUP4 PUSH2 0x2899 JUMP JUMPDEST SWAP3 POP DUP3 DUP3 LT ISZERO PUSH2 0x288E JUMPI PUSH2 0x288D PUSH2 0x29CC JUMP JUMPDEST JUMPDEST DUP3 DUP3 SUB SWAP1 POP SWAP3 SWAP2 POP POP JUMP JUMPDEST PUSH1 0x0 DUP2 SWAP1 POP SWAP2 SWAP1 POP JUMP JUMPDEST DUP3 DUP2 DUP4 CALLDATACOPY PUSH1 0x0 DUP4 DUP4 ADD MSTORE POP POP POP JUMP JUMPDEST PUSH1 0x0 JUMPDEST DUP4 DUP2 LT ISZERO PUSH2 0x28D0 JUMPI DUP1 DUP3 ADD MLOAD DUP2 DUP5 ADD MSTORE PUSH1 0x20 DUP2 ADD SWAP1 POP PUSH2 0x28B5 JUMP JUMPDEST DUP4 DUP2 GT ISZERO PUSH2 0x28DF JUMPI PUSH1 0x0 DUP5 DUP5 ADD MSTORE JUMPDEST POP POP POP POP JUMP JUMPDEST PUSH1 0x0 PUSH1 0x2 DUP3 DIV SWAP1 POP PUSH1 0x1 DUP3 AND DUP1 PUSH2 0x28FD JUMPI PUSH1 0x7F DUP3 AND SWAP2 POP JUMPDEST PUSH1 0x20 DUP3 LT DUP2 EQ ISZERO PUSH2 0x2911 JUMPI PUSH2 0x2910 PUSH2 0x2A2A JUMP JUMPDEST JUMPDEST POP SWAP2 SWAP1 POP JUMP JUMPDEST PUSH2 0x2920 DUP3 PUSH2 0x2ACB JUMP JUMPDEST DUP2 ADD DUP2 DUP2 LT PUSH8 0xFFFFFFFFFFFFFFFF DUP3 GT OR ISZERO PUSH2 0x293F JUMPI PUSH2 0x293E PUSH2 0x2A88 JUMP JUMPDEST JUMPDEST DUP1 PUSH1 0x40 MSTORE POP POP POP JUMP JUMPDEST PUSH1 0x0 PUSH2 0x2953 DUP3 PUSH2 0x2899 JUMP JUMPDEST SWAP2 POP PUSH32 0xFFFFFFFFFFFFFFFFFFFFFFFFFFFFFFFFFFFFFFFFFFFFFFFFFFFFFFFFFFFFFFFF DUP3 EQ ISZERO PUSH2 0x2986 JUMPI PUSH2 0x2985 PUSH2 0x29CC JUMP JUMPDEST JUMPDEST PUSH1 0x1 DUP3 ADD SWAP1 POP SWAP2 SWAP1 POP JUMP JUMPDEST PUSH1 0x0 DUP2 SWAP1 POP SWAP2 SWAP1 POP JUMP JUMPDEST PUSH1 0x0 PUSH2 0x29A6 DUP3 PUSH2 0x2899 JUMP JUMPDEST SWAP2 POP PUSH2 0x29B1 DUP4 PUSH2 0x2899 JUMP JUMPDEST SWAP3 POP DUP3 PUSH2 0x29C1 JUMPI PUSH2 0x29C0 PUSH2 0x29FB JUMP JUMPDEST JUMPDEST DUP3 DUP3 MOD SWAP1 POP SWAP3 SWAP2 POP POP JUMP JUMPDEST PUSH32 0x4E487B7100000000000000000000000000000000000000000000000000000000 PUSH1 0x0 MSTORE PUSH1 0x11 PUSH1 0x4 MSTORE PUSH1 0x24 PUSH1 0x0 REVERT JUMPDEST PUSH32 0x4E487B7100000000000000000000000000000000000000000000000000000000 PUSH1 0x0 MSTORE PUSH1 0x12 PUSH1 0x4 MSTORE PUSH1 0x24 PUSH1 0x0 REVERT JUMPDEST PUSH32 0x4E487B7100000000000000000000000000000000000000000000000000000000 PUSH1 0x0 MSTORE PUSH1 0x22 PUSH1 0x4 MSTORE PUSH1 0x24 PUSH1 0x0 REVERT JUMPDEST PUSH32 0x4E487B7100000000000000000000000000000000000000000000000000000000 PUSH1 0x0 MSTORE PUSH1 0x32 PUSH1 0x4 MSTORE PUSH1 0x24 PUSH1 0x0 REVERT JUMPDEST PUSH32 0x4E487B7100000000000000000000000000000000000000000000000000000000 PUSH1 0x0 MSTORE PUSH1 0x41 PUSH1 0x4 MSTORE PUSH1 0x24 PUSH1 0x0 REVERT JUMPDEST PUSH1 0x0 DUP1 REVERT JUMPDEST PUSH1 0x0 DUP1 REVERT JUMPDEST PUSH1 0x0 DUP1 REVERT JUMPDEST PUSH1 0x0 DUP1 REVERT JUMPDEST PUSH1 0x0 PUSH1 0x1F NOT PUSH1 0x1F DUP4 ADD AND SWAP1 POP SWAP2 SWAP1 POP JUMP JUMPDEST PUSH2 0x2AE5 DUP2 PUSH2 0x2899 JUMP JUMPDEST DUP2 EQ PUSH2 0x2AF0 JUMPI PUSH1 0x0 DUP1 REVERT JUMPDEST POP JUMP INVALID LOG2 PUSH5 0x6970667358 0x22 SLT KECCAK256 0xE8 0xF6 0xA7 COINBASE ADDRESS PUSH23 0x3C483F0A77CE05CA20CAA46AB4FB746A36C60BF53A7EEE BLOCKHASH CALLVALUE 0x5C PUSH5 0x736F6C6343 STOP ADDMOD SMOD STOP CALLER "},"gasEstimates":{"creation":{"codeDepositCost":"2209800","executionCost":"2360","totalCost":"2212160"},"external":{"commentMap(uint256)":"infinite","complainMap(uint256)":"infinite","contentComments(uint256,uint256)":"infinite","contentIds(uint256)":"infinite","contentMap(uint256)":"infinite","createComment(uint256,uint256,string)":"infinite","createContent(uint256,string,string)":"infinite","deleteComment(uint256)":"infinite","deleteContent(uint256)":"infinite","getAllContent()":"infinite","getComment(uint256)":"infinite","getCommentsByContentId(uint256)":"infinite","getContent(uint256)":"infinite","praiseComment(uint256)":"infinite","praiseContent(uint256)":"infinite","uint256ToString(uint256)":"infinite","updateComment(uint256,string)":"infinite","updateContent(uint256,string,string)":"infinite"}},"methodIdentifiers":{"commentMap(uint256)":"9f3002c2","complainMap(uint256)":"2efb4840","contentComments(uint256,uint256)":"a55a7cac","contentIds(uint256)":"b7d17b3c","contentMap(uint256)":"8072d9e5","createComment(uint256,uint256,string)":"9a55125e","createContent(uint256,string,string)":"aee91382","deleteComment(uint256)":"7d0b1026","deleteContent(uint256)":"fed216cb","getAllContent()":"54315084","getComment(uint256)":"0800e300","getCommentsByContentId(uint256)":"846c5904","getContent(uint256)":"0b7ad54c","praiseComment(uint256)":"80562999","praiseContent(uint256)":"9ad666a7","uint256ToString(uint256)":"ce7e51e3","updateComment(uint256,string)":"5b5da505","updateContent(uint256,string,string)":"064b0155"}},"storageLayout":{"storage":[{"astId":81,"contract":"contracts/ContentInfo.sol:ContentInfo","label":"contentMap","offset":0,"slot":"0","type":"t_mapping(t_uint256,t_struct(Content)16_storage)"},{"astId":84,"contract":"contracts/ContentInfo.sol:ContentInfo","label":"contentIds","offset":0,"slot":"1","type":"t_array(t_uint256)dyn_storage"},{"astId":89,"contract":"contracts/ContentInfo.sol:ContentInfo","label":"commentMap","offset":0,"slot":"2","type":"t_mapping(t_uint256,t_struct(Comment)31_storage)"},{"astId":94,"contract":"contracts/ContentInfo.sol:ContentInfo","label":"complainMap","offset":0,"slot":"3","type":"t_mapping(t_uint256,t_struct(Complain)46_storage)"},{"astId":99,"contract":"contracts/ContentInfo.sol:ContentInfo","label":"contentComments","offset":0,"slot":"4","type":"t_mapping(t_uint256,t_array(t_uint256)dyn_storage)"}],"types":{"t_array(t_uint256)dyn_storage":{"base":"t_uint256","encoding":"dynamic_array","label":"uint256[]","numberOfBytes":"32"},"t_mapping(t_uint256,t_array(t_uint256)dyn_storage)":{"encoding":"mapping","key":"t_uint256","label":"mapping(uint256 => uint256[])","numberOfBytes":"32","value":"t_array(t_uint256)dyn_storage"},"t_mapping(t_uint256,t_struct(Comment)31_storage)":{"encoding":"mapping","key":"t_uint256","label":"mapping(uint256 => struct ContentInfo.Comment)","numberOfBytes":"32","value":"t_struct(Comment)31_storage"},"t_mapping(t_uint256,t_struct(Complain)46_storage)":{"encoding":"mapping","key":"t_uint256","label":"mapping(uint256 => struct ContentInfo.Complain)","numberOfBytes":"32","value":"t_struct(Complain)46_storage"},"t_mapping(t_uint256,t_struct(Content)16_storage)":{"encoding":"mapping","key":"t_uint256","label":"mapping(uint256 => struct ContentInfo.Content)","numberOfBytes":"32","value":"t_struct(Content)16_storage"},"t_string_storage":{"encoding":"bytes","label":"string","numberOfBytes":"32"},"t_struct(Comment)31_storage":{"encoding":"inplace","label":"struct ContentInfo.Comment","members":[{"astId":18,"contract":"contracts/ContentInfo.sol:ContentInfo","label":"contentId","offset":0,"slot":"0","type":"t_uint256"},{"astId":20,"contract":"contracts/ContentInfo.sol:ContentInfo","label":"userId","offset":0,"slot":"1","type":"t_uint256"},{"astId":22,"contract":"contracts/ContentInfo.sol:ContentInfo","label":"commentId","offset":0,"slot":"2","type":"t_uint256"},{"astId":24,"contract":"contracts/ContentInfo.sol:ContentInfo","label":"comment","offset":0,"slot":"3","type":"t_string_storage"},{"astId":26,"contract":"contracts/ContentInfo.sol:ContentInfo","label":"updateTime","offset":0,"slot":"4","type":"t_uint256"},{"astId":28,"contract":"contracts/ContentInfo.sol:ContentInfo","label":"praiseCount","offset":0,"slot":"5","type":"t_uint256"},{"astId":30,"contract":"contracts/ContentInfo.sol:ContentInfo","label":"commentState","offset":0,"slot":"6","type":"t_uint256"}],"numberOfBytes":"224"},"t_struct(Complain)46_storage":{"encoding":"inplace","label":"struct ContentInfo.Complain","members":[{"astId":33,"contract":"contracts/ContentInfo.sol:ContentInfo","label":"complaintId","offset":0,"slot":"0","type":"t_uint256"},{"astId":35,"contract":"contracts/ContentInfo.sol:ContentInfo","label":"contentId","offset":0,"slot":"1","type":"t_uint256"},{"astId":37,"contract":"contracts/ContentInfo.sol:ContentInfo","label":"userId","offset":0,"slot":"2","type":"t_uint256"},{"astId":39,"contract":"contracts/ContentInfo.sol:ContentInfo","label":"commentId","offset":0,"slot":"3","type":"t_uint256"},{"astId":41,"contract":"contracts/ContentInfo.sol:ContentInfo","label":"content","offset":0,"slot":"4","type":"t_string_storage"},{"astId":43,"contract":"contracts/ContentInfo.sol:ContentInfo","label":"updateTime","offset":0,"slot":"5","type":"t_uint256"},{"astId":45,"contract":"contracts/ContentInfo.sol:ContentInfo","label":"complainState","offset":0,"slot":"6","type":"t_uint256"}],"numberOfBytes":"224"},"t_struct(Content)16_storage":{"encoding":"inplace","label":"struct ContentInfo.Content","members":[{"astId":3,"contract":"contracts/ContentInfo.sol:ContentInfo","label":"contentId","offset":0,"slot":"0","type":"t_uint256"},{"astId":5,"contract":"contracts/ContentInfo.sol:ContentInfo","label":"userId","offset":0,"slot":"1","type":"t_uint256"},{"astId":7,"contract":"contracts/ContentInfo.sol:ContentInfo","label":"title","offset":0,"slot":"2","type":"t_string_storage"},{"astId":9,"contract":"contracts/ContentInfo.sol:ContentInfo","label":"content","offset":0,"slot":"3","type":"t_string_storage"},{"astId":11,"contract":"contracts/ContentInfo.sol:ContentInfo","label":"updateTime","offset":0,"slot":"4","type":"t_uint256"},{"astId":13,"contract":"contracts/ContentInfo.sol:ContentInfo","label":"praiseCount","offset":0,"slot":"5","type":"t_uint256"},{"astId":15,"contract":"contracts/ContentInfo.sol:ContentInfo","label":"contentState","offset":0,"slot":"6","type":"t_uint256"}],"numberOfBytes":"224"},"t_uint256":{"encoding":"inplace","label":"uint256","numberOfBytes":"32"}}},"userdoc":{"kind":"user","methods":{},"version":1}}}}