{
  "address": "0xe7f1725E7734CE288F8367e1Bb143E90bb3F0512",
  "abi": [
    {
      "anonymous": false,
      "inputs": [
        {
          "indexed": false,
          "internalType": "uint256",
          "name": "commentId",
          "type": "uint256"
        }
      ],
      "name": "CommentCreated",
      "type": "event"
    },
    {
      "anonymous": false,
      "inputs": [
        {
          "indexed": false,
          "internalType": "uint256",
          "name": "complaintId",
          "type": "uint256"
        }
      ],
      "name": "ComplaintCreated",
      "type": "event"
    },
    {
      "anonymous": false,
      "inputs": [
        {
          "indexed": false,
          "internalType": "uint256",
          "name": "contentId",
          "type": "uint256"
        }
      ],
      "name": "ContentCreated",
      "type": "event"
    },
    {
      "anonymous": false,
      "inputs": [
        {
          "indexed": false,
          "internalType": "uint256",
          "name": "praiseCount",
          "type": "uint256"
        }
      ],
      "name": "PraiseCommentDone",
      "type": "event"
    },
    {
      "anonymous": false,
      "inputs": [
        {
          "indexed": false,
          "internalType": "uint256",
          "name": "praiseCount",
          "type": "uint256"
        }
      ],
      "name": "PraiseDone",
      "type": "event"
    },
    {
      "inputs": [
        {
          "internalType": "uint256",
          "name": "",
          "type": "uint256"
        }
      ],
      "name": "commentMap",
      "outputs": [
        {
          "internalType": "uint256",
          "name": "contentId",
          "type": "uint256"
        },
        {
          "internalType": "uint256",
          "name": "userId",
          "type": "uint256"
        },
        {
          "internalType": "uint256",
          "name": "commentId",
          "type": "uint256"
        },
        {
          "internalType": "string",
          "name": "comment",
          "type": "string"
        },
        {
          "internalType": "uint256",
          "name": "updateTime",
          "type": "uint256"
        },
        {
          "internalType": "uint256",
          "name": "praiseCount",
          "type": "uint256"
        },
        {
          "internalType": "uint256",
          "name": "commentState",
          "type": "uint256"
        }
      ],
      "stateMutability": "view",
      "type": "function"
    },
    {
      "inputs": [
        {
          "internalType": "uint256",
          "name": "",
          "type": "uint256"
        }
      ],
      "name": "complainIds",
      "outputs": [
        {
          "internalType": "uint256",
          "name": "",
          "type": "uint256"
        }
      ],
      "stateMutability": "view",
      "type": "function"
    },
    {
      "inputs": [
        {
          "internalType": "uint256",
          "name": "",
          "type": "uint256"
        }
      ],
      "name": "complainMap",
      "outputs": [
        {
          "internalType": "uint256",
          "name": "complaintId",
          "type": "uint256"
        },
        {
          "internalType": "uint256",
          "name": "contentId",
          "type": "uint256"
        },
        {
          "internalType": "uint256",
          "name": "userId",
          "type": "uint256"
        },
        {
          "internalType": "uint256",
          "name": "commentId",
          "type": "uint256"
        },
        {
          "internalType": "string",
          "name": "content",
          "type": "string"
        },
        {
          "internalType": "uint256",
          "name": "updateTime",
          "type": "uint256"
        },
        {
          "internalType": "uint256",
          "name": "complainState",
          "type": "uint256"
        }
      ],
      "stateMutability": "view",
      "type": "function"
    },
    {
      "inputs": [
        {
          "internalType": "uint256",
          "name": "",
          "type": "uint256"
        },
        {
          "internalType": "uint256",
          "name": "",
          "type": "uint256"
        }
      ],
      "name": "contentComments",
      "outputs": [
        {
          "internalType": "uint256",
          "name": "",
          "type": "uint256"
        }
      ],
      "stateMutability": "view",
      "type": "function"
    },
    {
      "inputs": [
        {
          "internalType": "uint256",
          "name": "",
          "type": "uint256"
        }
      ],
      "name": "contentIds",
      "outputs": [
        {
          "internalType": "uint256",
          "name": "",
          "type": "uint256"
        }
      ],
      "stateMutability": "view",
      "type": "function"
    },
    {
      "inputs": [
        {
          "internalType": "uint256",
          "name": "",
          "type": "uint256"
        }
      ],
      "name": "contentMap",
      "outputs": [
        {
          "internalType": "uint256",
          "name": "contentId",
          "type": "uint256"
        },
        {
          "internalType": "uint256",
          "name": "userId",
          "type": "uint256"
        },
        {
          "internalType": "string",
          "name": "title",
          "type": "string"
        },
        {
          "internalType": "string",
          "name": "content",
          "type": "string"
        },
        {
          "internalType": "uint256",
          "name": "updateTime",
          "type": "uint256"
        },
        {
          "internalType": "uint256",
          "name": "praiseCount",
          "type": "uint256"
        },
        {
          "internalType": "uint256",
          "name": "contentState",
          "type": "uint256"
        }
      ],
      "stateMutability": "view",
      "type": "function"
    },
    {
      "inputs": [
        {
          "internalType": "uint256",
          "name": "_contentId",
          "type": "uint256"
        },
        {
          "internalType": "uint256",
          "name": "_userId",
          "type": "uint256"
        },
        {
          "internalType": "string",
          "name": "_comment",
          "type": "string"
        }
      ],
      "name": "createComment",
      "outputs": [],
      "stateMutability": "nonpayable",
      "type": "function"
    },
    {
      "inputs": [
        {
          "internalType": "uint256",
          "name": "_contentId",
          "type": "uint256"
        },
        {
          "internalType": "uint256",
          "name": "_userId",
          "type": "uint256"
        },
        {
          "internalType": "uint256",
          "name": "_commentId",
          "type": "uint256"
        },
        {
          "internalType": "string",
          "name": "_complaintContent",
          "type": "string"
        }
      ],
      "name": "createComplaint",
      "outputs": [],
      "stateMutability": "nonpayable",
      "type": "function"
    },
    {
      "inputs": [
        {
          "internalType": "uint256",
          "name": "_userId",
          "type": "uint256"
        },
        {
          "internalType": "string",
          "name": "_title",
          "type": "string"
        },
        {
          "internalType": "string",
          "name": "_content",
          "type": "string"
        }
      ],
      "name": "createContent",
      "outputs": [],
      "stateMutability": "nonpayable",
      "type": "function"
    },
    {
      "inputs": [
        {
          "internalType": "uint256",
          "name": "_commentId",
          "type": "uint256"
        }
      ],
      "name": "deleteComment",
      "outputs": [],
      "stateMutability": "nonpayable",
      "type": "function"
    },
    {
      "inputs": [
        {
          "internalType": "uint256",
          "name": "_complainId",
          "type": "uint256"
        }
      ],
      "name": "deleteComplain",
      "outputs": [],
      "stateMutability": "nonpayable",
      "type": "function"
    },
    {
      "inputs": [
        {
          "internalType": "uint256",
          "name": "_contentId",
          "type": "uint256"
        }
      ],
      "name": "deleteContent",
      "outputs": [],
      "stateMutability": "nonpayable",
      "type": "function"
    },
    {
      "inputs": [],
      "name": "getAllComplain",
      "outputs": [
        {
          "components": [
            {
              "internalType": "string",
              "name": "complaintId",
              "type": "string"
            },
            {
              "internalType": "string",
              "name": "contentId",
              "type": "string"
            },
            {
              "internalType": "string",
              "name": "userId",
              "type": "string"
            },
            {
              "internalType": "string",
              "name": "commentId",
              "type": "string"
            },
            {
              "internalType": "string",
              "name": "content",
              "type": "string"
            },
            {
              "internalType": "string",
              "name": "updateTime",
              "type": "string"
            },
            {
              "internalType": "string",
              "name": "complainState",
              "type": "string"
            }
          ],
          "internalType": "struct ContentInfo.ReturnComplain[]",
          "name": "",
          "type": "tuple[]"
        }
      ],
      "stateMutability": "view",
      "type": "function"
    },
    {
      "inputs": [],
      "name": "getAllContent",
      "outputs": [
        {
          "components": [
            {
              "internalType": "string",
              "name": "contentId",
              "type": "string"
            },
            {
              "internalType": "string",
              "name": "userId",
              "type": "string"
            },
            {
              "internalType": "string",
              "name": "title",
              "type": "string"
            },
            {
              "internalType": "string",
              "name": "content",
              "type": "string"
            },
            {
              "internalType": "string",
              "name": "updateTime",
              "type": "string"
            },
            {
              "internalType": "string",
              "name": "praiseCount",
              "type": "string"
            },
            {
              "internalType": "string",
              "name": "contentState",
              "type": "string"
            }
          ],
          "internalType": "struct ContentInfo.ReturnContent[]",
          "name": "",
          "type": "tuple[]"
        }
      ],
      "stateMutability": "view",
      "type": "function"
    },
    {
      "inputs": [
        {
          "internalType": "uint256",
          "name": "_commentId",
          "type": "uint256"
        }
      ],
      "name": "getComment",
      "outputs": [
        {
          "components": [
            {
              "internalType": "string",
              "name": "contentId",
              "type": "string"
            },
            {
              "internalType": "string",
              "name": "userId",
              "type": "string"
            },
            {
              "internalType": "string",
              "name": "commentId",
              "type": "string"
            },
            {
              "internalType": "string",
              "name": "comment",
              "type": "string"
            },
            {
              "internalType": "string",
              "name": "updateTime",
              "type": "string"
            },
            {
              "internalType": "string",
              "name": "praiseCount",
              "type": "string"
            },
            {
              "internalType": "string",
              "name": "commentState",
              "type": "string"
            }
          ],
          "internalType": "struct ContentInfo.ReturnComment",
          "name": "",
          "type": "tuple"
        }
      ],
      "stateMutability": "view",
      "type": "function"
    },
    {
      "inputs": [
        {
          "internalType": "uint256",
          "name": "_contentId",
          "type": "uint256"
        }
      ],
      "name": "getCommentsByContentId",
      "outputs": [
        {
          "components": [
            {
              "internalType": "string",
              "name": "contentId",
              "type": "string"
            },
            {
              "internalType": "string",
              "name": "userId",
              "type": "string"
            },
            {
              "internalType": "string",
              "name": "commentId",
              "type": "string"
            },
            {
              "internalType": "string",
              "name": "comment",
              "type": "string"
            },
            {
              "internalType": "string",
              "name": "updateTime",
              "type": "string"
            },
            {
              "internalType": "string",
              "name": "praiseCount",
              "type": "string"
            },
            {
              "internalType": "string",
              "name": "commentState",
              "type": "string"
            }
          ],
          "internalType": "struct ContentInfo.ReturnComment[]",
          "name": "",
          "type": "tuple[]"
        }
      ],
      "stateMutability": "view",
      "type": "function"
    },
    {
      "inputs": [
        {
          "internalType": "uint256",
          "name": "_complaintId",
          "type": "uint256"
        }
      ],
      "name": "getComplain",
      "outputs": [
        {
          "components": [
            {
              "internalType": "string",
              "name": "complaintId",
              "type": "string"
            },
            {
              "internalType": "string",
              "name": "contentId",
              "type": "string"
            },
            {
              "internalType": "string",
              "name": "userId",
              "type": "string"
            },
            {
              "internalType": "string",
              "name": "commentId",
              "type": "string"
            },
            {
              "internalType": "string",
              "name": "content",
              "type": "string"
            },
            {
              "internalType": "string",
              "name": "updateTime",
              "type": "string"
            },
            {
              "internalType": "string",
              "name": "complainState",
              "type": "string"
            }
          ],
          "internalType": "struct ContentInfo.ReturnComplain",
          "name": "",
          "type": "tuple"
        }
      ],
      "stateMutability": "view",
      "type": "function"
    },
    {
      "inputs": [
        {
          "internalType": "uint256",
          "name": "_contentId",
          "type": "uint256"
        }
      ],
      "name": "getContent",
      "outputs": [
        {
          "components": [
            {
              "internalType": "string",
              "name": "contentId",
              "type": "string"
            },
            {
              "internalType": "string",
              "name": "userId",
              "type": "string"
            },
            {
              "internalType": "string",
              "name": "title",
              "type": "string"
            },
            {
              "internalType": "string",
              "name": "content",
              "type": "string"
            },
            {
              "internalType": "string",
              "name": "updateTime",
              "type": "string"
            },
            {
              "internalType": "string",
              "name": "praiseCount",
              "type": "string"
            },
            {
              "internalType": "string",
              "name": "contentState",
              "type": "string"
            }
          ],
          "internalType": "struct ContentInfo.ReturnContent",
          "name": "",
          "type": "tuple"
        }
      ],
      "stateMutability": "view",
      "type": "function"
    },
    {
      "inputs": [
        {
          "internalType": "uint256",
          "name": "_commentId",
          "type": "uint256"
        }
      ],
      "name": "praiseComment",
      "outputs": [],
      "stateMutability": "nonpayable",
      "type": "function"
    },
    {
      "inputs": [
        {
          "internalType": "uint256",
          "name": "_contentId",
          "type": "uint256"
        }
      ],
      "name": "praiseContent",
      "outputs": [],
      "stateMutability": "nonpayable",
      "type": "function"
    },
    {
      "inputs": [
        {
          "internalType": "uint256",
          "name": "value",
          "type": "uint256"
        }
      ],
      "name": "uint256ToString",
      "outputs": [
        {
          "internalType": "string",
          "name": "",
          "type": "string"
        }
      ],
      "stateMutability": "pure",
      "type": "function"
    },
    {
      "inputs": [
        {
          "internalType": "uint256",
          "name": "_commentId",
          "type": "uint256"
        },
        {
          "internalType": "string",
          "name": "_comment",
          "type": "string"
        }
      ],
      "name": "updateComment",
      "outputs": [],
      "stateMutability": "nonpayable",
      "type": "function"
    },
    {
      "inputs": [
        {
          "internalType": "uint256",
          "name": "_contentId",
          "type": "uint256"
        },
        {
          "internalType": "string",
          "name": "_title",
          "type": "string"
        },
        {
          "internalType": "string",
          "name": "_content",
          "type": "string"
        }
      ],
      "name": "updateContent",
      "outputs": [],
      "stateMutability": "nonpayable",
      "type": "function"
    }
  ],
  "transactionHash": "0x1c712dadac89e391ed50b2746d53edda44e92ee6ebf36b07e35d5d2c29759ade",
  "args": [],
  "numDeployments": 1,
  "solcInputHash": "7b47df18ae4ee682aa90b82face5b874",
  "bytecode": "0x608060405234801561001057600080fd5b506133c3806100206000396000f3fe608060405234801561001057600080fd5b506004361061014d5760003560e01c8063846c5904116100c3578063b7d17b3c1161007c578063b7d17b3c146103ce578063ce7e51e3146103fe578063d035efd41461042e578063f1840d261461044c578063fbcd339b1461047c578063fed216cb146104ac5761014d565b8063846c5904146102e45780639a55125e146103145780639ad666a7146103305780639f3002c21461034c578063a55a7cac14610382578063aee91382146103b25761014d565b80632efb4840116101155780632efb484014610206578063543150841461023c5780635b5da5051461025a5780637d0b10261461027657806380562999146102925780638072d9e5146102ae5761014d565b8063064b0155146101525780630800e3001461016e5780630b7ad54c1461019e5780632af670ef146101ce5780632e2e29fa146101ea575b600080fd5b61016c60048036038101906101679190612344565b6104c8565b005b610188600480360381019061018391906122bb565b6106e3565b6040516101959190612d55565b60405180910390f35b6101b860048036038101906101b391906122bb565b610868565b6040516101c59190612d99565b60405180910390f35b6101e860048036038101906101e3919061247e565b610a6c565b005b61020460048036038101906101ff91906122bb565b610baa565b005b610220600480360381019061021b91906122bb565b610d19565b6040516102339796959493929190612ec9565b60405180910390f35b610244610de3565b6040516102519190612d11565b60405180910390f35b610274600480360381019061026f91906122e8565b610f6c565b005b610290600480360381019061028b91906122bb565b6110e4565b005b6102ac60048036038101906102a791906122bb565b611253565b005b6102c860048036038101906102c391906122bb565b6112cf565b6040516102db9796959493929190612dd6565b60405180910390f35b6102fe60048036038101906102f991906122bb565b611421565b60405161030b9190612ccd565b60405180910390f35b61032e6004803603810190610329919061240f565b611605565b005b61034a600480360381019061034591906122bb565b611758565b005b610366600480360381019061036191906122bb565b6117d2565b6040516103799796959493929190612e53565b60405180910390f35b61039c600480360381019061039791906123cf565b61189c565b6040516103a99190612dbb565b60405180910390f35b6103cc60048036038101906103c79190612344565b6118cd565b005b6103e860048036038101906103e391906122bb565b611a1b565b6040516103f59190612dbb565b60405180910390f35b610418600480360381019061041391906122bb565b611a3f565b6040516104259190612d33565b60405180910390f35b610436611ba0565b6040516104439190612cef565b60405180910390f35b610466600480360381019061046191906122bb565b611d2b565b6040516104739190612dbb565b60405180910390f35b610496600480360381019061049191906122bb565b611d4f565b6040516104a39190612d77565b60405180910390f35b6104c660048036038101906104c191906122bb565b611ed4565b005b60008060008581526020019081526020016000206040518060e0016040529081600082015481526020016001820154815260200160028201805461050b9061317f565b80601f01602080910402602001604051908101604052809291908181526020018280546105379061317f565b80156105845780601f1061055957610100808354040283529160200191610584565b820191906000526020600020905b81548152906001019060200180831161056757829003601f168201915b5050505050815260200160038201805461059d9061317f565b80601f01602080910402602001604051908101604052809291908181526020018280546105c99061317f565b80156106165780601f106105eb57610100808354040283529160200191610616565b820191906000526020600020905b8154815290600101906020018083116105f957829003601f168201915b505050505081526020016004820154815260200160058201548152602001600682015481525050905082816040018190525081816060018190525042816080018181525050806000808681526020019081526020016000206000820151816000015560208201518160010155604082015181600201908051906020019061069e9291906120dc565b5060608201518160030190805190602001906106bb9291906120dc565b506080820151816004015560a0820151816005015560c0820151816006015590505050505050565b6106eb612162565b6000600360008481526020019081526020016000206040518060e00160405290816000820154815260200160018201548152602001600282015481526020016003820180546107399061317f565b80601f01602080910402602001604051908101604052809291908181526020018280546107659061317f565b80156107b25780601f10610787576101008083540402835291602001916107b2565b820191906000526020600020905b81548152906001019060200180831161079557829003601f168201915b505050505081526020016004820154815260200160058201548152602001600682015481525050905060006040518060e001604052806107f58460000151611a3f565b81526020016108078460200151611a3f565b81526020016108198460400151611a3f565b8152602001836060015181526020016108358460800151611a3f565b81526020016108478460a00151611a3f565b81526020016108598460c00151611a3f565b81525090508092505050919050565b61087061219f565b60008060008481526020019081526020016000206040518060e001604052908160008201548152602001600182015481526020016002820180546108b39061317f565b80601f01602080910402602001604051908101604052809291908181526020018280546108df9061317f565b801561092c5780601f106109015761010080835404028352916020019161092c565b820191906000526020600020905b81548152906001019060200180831161090f57829003601f168201915b505050505081526020016003820180546109459061317f565b80601f01602080910402602001604051908101604052809291908181526020018280546109719061317f565b80156109be5780601f10610993576101008083540402835291602001916109be565b820191906000526020600020905b8154815290600101906020018083116109a157829003601f168201915b505050505081526020016004820154815260200160058201548152602001600682015481525050905060006040518060e00160405280610a018460000151611a3f565b8152602001610a138460200151611a3f565b81526020018360400151815260200183606001518152602001610a398460800151611a3f565b8152602001610a4b8460a00151611a3f565b8152602001610a5d8460c00151611a3f565b81525090508092505050919050565b600042858585604051602001610a859493929190612c7f565b6040516020818303038152906040528051906020012060001c90506040518060e00160405280828152602001868152602001858152602001848152602001838152602001428152602001600181525060046000838152602001908152602001600020600082015181600001556020820151816001015560408201518160020155606082015181600301556080820151816004019080519060200190610b2b9291906120dc565b5060a0820151816005015560c0820151816006015590505060028190806001815401808255809150506001900390600052602060002001600090919091909150557fb0070f2b77896799069291ae900137ad969e20bc4972a23c69911388656e63b981604051610b9b9190612dbb565b60405180910390a15050505050565b6000600460008381526020019081526020016000206040518060e001604052908160008201548152602001600182015481526020016002820154815260200160038201548152602001600482018054610c029061317f565b80601f0160208091040260200160405190810160405280929190818152602001828054610c2e9061317f565b8015610c7b5780601f10610c5057610100808354040283529160200191610c7b565b820191906000526020600020905b815481529060010190602001808311610c5e57829003601f168201915b5050505050815260200160058201548152602001600682015481525050905060008160c00181815250508060046000848152602001908152602001600020600082015181600001556020820151816001015560408201518160020155606082015181600301556080820151816004019080519060200190610cfd9291906120dc565b5060a0820151816005015560c082015181600601559050505050565b6004602052806000526040600020600091509050806000015490806001015490806002015490806003015490806004018054610d549061317f565b80601f0160208091040260200160405190810160405280929190818152602001828054610d809061317f565b8015610dcd5780601f10610da257610100808354040283529160200191610dcd565b820191906000526020600020905b815481529060010190602001808311610db057829003601f168201915b5050505050908060050154908060060154905087565b6060600060018054905090506000805b82811015610e5957600160008060018481548110610e1457610e136132f3565b5b90600052602060002001548152602001908152602001600020600601541415610e46578180610e42906131e2565b9250505b8080610e51906131e2565b915050610df3565b5060008167ffffffffffffffff811115610e7657610e75613322565b5b604051908082528060200260200182016040528015610eaf57816020015b610e9c61219f565b815260200190600190039081610e945790505b5090506000805b84811015610f6157600160008060018481548110610ed757610ed66132f3565b5b90600052602060002001548152602001908152602001600020600601541415610f4e57610f2160018281548110610f1157610f106132f3565b5b9060005260206000200154610868565b838381518110610f3457610f336132f3565b5b60200260200101819052508180610f4a906131e2565b9250505b8080610f59906131e2565b915050610eb6565b508194505050505090565b6000600360008481526020019081526020016000206040518060e0016040529081600082015481526020016001820154815260200160028201548152602001600382018054610fba9061317f565b80601f0160208091040260200160405190810160405280929190818152602001828054610fe69061317f565b80156110335780601f1061100857610100808354040283529160200191611033565b820191906000526020600020905b81548152906001019060200180831161101657829003601f168201915b505050505081526020016004820154815260200160058201548152602001600682015481525050905081816060018190525042816080018181525050806003600085815260200190815260200160002060008201518160000155602082015181600101556040820151816002015560608201518160030190805190602001906110bd9291906120dc565b506080820151816004015560a0820151816005015560c08201518160060155905050505050565b6000600360008381526020019081526020016000206040518060e00160405290816000820154815260200160018201548152602001600282015481526020016003820180546111329061317f565b80601f016020809104026020016040519081016040528092919081815260200182805461115e9061317f565b80156111ab5780601f10611180576101008083540402835291602001916111ab565b820191906000526020600020905b81548152906001019060200180831161118e57829003601f168201915b505050505081526020016004820154815260200160058201548152602001600682015481525050905060008160c00181815250508060036000848152602001908152602001600020600082015181600001556020820151816001015560408201518160020155606082015181600301908051906020019061122d9291906120dc565b506080820151816004015560a0820151816005015560c082015181600601559050505050565b60036000828152602001908152602001600020600501600081548092919061127a906131e2565b91905055507f0b87910fc6cc852cdcd8b78a462cbe0b279427cc46dd248400a11bc14bdde8c260036000838152602001908152602001600020600501546040516112c49190612dbb565b60405180910390a150565b60006020528060005260406000206000915090508060000154908060010154908060020180546112fe9061317f565b80601f016020809104026020016040519081016040528092919081815260200182805461132a9061317f565b80156113775780601f1061134c57610100808354040283529160200191611377565b820191906000526020600020905b81548152906001019060200180831161135a57829003601f168201915b50505050509080600301805461138c9061317f565b80601f01602080910402602001604051908101604052809291908181526020018280546113b89061317f565b80156114055780601f106113da57610100808354040283529160200191611405565b820191906000526020600020905b8154815290600101906020018083116113e857829003601f168201915b5050505050908060040154908060050154908060060154905087565b606060006005600084815260200190815260200160002080548060200260200160405190810160405280929190818152602001828054801561148257602002820191906000526020600020905b81548152602001906001019080831161146e575b505050505090506000815190506000805b828110156114f6576001600360008684815181106114b4576114b36132f3565b5b602002602001015181526020019081526020016000206006015414156114e35781806114df906131e2565b9250505b80806114ee906131e2565b915050611493565b5060008167ffffffffffffffff81111561151357611512613322565b5b60405190808252806020026020018201604052801561154c57816020015b611539612162565b8152602001906001900390816115315790505b5090506000805b848110156115f757600160036000888481518110611574576115736132f3565b5b602002602001015181526020019081526020016000206006015414156115e4576115b78682815181106115aa576115a96132f3565b5b60200260200101516106e3565b8383815181106115ca576115c96132f3565b5b602002602001018190525081806115e0906131e2565b9250505b80806115ef906131e2565b915050611553565b508195505050505050919050565b600042848460405160200161161c93929190612c42565b6040516020818303038152906040528051906020012060001c905060006040518060e001604052808681526020018581526020018381526020018481526020014281526020016000815260200160018152509050806003600084815260200190815260200160002060008201518160000155602082015181600101556040820151816002015560608201518160030190805190602001906116be9291906120dc565b506080820151816004015560a0820151816005015560c08201518160060155905050600560008681526020019081526020016000208290806001815401808255809150506001900390600052602060002001600090919091909150557f5a1a930fed43f34b3a07db782ebcac28a661c273e662bb98458cfba5a8ccd220826040516117499190612dbb565b60405180910390a15050505050565b600080828152602001908152602001600020600501600081548092919061177e906131e2565b91905055507f666bc1474759f572309589aaab2099f4fa4aec8ef9a66ebc487fef9c7c8b8277600080838152602001908152602001600020600501546040516117c79190612dbb565b60405180910390a150565b60036020528060005260406000206000915090508060000154908060010154908060020154908060030180546118079061317f565b80601f01602080910402602001604051908101604052809291908181526020018280546118339061317f565b80156118805780601f1061185557610100808354040283529160200191611880565b820191906000526020600020905b81548152906001019060200180831161186357829003601f168201915b5050505050908060040154908060050154908060060154905087565b600560205281600052604060002081815481106118b857600080fd5b90600052602060002001600091509150505481565b60004284846040516020016118e493929190612c09565b6040516020818303038152906040528051906020012060001c90506040518060e00160405280828152602001858152602001848152602001838152602001428152602001600081526020016001815250600080838152602001908152602001600020600082015181600001556020820151816001015560408201518160020190805190602001906119769291906120dc565b5060608201518160030190805190602001906119939291906120dc565b506080820151816004015560a0820151816005015560c0820151816006015590505060018190806001815401808255809150506001900390600052602060002001600090919091909150557fd2f22dea2df70804f9e20fc76bff2574c5cde894d91655438c75b0532431e14f81604051611a0d9190612dbb565b60405180910390a150505050565b60018181548110611a2b57600080fd5b906000526020600020016000915090505481565b60606000821415611a87576040518060400160405280600181526020017f30000000000000000000000000000000000000000000000000000000000000008152509050611b9b565b600082905060005b60008214611ab9578080611aa2906131e2565b915050600a82611ab291906130ce565b9150611a8f565b60008167ffffffffffffffff811115611ad557611ad4613322565b5b6040519080825280601f01601f191660200182016040528015611b075781602001600182028036833780820191505090505b5090505b60008514611b9457600182611b2091906130ff565b9150600a85611b2f9190613235565b6030611b3b9190613078565b60f81b818381518110611b5157611b506132f3565b5b60200101907effffffffffffffffffffffffffffffffffffffffffffffffffffffffffffff1916908160001a905350600a85611b8d91906130ce565b9450611b0b565b8093505050505b919050565b6060600060028054905090506000805b82811015611c175760016004600060028481548110611bd257611bd16132f3565b5b90600052602060002001548152602001908152602001600020600601541415611c04578180611c00906131e2565b9250505b8080611c0f906131e2565b915050611bb0565b5060008167ffffffffffffffff811115611c3457611c33613322565b5b604051908082528060200260200182016040528015611c6d57816020015b611c5a6121dc565b815260200190600190039081611c525790505b5090506000805b84811015611d205760016004600060028481548110611c9657611c956132f3565b5b90600052602060002001548152602001908152602001600020600601541415611d0d57611ce060028281548110611cd057611ccf6132f3565b5b9060005260206000200154611d4f565b838381518110611cf357611cf26132f3565b5b60200260200101819052508180611d09906131e2565b9250505b8080611d18906131e2565b915050611c74565b508194505050505090565b60028181548110611d3b57600080fd5b906000526020600020016000915090505481565b611d576121dc565b6000600460008481526020019081526020016000206040518060e001604052908160008201548152602001600182015481526020016002820154815260200160038201548152602001600482018054611daf9061317f565b80601f0160208091040260200160405190810160405280929190818152602001828054611ddb9061317f565b8015611e285780601f10611dfd57610100808354040283529160200191611e28565b820191906000526020600020905b815481529060010190602001808311611e0b57829003601f168201915b5050505050815260200160058201548152602001600682015481525050905060006040518060e00160405280611e618460000151611a3f565b8152602001611e738460200151611a3f565b8152602001611e858460400151611a3f565b8152602001611e978460600151611a3f565b815260200183608001518152602001611eb38460a00151611a3f565b8152602001611ec58460c00151611a3f565b81525090508092505050919050565b60008060008381526020019081526020016000206040518060e00160405290816000820154815260200160018201548152602001600282018054611f179061317f565b80601f0160208091040260200160405190810160405280929190818152602001828054611f439061317f565b8015611f905780601f10611f6557610100808354040283529160200191611f90565b820191906000526020600020905b815481529060010190602001808311611f7357829003601f168201915b50505050508152602001600382018054611fa99061317f565b80601f0160208091040260200160405190810160405280929190818152602001828054611fd59061317f565b80156120225780601f10611ff757610100808354040283529160200191612022565b820191906000526020600020905b81548152906001019060200180831161200557829003601f168201915b505050505081526020016004820154815260200160058201548152602001600682015481525050905060008160c001818152505080600080848152602001908152602001600020600082015181600001556020820151816001015560408201518160020190805190602001906120999291906120dc565b5060608201518160030190805190602001906120b69291906120dc565b506080820151816004015560a0820151816005015560c082015181600601559050505050565b8280546120e89061317f565b90600052602060002090601f01602090048101928261210a5760008555612151565b82601f1061212357805160ff1916838001178555612151565b82800160010185558215612151579182015b82811115612150578251825591602001919060010190612135565b5b50905061215e9190612219565b5090565b6040518060e00160405280606081526020016060815260200160608152602001606081526020016060815260200160608152602001606081525090565b6040518060e00160405280606081526020016060815260200160608152602001606081526020016060815260200160608152602001606081525090565b6040518060e00160405280606081526020016060815260200160608152602001606081526020016060815260200160608152602001606081525090565b5b8082111561223257600081600090555060010161221a565b5090565b600061224961224484612f64565b612f3f565b90508281526020810184848401111561226557612264613356565b5b61227084828561313d565b509392505050565b600082601f83011261228d5761228c613351565b5b813561229d848260208601612236565b91505092915050565b6000813590506122b581613376565b92915050565b6000602082840312156122d1576122d0613360565b5b60006122df848285016122a6565b91505092915050565b600080604083850312156122ff576122fe613360565b5b600061230d858286016122a6565b925050602083013567ffffffffffffffff81111561232e5761232d61335b565b5b61233a85828601612278565b9150509250929050565b60008060006060848603121561235d5761235c613360565b5b600061236b868287016122a6565b935050602084013567ffffffffffffffff81111561238c5761238b61335b565b5b61239886828701612278565b925050604084013567ffffffffffffffff8111156123b9576123b861335b565b5b6123c586828701612278565b9150509250925092565b600080604083850312156123e6576123e5613360565b5b60006123f4858286016122a6565b9250506020612405858286016122a6565b9150509250929050565b60008060006060848603121561242857612427613360565b5b6000612436868287016122a6565b9350506020612447868287016122a6565b925050604084013567ffffffffffffffff8111156124685761246761335b565b5b61247486828701612278565b9150509250925092565b6000806000806080858703121561249857612497613360565b5b60006124a6878288016122a6565b94505060206124b7878288016122a6565b93505060406124c8878288016122a6565b925050606085013567ffffffffffffffff8111156124e9576124e861335b565b5b6124f587828801612278565b91505092959194509250565b600061250d838361273f565b905092915050565b600061252183836128cb565b905092915050565b60006125358383612a57565b905092915050565b600061254882612fc5565b6125528185613018565b93508360208202850161256485612f95565b8060005b858110156125a057848403895281516125818582612501565b945061258c83612ff1565b925060208a01995050600181019050612568565b50829750879550505050505092915050565b60006125bd82612fd0565b6125c78185613029565b9350836020820285016125d985612fa5565b8060005b8581101561261557848403895281516125f68582612515565b945061260183612ffe565b925060208a019950506001810190506125dd565b50829750879550505050505092915050565b600061263282612fdb565b61263c818561303a565b93508360208202850161264e85612fb5565b8060005b8581101561268a578484038952815161266b8582612529565b94506126768361300b565b925060208a01995050600181019050612652565b50829750879550505050505092915050565b60006126a782612fe6565b6126b1818561304b565b93506126c181856020860161314c565b6126ca81613365565b840191505092915050565b60006126e082612fe6565b6126ea818561305c565b93506126fa81856020860161314c565b61270381613365565b840191505092915050565b600061271982612fe6565b612723818561306d565b935061273381856020860161314c565b80840191505092915050565b600060e083016000830151848203600086015261275c828261269c565b91505060208301518482036020860152612776828261269c565b91505060408301518482036040860152612790828261269c565b915050606083015184820360608601526127aa828261269c565b915050608083015184820360808601526127c4828261269c565b91505060a083015184820360a08601526127de828261269c565b91505060c083015184820360c08601526127f8828261269c565b9150508091505092915050565b600060e0830160008301518482036000860152612822828261269c565b9150506020830151848203602086015261283c828261269c565b91505060408301518482036040860152612856828261269c565b91505060608301518482036060860152612870828261269c565b9150506080830151848203608086015261288a828261269c565b91505060a083015184820360a08601526128a4828261269c565b91505060c083015184820360c08601526128be828261269c565b9150508091505092915050565b600060e08301600083015184820360008601526128e8828261269c565b91505060208301518482036020860152612902828261269c565b9150506040830151848203604086015261291c828261269c565b91505060608301518482036060860152612936828261269c565b91505060808301518482036080860152612950828261269c565b91505060a083015184820360a086015261296a828261269c565b91505060c083015184820360c0860152612984828261269c565b9150508091505092915050565b600060e08301600083015184820360008601526129ae828261269c565b915050602083015184820360208601526129c8828261269c565b915050604083015184820360408601526129e2828261269c565b915050606083015184820360608601526129fc828261269c565b91505060808301518482036080860152612a16828261269c565b91505060a083015184820360a0860152612a30828261269c565b91505060c083015184820360c0860152612a4a828261269c565b9150508091505092915050565b600060e0830160008301518482036000860152612a74828261269c565b91505060208301518482036020860152612a8e828261269c565b91505060408301518482036040860152612aa8828261269c565b91505060608301518482036060860152612ac2828261269c565b91505060808301518482036080860152612adc828261269c565b91505060a083015184820360a0860152612af6828261269c565b91505060c083015184820360c0860152612b10828261269c565b9150508091505092915050565b600060e0830160008301518482036000860152612b3a828261269c565b91505060208301518482036020860152612b54828261269c565b91505060408301518482036040860152612b6e828261269c565b91505060608301518482036060860152612b88828261269c565b91505060808301518482036080860152612ba2828261269c565b91505060a083015184820360a0860152612bbc828261269c565b91505060c083015184820360c0860152612bd6828261269c565b9150508091505092915050565b612bec81613133565b82525050565b612c03612bfe82613133565b61322b565b82525050565b6000612c158286612bf2565b602082019150612c258285612bf2565b602082019150612c35828461270e565b9150819050949350505050565b6000612c4e8286612bf2565b602082019150612c5e8285612bf2565b602082019150612c6e8284612bf2565b602082019150819050949350505050565b6000612c8b8287612bf2565b602082019150612c9b8286612bf2565b602082019150612cab8285612bf2565b602082019150612cbb8284612bf2565b60208201915081905095945050505050565b60006020820190508181036000830152612ce7818461253d565b905092915050565b60006020820190508181036000830152612d0981846125b2565b905092915050565b60006020820190508181036000830152612d2b8184612627565b905092915050565b60006020820190508181036000830152612d4d81846126d5565b905092915050565b60006020820190508181036000830152612d6f8184612805565b905092915050565b60006020820190508181036000830152612d918184612991565b905092915050565b60006020820190508181036000830152612db38184612b1d565b905092915050565b6000602082019050612dd06000830184612be3565b92915050565b600060e082019050612deb600083018a612be3565b612df86020830189612be3565b8181036040830152612e0a81886126d5565b90508181036060830152612e1e81876126d5565b9050612e2d6080830186612be3565b612e3a60a0830185612be3565b612e4760c0830184612be3565b98975050505050505050565b600060e082019050612e68600083018a612be3565b612e756020830189612be3565b612e826040830188612be3565b8181036060830152612e9481876126d5565b9050612ea36080830186612be3565b612eb060a0830185612be3565b612ebd60c0830184612be3565b98975050505050505050565b600060e082019050612ede600083018a612be3565b612eeb6020830189612be3565b612ef86040830188612be3565b612f056060830187612be3565b8181036080830152612f1781866126d5565b9050612f2660a0830185612be3565b612f3360c0830184612be3565b98975050505050505050565b6000612f49612f5a565b9050612f5582826131b1565b919050565b6000604051905090565b600067ffffffffffffffff821115612f7f57612f7e613322565b5b612f8882613365565b9050602081019050919050565b6000819050602082019050919050565b6000819050602082019050919050565b6000819050602082019050919050565b600081519050919050565b600081519050919050565b600081519050919050565b600081519050919050565b6000602082019050919050565b6000602082019050919050565b6000602082019050919050565b600082825260208201905092915050565b600082825260208201905092915050565b600082825260208201905092915050565b600082825260208201905092915050565b600082825260208201905092915050565b600081905092915050565b600061308382613133565b915061308e83613133565b9250827fffffffffffffffffffffffffffffffffffffffffffffffffffffffffffffffff038211156130c3576130c2613266565b5b828201905092915050565b60006130d982613133565b91506130e483613133565b9250826130f4576130f3613295565b5b828204905092915050565b600061310a82613133565b915061311583613133565b92508282101561312857613127613266565b5b828203905092915050565b6000819050919050565b82818337600083830152505050565b60005b8381101561316a57808201518184015260208101905061314f565b83811115613179576000848401525b50505050565b6000600282049050600182168061319757607f821691505b602082108114156131ab576131aa6132c4565b5b50919050565b6131ba82613365565b810181811067ffffffffffffffff821117156131d9576131d8613322565b5b80604052505050565b60006131ed82613133565b91507fffffffffffffffffffffffffffffffffffffffffffffffffffffffffffffffff8214156132205761321f613266565b5b600182019050919050565b6000819050919050565b600061324082613133565b915061324b83613133565b92508261325b5761325a613295565b5b828206905092915050565b7f4e487b7100000000000000000000000000000000000000000000000000000000600052601160045260246000fd5b7f4e487b7100000000000000000000000000000000000000000000000000000000600052601260045260246000fd5b7f4e487b7100000000000000000000000000000000000000000000000000000000600052602260045260246000fd5b7f4e487b7100000000000000000000000000000000000000000000000000000000600052603260045260246000fd5b7f4e487b7100000000000000000000000000000000000000000000000000000000600052604160045260246000fd5b600080fd5b600080fd5b600080fd5b600080fd5b6000601f19601f8301169050919050565b61337f81613133565b811461338a57600080fd5b5056fea264697066735822122077f92ba3597967e5a00c28ee2f490d72ee34af37923eb72a1c96ae8b07903d9564736f6c63430008070033",
  "devdoc": {
    "kind": "dev",
    "methods": {},
    "version": 1
  },
  "userdoc": {
    "kind": "user",
    "methods": {},
    "version": 1
  },
  "storageLayout": {
    "storage": [
      {
        "astId": 96,
        "contract": "contracts/ContentInfo.sol:ContentInfo",
        "label": "contentMap",
        "offset": 0,
        "slot": "0",
        "type": "t_mapping(t_uint256,t_struct(Content)16_storage)"
      },
      {
        "astId": 99,
        "contract": "contracts/ContentInfo.sol:ContentInfo",
        "label": "contentIds",
        "offset": 0,
        "slot": "1",
        "type": "t_array(t_uint256)dyn_storage"
      },
      {
        "astId": 102,
        "contract": "contracts/ContentInfo.sol:ContentInfo",
        "label": "complainIds",
        "offset": 0,
        "slot": "2",
        "type": "t_array(t_uint256)dyn_storage"
      },
      {
        "astId": 107,
        "contract": "contracts/ContentInfo.sol:ContentInfo",
        "label": "commentMap",
        "offset": 0,
        "slot": "3",
        "type": "t_mapping(t_uint256,t_struct(Comment)31_storage)"
      },
      {
        "astId": 112,
        "contract": "contracts/ContentInfo.sol:ContentInfo",
        "label": "complainMap",
        "offset": 0,
        "slot": "4",
        "type": "t_mapping(t_uint256,t_struct(Complain)46_storage)"
      },
      {
        "astId": 117,
        "contract": "contracts/ContentInfo.sol:ContentInfo",
        "label": "contentComments",
        "offset": 0,
        "slot": "5",
        "type": "t_mapping(t_uint256,t_array(t_uint256)dyn_storage)"
      }
    ],
    "types": {
      "t_array(t_uint256)dyn_storage": {
        "base": "t_uint256",
        "encoding": "dynamic_array",
        "label": "uint256[]",
        "numberOfBytes": "32"
      },
      "t_mapping(t_uint256,t_array(t_uint256)dyn_storage)": {
        "encoding": "mapping",
        "key": "t_uint256",
        "label": "mapping(uint256 => uint256[])",
        "numberOfBytes": "32",
        "value": "t_array(t_uint256)dyn_storage"
      },
      "t_mapping(t_uint256,t_struct(Comment)31_storage)": {
        "encoding": "mapping",
        "key": "t_uint256",
        "label": "mapping(uint256 => struct ContentInfo.Comment)",
        "numberOfBytes": "32",
        "value": "t_struct(Comment)31_storage"
      },
      "t_mapping(t_uint256,t_struct(Complain)46_storage)": {
        "encoding": "mapping",
        "key": "t_uint256",
        "label": "mapping(uint256 => struct ContentInfo.Complain)",
        "numberOfBytes": "32",
        "value": "t_struct(Complain)46_storage"
      },
      "t_mapping(t_uint256,t_struct(Content)16_storage)": {
        "encoding": "mapping",
        "key": "t_uint256",
        "label": "mapping(uint256 => struct ContentInfo.Content)",
        "numberOfBytes": "32",
        "value": "t_struct(Content)16_storage"
      },
      "t_string_storage": {
        "encoding": "bytes",
        "label": "string",
        "numberOfBytes": "32"
      },
      "t_struct(Comment)31_storage": {
        "encoding": "inplace",
        "label": "struct ContentInfo.Comment",
        "members": [
          {
            "astId": 18,
            "contract": "contracts/ContentInfo.sol:ContentInfo",
            "label": "contentId",
            "offset": 0,
            "slot": "0",
            "type": "t_uint256"
          },
          {
            "astId": 20,
            "contract": "contracts/ContentInfo.sol:ContentInfo",
            "label": "userId",
            "offset": 0,
            "slot": "1",
            "type": "t_uint256"
          },
          {
            "astId": 22,
            "contract": "contracts/ContentInfo.sol:ContentInfo",
            "label": "commentId",
            "offset": 0,
            "slot": "2",
            "type": "t_uint256"
          },
          {
            "astId": 24,
            "contract": "contracts/ContentInfo.sol:ContentInfo",
            "label": "comment",
            "offset": 0,
            "slot": "3",
            "type": "t_string_storage"
          },
          {
            "astId": 26,
            "contract": "contracts/ContentInfo.sol:ContentInfo",
            "label": "updateTime",
            "offset": 0,
            "slot": "4",
            "type": "t_uint256"
          },
          {
            "astId": 28,
            "contract": "contracts/ContentInfo.sol:ContentInfo",
            "label": "praiseCount",
            "offset": 0,
            "slot": "5",
            "type": "t_uint256"
          },
          {
            "astId": 30,
            "contract": "contracts/ContentInfo.sol:ContentInfo",
            "label": "commentState",
            "offset": 0,
            "slot": "6",
            "type": "t_uint256"
          }
        ],
        "numberOfBytes": "224"
      },
      "t_struct(Complain)46_storage": {
        "encoding": "inplace",
        "label": "struct ContentInfo.Complain",
        "members": [
          {
            "astId": 33,
            "contract": "contracts/ContentInfo.sol:ContentInfo",
            "label": "complaintId",
            "offset": 0,
            "slot": "0",
            "type": "t_uint256"
          },
          {
            "astId": 35,
            "contract": "contracts/ContentInfo.sol:ContentInfo",
            "label": "contentId",
            "offset": 0,
            "slot": "1",
            "type": "t_uint256"
          },
          {
            "astId": 37,
            "contract": "contracts/ContentInfo.sol:ContentInfo",
            "label": "userId",
            "offset": 0,
            "slot": "2",
            "type": "t_uint256"
          },
          {
            "astId": 39,
            "contract": "contracts/ContentInfo.sol:ContentInfo",
            "label": "commentId",
            "offset": 0,
            "slot": "3",
            "type": "t_uint256"
          },
          {
            "astId": 41,
            "contract": "contracts/ContentInfo.sol:ContentInfo",
            "label": "content",
            "offset": 0,
            "slot": "4",
            "type": "t_string_storage"
          },
          {
            "astId": 43,
            "contract": "contracts/ContentInfo.sol:ContentInfo",
            "label": "updateTime",
            "offset": 0,
            "slot": "5",
            "type": "t_uint256"
          },
          {
            "astId": 45,
            "contract": "contracts/ContentInfo.sol:ContentInfo",
            "label": "complainState",
            "offset": 0,
            "slot": "6",
            "type": "t_uint256"
          }
        ],
        "numberOfBytes": "224"
      },
      "t_struct(Content)16_storage": {
        "encoding": "inplace",
        "label": "struct ContentInfo.Content",
        "members": [
          {
            "astId": 3,
            "contract": "contracts/ContentInfo.sol:ContentInfo",
            "label": "contentId",
            "offset": 0,
            "slot": "0",
            "type": "t_uint256"
          },
          {
            "astId": 5,
            "contract": "contracts/ContentInfo.sol:ContentInfo",
            "label": "userId",
            "offset": 0,
            "slot": "1",
            "type": "t_uint256"
          },
          {
            "astId": 7,
            "contract": "contracts/ContentInfo.sol:ContentInfo",
            "label": "title",
            "offset": 0,
            "slot": "2",
            "type": "t_string_storage"
          },
          {
            "astId": 9,
            "contract": "contracts/ContentInfo.sol:ContentInfo",
            "label": "content",
            "offset": 0,
            "slot": "3",
            "type": "t_string_storage"
          },
          {
            "astId": 11,
            "contract": "contracts/ContentInfo.sol:ContentInfo",
            "label": "updateTime",
            "offset": 0,
            "slot": "4",
            "type": "t_uint256"
          },
          {
            "astId": 13,
            "contract": "contracts/ContentInfo.sol:ContentInfo",
            "label": "praiseCount",
            "offset": 0,
            "slot": "5",
            "type": "t_uint256"
          },
          {
            "astId": 15,
            "contract": "contracts/ContentInfo.sol:ContentInfo",
            "label": "contentState",
            "offset": 0,
            "slot": "6",
            "type": "t_uint256"
          }
        ],
        "numberOfBytes": "224"
      },
      "t_uint256": {
        "encoding": "inplace",
        "label": "uint256",
        "numberOfBytes": "32"
      }
    }
  }
}