{
  "address": "0xCf7Ed3AccA5a467e9e704C703E8D87F634fB0Fc9",
  "abi": [
    {
      "inputs": [
        {
          "internalType": "address",
          "name": "_userInfoAddress",
          "type": "address"
        },
        {
          "internalType": "address",
          "name": "_contentInfoAddress",
          "type": "address"
        },
        {
          "internalType": "address",
          "name": "_tokenInfoAddress",
          "type": "address"
        }
      ],
      "stateMutability": "nonpayable",
      "type": "constructor"
    },
    {
      "inputs": [],
      "name": "contentInfo",
      "outputs": [
        {
          "internalType": "contract ContentInfo",
          "name": "",
          "type": "address"
        }
      ],
      "stateMutability": "view",
      "type": "function"
    },
    {
      "inputs": [
        {
          "internalType": "uint256",
          "name": "commentId",
          "type": "uint256"
        }
      ],
      "name": "deleteComment",
      "outputs": [],
      "stateMutability": "nonpayable",
      "type": "function"
    },
    {
      "inputs": [
        {
          "internalType": "uint256",
          "name": "complainId",
          "type": "uint256"
        }
      ],
      "name": "deleteComplain",
      "outputs": [],
      "stateMutability": "nonpayable",
      "type": "function"
    },
    {
      "inputs": [
        {
          "internalType": "uint256",
          "name": "contentId",
          "type": "uint256"
        }
      ],
      "name": "deleteContent",
      "outputs": [],
      "stateMutability": "nonpayable",
      "type": "function"
    },
    {
      "inputs": [],
      "name": "getCommitMembers",
      "outputs": [
        {
          "internalType": "string[]",
          "name": "",
          "type": "string[]"
        }
      ],
      "stateMutability": "nonpayable",
      "type": "function"
    },
    {
      "inputs": [
        {
          "internalType": "uint256",
          "name": "count",
          "type": "uint256"
        }
      ],
      "name": "getTopAssetUsers",
      "outputs": [
        {
          "internalType": "uint256[]",
          "name": "",
          "type": "uint256[]"
        }
      ],
      "stateMutability": "nonpayable",
      "type": "function"
    },
    {
      "inputs": [
        {
          "internalType": "uint256",
          "name": "_complaintId",
          "type": "uint256"
        }
      ],
      "name": "getVoteResults",
      "outputs": [
        {
          "internalType": "string",
          "name": "",
          "type": "string"
        }
      ],
      "stateMutability": "view",
      "type": "function"
    },
    {
      "inputs": [
        {
          "internalType": "uint256",
          "name": "userId",
          "type": "uint256"
        }
      ],
      "name": "isCommitteeMember",
      "outputs": [
        {
          "internalType": "bool",
          "name": "",
          "type": "bool"
        }
      ],
      "stateMutability": "view",
      "type": "function"
    },
    {
      "inputs": [
        {
          "internalType": "uint256",
          "name": "userId",
          "type": "uint256"
        },
        {
          "internalType": "uint256",
          "name": "complainId",
          "type": "uint256"
        },
        {
          "internalType": "uint256",
          "name": "isVote",
          "type": "uint256"
        }
      ],
      "name": "makeVote",
      "outputs": [],
      "stateMutability": "nonpayable",
      "type": "function"
    },
    {
      "inputs": [],
      "name": "returnCommitMembers",
      "outputs": [
        {
          "internalType": "string[]",
          "name": "",
          "type": "string[]"
        }
      ],
      "stateMutability": "view",
      "type": "function"
    },
    {
      "inputs": [],
      "name": "tokenInfo",
      "outputs": [
        {
          "internalType": "contract TokenERC20",
          "name": "",
          "type": "address"
        }
      ],
      "stateMutability": "view",
      "type": "function"
    },
    {
      "inputs": [
        {
          "internalType": "uint256",
          "name": "value",
          "type": "uint256"
        }
      ],
      "name": "uint256ToString",
      "outputs": [
        {
          "internalType": "string",
          "name": "",
          "type": "string"
        }
      ],
      "stateMutability": "pure",
      "type": "function"
    },
    {
      "inputs": [],
      "name": "userInfo",
      "outputs": [
        {
          "internalType": "contract UserInfo",
          "name": "",
          "type": "address"
        }
      ],
      "stateMutability": "view",
      "type": "function"
    }
  ],
  "transactionHash": "0x3a944b990cacd6a5cabbac4619f937b8c136b477a64bd36f88b42ac75169dcd7",
  "args": [
    "0x5FbDB2315678afecb367f032d93F642f64180aa3",
    "0xe7f1725E7734CE288F8367e1Bb143E90bb3F0512",
    "0x9fE46736679d2D9a65F0992F2272dE9f3c7fa6e0"
  ],
  "numDeployments": 1,
  "solcInputHash": "7d8474b8c1ac254c152e9cf6e6bd4150",
  "bytecode": "0x60806040523480156200001157600080fd5b5060405162001fa338038062001fa3833981810160405281019062000037919062000119565b826000806101000a81548173ffffffffffffffffffffffffffffffffffffffff021916908373ffffffffffffffffffffffffffffffffffffffff16021790555081600160006101000a81548173ffffffffffffffffffffffffffffffffffffffff021916908373ffffffffffffffffffffffffffffffffffffffff16021790555080600260006101000a81548173ffffffffffffffffffffffffffffffffffffffff021916908373ffffffffffffffffffffffffffffffffffffffff160217905550505050620001c8565b6000815190506200011381620001ae565b92915050565b600080600060608486031215620001355762000134620001a9565b5b6000620001458682870162000102565b9350506020620001588682870162000102565b92505060406200016b8682870162000102565b9150509250925092565b6000620001828262000189565b9050919050565b600073ffffffffffffffffffffffffffffffffffffffff82169050919050565b600080fd5b620001b98162000175565b8114620001c557600080fd5b50565b611dcb80620001d86000396000f3fe608060405234801561001057600080fd5b50600436106100cf5760003560e01c80636addb6631161008c578063a88922b311610066578063a88922b314610200578063ca1f1de014610230578063ce7e51e31461024e578063fed216cb1461027e576100cf565b80636addb663146101aa5780637d0b1026146101c857806398dcad61146101e4576100cf565b8063100e0382146100d45780632e2e29fa146100f25780633e0b04ed1461010e57806343a6f4ee1461013e5780634b9272db1461015c57806365d051a81461017a575b600080fd5b6100dc61029a565b6040516100e991906117dc565b60405180910390f35b61010c600480360381019061010791906114b8565b6102c0565b005b610128600480360381019061012391906114b8565b610350565b60405161013591906117c1565b60405180910390f35b6101466103b3565b6040516101539190611812565b60405180910390f35b6101646103d7565b604051610171919061177d565b60405180910390f35b610194600480360381019061018f91906114b8565b61049c565b6040516101a1919061179f565b60405180910390f35b6101b261097c565b6040516101bf91906117f7565b60405180910390f35b6101e260048036038101906101dd91906114b8565b6109a2565b005b6101fe60048036038101906101f99190611512565b610a32565b005b61021a600480360381019061021591906114b8565b610ab4565b604051610227919061182d565b60405180910390f35b610238610bc0565b604051610245919061177d565b60405180910390f35b610268600480360381019061026391906114b8565b610d48565b604051610275919061182d565b60405180910390f35b610298600480360381019061029391906114b8565b610ea9565b005b600160009054906101000a900473ffffffffffffffffffffffffffffffffffffffff1681565b600160009054906101000a900473ffffffffffffffffffffffffffffffffffffffff1673ffffffffffffffffffffffffffffffffffffffff16632e2e29fa826040518263ffffffff1660e01b815260040161031b919061184f565b600060405180830381600087803b15801561033557600080fd5b505af1158015610349573d6000803e3d6000fd5b5050505050565b600080600090505b6003805490508110156103a857826003828154811061037a57610379611cac565b5b906000526020600020015414156103955760019150506103ae565b80806103a090611bd4565b915050610358565b50600090505b919050565b60008054906101000a900473ffffffffffffffffffffffffffffffffffffffff1681565b60606000600367ffffffffffffffff8111156103f6576103f5611cdb565b5b60405190808252806020026020018201604052801561042957816020015b60608152602001906001900390816104145790505b50905060005b600380549050811015610494576104636003828154811061045357610452611cac565b5b9060005260206000200154610d48565b82828151811061047657610475611cac565b5b6020026020010181905250808061048c90611bd4565b91505061042f565b508091505090565b606060008060009054906101000a900473ffffffffffffffffffffffffffffffffffffffff1673ffffffffffffffffffffffffffffffffffffffff1663d712bcb26040518163ffffffff1660e01b815260040160006040518083038186803b15801561050757600080fd5b505afa15801561051b573d6000803e3d6000fd5b505050506040513d6000823e3d601f19601f820116820180604052508101906105449190611426565b90506000815167ffffffffffffffff81111561056357610562611cdb565b5b6040519080825280602002602001820160405280156105915781602001602082028036833780820191505090505b50905060005b825181101561074857600260009054906101000a900473ffffffffffffffffffffffffffffffffffffffff1673ffffffffffffffffffffffffffffffffffffffff1663f8b2cb4f60008054906101000a900473ffffffffffffffffffffffffffffffffffffffff1673ffffffffffffffffffffffffffffffffffffffff1663d379dadf86858151811061062d5761062c611cac565b5b60200260200101516040518263ffffffff1660e01b8152600401610651919061184f565b60006040518083038186803b15801561066957600080fd5b505afa15801561067d573d6000803e3d6000fd5b505050506040513d6000823e3d601f19601f820116820180604052508101906106a6919061146f565b600001516040518263ffffffff1660e01b81526004016106c69190611762565b60206040518083038186803b1580156106de57600080fd5b505afa1580156106f2573d6000803e3d6000fd5b505050506040513d601f19601f8201168201806040525081019061071691906114e5565b82828151811061072957610728611cac565b5b602002602001018181525050808061074090611bd4565b915050610597565b5060008467ffffffffffffffff81111561076557610764611cdb565b5b6040519080825280602002602001820160405280156107935781602001602082028036833780820191505090505b50905060008567ffffffffffffffff8111156107b2576107b1611cdb565b5b6040519080825280602002602001820160405280156107e05781602001602082028036833780820191505090505b50905060005b86811080156107f55750845181105b1561088c5784818151811061080d5761080c611cac565b5b602002602001015183828151811061082857610827611cac565b5b60200260200101818152505083818151811061084757610846611cac565b5b602002602001015182828151811061086257610861611cac565b5b602002602001018181525050610879828483610f39565b808061088490611bd4565b9150506107e6565b5060008690505b845181101561096f57816000815181106108b0576108af611cac565b5b60200260200101518482815181106108cb576108ca611cac565b5b6020026020010151111561095c578381815181106108ec576108eb611cac565b5b60200260200101518260008151811061090857610907611cac565b5b60200260200101818152505084818151811061092757610926611cac565b5b60200260200101518360008151811061094357610942611cac565b5b60200260200101818152505061095b82846000610f39565b5b808061096790611bd4565b915050610893565b5081945050505050919050565b600260009054906101000a900473ffffffffffffffffffffffffffffffffffffffff1681565b600160009054906101000a900473ffffffffffffffffffffffffffffffffffffffff1673ffffffffffffffffffffffffffffffffffffffff16637d0b1026826040518263ffffffff1660e01b81526004016109fd919061184f565b600060405180830381600087803b158015610a1757600080fd5b505af1158015610a2b573d6000803e3d6000fd5b5050505050565b6000604051806060016040528085815260200184815260200183815250905060046000848152602001908152602001600020819080600181540180825580915050600190039060005260206000209060030201600090919091909150600082015181600001556020820151816001015560408201518160020155505050505050565b6060600080600060046000868152602001908152602001600020805480602002602001604051908101604052809291908181526020016000905b82821015610b3e5783829060005260206000209060030201604051806060016040529081600082015481526020016001820154815260200160028201548152505081526020019060010190610aee565b50505050905060005b8151811015610bac576001828281518110610b6557610b64611cac565b5b6020026020010151604001511415610b8a578380610b8290611bd4565b945050610b99565b8280610b9590611bd4565b9350505b8080610ba490611bd4565b915050610b47565b50610bb683610d48565b9350505050919050565b60606000610bce600361049c565b90506000600367ffffffffffffffff811115610bed57610bec611cdb565b5b604051908082528060200260200182016040528015610c2057816020015b6060815260200190600190039081610c0b5790505b50905060005b8251811015610d285760008054906101000a900473ffffffffffffffffffffffffffffffffffffffff1673ffffffffffffffffffffffffffffffffffffffff166306bda852848381518110610c7e57610c7d611cac565b5b60200260200101516040518263ffffffff1660e01b8152600401610ca2919061186a565b600060405180830381600087803b158015610cbc57600080fd5b505af1158015610cd0573d6000803e3d6000fd5b50505050610cf7838281518110610cea57610ce9611cac565b5b6020026020010151610d48565b828281518110610d0a57610d09611cac565b5b60200260200101819052508080610d2090611bd4565b915050610c26565b508160039080519060200190610d3f929190611113565b50809250505090565b60606000821415610d90576040518060400160405280600181526020017f30000000000000000000000000000000000000000000000000000000000000008152509050610ea4565b600082905060005b60008214610dc2578080610dab90611bd4565b915050600a82610dbb9190611a0f565b9150610d98565b60008167ffffffffffffffff811115610dde57610ddd611cdb565b5b6040519080825280601f01601f191660200182016040528015610e105781602001600182028036833780820191505090505b5090505b60008514610e9d57600182610e299190611a9a565b9150600a85610e389190611c1d565b6030610e4491906119b9565b60f81b818381518110610e5a57610e59611cac565b5b60200101907effffffffffffffffffffffffffffffffffffffffffffffffffffffffffffff1916908160001a905350600a85610e969190611a0f565b9450610e14565b8093505050505b919050565b600160009054906101000a900473ffffffffffffffffffffffffffffffffffffffff1673ffffffffffffffffffffffffffffffffffffffff1663fed216cb826040518263ffffffff1660e01b8152600401610f04919061184f565b600060405180830381600087803b158015610f1e57600080fd5b505af1158015610f32573d6000803e3d6000fd5b5050505050565b600081905060006001836002610f4f9190611a40565b610f5991906119b9565b905060006002846002610f6c9190611a40565b610f7691906119b9565b9050855182108015610fbb5750858381518110610f9657610f95611cac565b5b6020026020010151868381518110610fb157610fb0611cac565b5b6020026020010151115b15610fc4578192505b8551811080156110075750858381518110610fe257610fe1611cac565b5b6020026020010151868281518110610ffd57610ffc611cac565b5b6020026020010151115b15611010578092505b83831461110b5785838151811061102a57611029611cac565b5b602002602001015186858151811061104557611044611cac565b5b60200260200101518786815181106110605761105f611cac565b5b6020026020010188868151811061107a57611079611cac565b5b602002602001018281525082815250505084838151811061109e5761109d611cac565b5b60200260200101518585815181106110b9576110b8611cac565b5b60200260200101518686815181106110d4576110d3611cac565b5b602002602001018786815181106110ee576110ed611cac565b5b602002602001018281525082815250505061110a868685610f39565b5b505050505050565b82805482825590600052602060002090810192821561114f579160200282015b8281111561114e578251825591602001919060010190611133565b5b50905061115c9190611160565b5090565b5b80821115611179576000816000905550600101611161565b5090565b600061119061118b846118bd565b611898565b905080838252602082019050828560208602820111156111b3576111b2611d19565b5b60005b858110156111e357816111c98882611411565b8452602084019350602083019250506001810190506111b6565b5050509392505050565b60006112006111fb846118e9565b611898565b90508281526020810184848401111561121c5761121b611d1e565b5b611227848285611b70565b509392505050565b60008151905061123e81611d67565b92915050565b600082601f83011261125957611258611d0a565b5b815161126984826020860161117d565b91505092915050565b600082601f83011261128757611286611d0a565b5b81516112978482602086016111ed565b91505092915050565b600060e082840312156112b6576112b5611d0f565b5b6112c060e0611898565b905060006112d08482850161122f565b600083015250602082015167ffffffffffffffff8111156112f4576112f3611d14565b5b61130084828501611272565b602083015250604082015167ffffffffffffffff81111561132457611323611d14565b5b61133084828501611272565b604083015250606082015167ffffffffffffffff81111561135457611353611d14565b5b61136084828501611272565b606083015250608082015167ffffffffffffffff81111561138457611383611d14565b5b61139084828501611272565b60808301525060a082015167ffffffffffffffff8111156113b4576113b3611d14565b5b6113c084828501611272565b60a08301525060c082015167ffffffffffffffff8111156113e4576113e3611d14565b5b6113f084828501611272565b60c08301525092915050565b60008135905061140b81611d7e565b92915050565b60008151905061142081611d7e565b92915050565b60006020828403121561143c5761143b611d28565b5b600082015167ffffffffffffffff81111561145a57611459611d23565b5b61146684828501611244565b91505092915050565b60006020828403121561148557611484611d28565b5b600082015167ffffffffffffffff8111156114a3576114a2611d23565b5b6114af848285016112a0565b91505092915050565b6000602082840312156114ce576114cd611d28565b5b60006114dc848285016113fc565b91505092915050565b6000602082840312156114fb576114fa611d28565b5b600061150984828501611411565b91505092915050565b60008060006060848603121561152b5761152a611d28565b5b6000611539868287016113fc565b935050602061154a868287016113fc565b925050604061155b868287016113fc565b9150509250925092565b600061157183836116af565b905092915050565b60006115858383611744565b60208301905092915050565b61159a81611ace565b82525050565b60006115ab8261193a565b6115b58185611975565b9350836020820285016115c78561191a565b8060005b8581101561160357848403895281516115e48582611565565b94506115ef8361195b565b925060208a019950506001810190506115cb565b50829750879550505050505092915050565b600061162082611945565b61162a8185611986565b93506116358361192a565b8060005b8381101561166657815161164d8882611579565b975061165883611968565b925050600181019050611639565b5085935050505092915050565b61167c81611ae0565b82525050565b61168b81611b16565b82525050565b61169a81611b28565b82525050565b6116a981611b3a565b82525050565b60006116ba82611950565b6116c48185611997565b93506116d4818560208601611b70565b6116dd81611d2d565b840191505092915050565b60006116f382611950565b6116fd81856119a8565b935061170d818560208601611b70565b61171681611d2d565b840191505092915050565b600061172e6001836119a8565b915061173982611d3e565b602082019050919050565b61174d81611b0c565b82525050565b61175c81611b0c565b82525050565b60006020820190506117776000830184611591565b92915050565b6000602082019050818103600083015261179781846115a0565b905092915050565b600060208201905081810360008301526117b98184611615565b905092915050565b60006020820190506117d66000830184611673565b92915050565b60006020820190506117f16000830184611682565b92915050565b600060208201905061180c6000830184611691565b92915050565b600060208201905061182760008301846116a0565b92915050565b6000602082019050818103600083015261184781846116e8565b905092915050565b60006020820190506118646000830184611753565b92915050565b600060408201905061187f6000830184611753565b818103602083015261189081611721565b905092915050565b60006118a26118b3565b90506118ae8282611ba3565b919050565b6000604051905090565b600067ffffffffffffffff8211156118d8576118d7611cdb565b5b602082029050602081019050919050565b600067ffffffffffffffff82111561190457611903611cdb565b5b61190d82611d2d565b9050602081019050919050565b6000819050602082019050919050565b6000819050602082019050919050565b600081519050919050565b600081519050919050565b600081519050919050565b6000602082019050919050565b6000602082019050919050565b600082825260208201905092915050565b600082825260208201905092915050565b600082825260208201905092915050565b600082825260208201905092915050565b60006119c482611b0c565b91506119cf83611b0c565b9250827fffffffffffffffffffffffffffffffffffffffffffffffffffffffffffffffff03821115611a0457611a03611c4e565b5b828201905092915050565b6000611a1a82611b0c565b9150611a2583611b0c565b925082611a3557611a34611c7d565b5b828204905092915050565b6000611a4b82611b0c565b9150611a5683611b0c565b9250817fffffffffffffffffffffffffffffffffffffffffffffffffffffffffffffffff0483118215151615611a8f57611a8e611c4e565b5b828202905092915050565b6000611aa582611b0c565b9150611ab083611b0c565b925082821015611ac357611ac2611c4e565b5b828203905092915050565b6000611ad982611aec565b9050919050565b60008115159050919050565b600073ffffffffffffffffffffffffffffffffffffffff82169050919050565b6000819050919050565b6000611b2182611b4c565b9050919050565b6000611b3382611b4c565b9050919050565b6000611b4582611b4c565b9050919050565b6000611b5782611b5e565b9050919050565b6000611b6982611aec565b9050919050565b60005b83811015611b8e578082015181840152602081019050611b73565b83811115611b9d576000848401525b50505050565b611bac82611d2d565b810181811067ffffffffffffffff82111715611bcb57611bca611cdb565b5b80604052505050565b6000611bdf82611b0c565b91507fffffffffffffffffffffffffffffffffffffffffffffffffffffffffffffffff821415611c1257611c11611c4e565b5b600182019050919050565b6000611c2882611b0c565b9150611c3383611b0c565b925082611c4357611c42611c7d565b5b828206905092915050565b7f4e487b7100000000000000000000000000000000000000000000000000000000600052601160045260246000fd5b7f4e487b7100000000000000000000000000000000000000000000000000000000600052601260045260246000fd5b7f4e487b7100000000000000000000000000000000000000000000000000000000600052603260045260246000fd5b7f4e487b7100000000000000000000000000000000000000000000000000000000600052604160045260246000fd5b600080fd5b600080fd5b600080fd5b600080fd5b600080fd5b600080fd5b600080fd5b6000601f19601f8301169050919050565b7f3100000000000000000000000000000000000000000000000000000000000000600082015250565b611d7081611ace565b8114611d7b57600080fd5b50565b611d8781611b0c565b8114611d9257600080fd5b5056fea2646970667358221220af2a07b48fff3898bc98601360188592c71cd4b91f5341271c07a3373e54980464736f6c63430008070033",
  "devdoc": {
    "kind": "dev",
    "methods": {},
    "version": 1
  },
  "userdoc": {
    "kind": "user",
    "methods": {},
    "version": 1
  },
  "storageLayout": {
    "storage": [
      {
        "astId": 1014,
        "contract": "contracts/ManageInfo.sol:ManageInfo",
        "label": "userInfo",
        "offset": 0,
        "slot": "0",
        "type": "t_contract(UserInfo)2556"
      },
      {
        "astId": 1017,
        "contract": "contracts/ManageInfo.sol:ManageInfo",
        "label": "contentInfo",
        "offset": 0,
        "slot": "1",
        "type": "t_contract(ContentInfo)1006"
      },
      {
        "astId": 1020,
        "contract": "contracts/ManageInfo.sol:ManageInfo",
        "label": "tokenInfo",
        "offset": 0,
        "slot": "2",
        "type": "t_contract(TokenERC20)2249"
      },
      {
        "astId": 1030,
        "contract": "contracts/ManageInfo.sol:ManageInfo",
        "label": "commitMember",
        "offset": 0,
        "slot": "3",
        "type": "t_array(t_uint256)dyn_storage"
      },
      {
        "astId": 1036,
        "contract": "contracts/ManageInfo.sol:ManageInfo",
        "label": "complainVotesMap",
        "offset": 0,
        "slot": "4",
        "type": "t_mapping(t_uint256,t_array(t_struct(Vote)1027_storage)dyn_storage)"
      }
    ],
    "types": {
      "t_array(t_struct(Vote)1027_storage)dyn_storage": {
        "base": "t_struct(Vote)1027_storage",
        "encoding": "dynamic_array",
        "label": "struct ManageInfo.Vote[]",
        "numberOfBytes": "32"
      },
      "t_array(t_uint256)dyn_storage": {
        "base": "t_uint256",
        "encoding": "dynamic_array",
        "label": "uint256[]",
        "numberOfBytes": "32"
      },
      "t_contract(ContentInfo)1006": {
        "encoding": "inplace",
        "label": "contract ContentInfo",
        "numberOfBytes": "20"
      },
      "t_contract(TokenERC20)2249": {
        "encoding": "inplace",
        "label": "contract TokenERC20",
        "numberOfBytes": "20"
      },
      "t_contract(UserInfo)2556": {
        "encoding": "inplace",
        "label": "contract UserInfo",
        "numberOfBytes": "20"
      },
      "t_mapping(t_uint256,t_array(t_struct(Vote)1027_storage)dyn_storage)": {
        "encoding": "mapping",
        "key": "t_uint256",
        "label": "mapping(uint256 => struct ManageInfo.Vote[])",
        "numberOfBytes": "32",
        "value": "t_array(t_struct(Vote)1027_storage)dyn_storage"
      },
      "t_struct(Vote)1027_storage": {
        "encoding": "inplace",
        "label": "struct ManageInfo.Vote",
        "members": [
          {
            "astId": 1022,
            "contract": "contracts/ManageInfo.sol:ManageInfo",
            "label": "voter",
            "offset": 0,
            "slot": "0",
            "type": "t_uint256"
          },
          {
            "astId": 1024,
            "contract": "contracts/ManageInfo.sol:ManageInfo",
            "label": "complaintId",
            "offset": 0,
            "slot": "1",
            "type": "t_uint256"
          },
          {
            "astId": 1026,
            "contract": "contracts/ManageInfo.sol:ManageInfo",
            "label": "inSupport",
            "offset": 0,
            "slot": "2",
            "type": "t_uint256"
          }
        ],
        "numberOfBytes": "96"
      },
      "t_uint256": {
        "encoding": "inplace",
        "label": "uint256",
        "numberOfBytes": "32"
      }
    }
  }
}