{
  "address": "0x5FbDB2315678afecb367f032d93F642f64180aa3",
  "abi": [
    {
      "anonymous": false,
      "inputs": [
        {
          "indexed": false,
          "internalType": "uint256",
          "name": "userId",
          "type": "uint256"
        }
      ],
      "name": "UserRegistered",
      "type": "event"
    },
    {
      "inputs": [
        {
          "internalType": "uint256",
          "name": "_userId",
          "type": "uint256"
        },
        {
          "internalType": "string",
          "name": "_role",
          "type": "string"
        }
      ],
      "name": "changeUserRole",
      "outputs": [],
      "stateMutability": "nonpayable",
      "type": "function"
    },
    {
      "inputs": [
        {
          "internalType": "string",
          "name": "_userName",
          "type": "string"
        },
        {
          "internalType": "string",
          "name": "_pwd",
          "type": "string"
        },
        {
          "internalType": "address",
          "name": "_userAddress",
          "type": "address"
        }
      ],
      "name": "createUser",
      "outputs": [],
      "stateMutability": "nonpayable",
      "type": "function"
    },
    {
      "inputs": [
        {
          "internalType": "uint256",
          "name": "_userId",
          "type": "uint256"
        }
      ],
      "name": "getUserInfo",
      "outputs": [
        {
          "components": [
            {
              "internalType": "address",
              "name": "userAddress",
              "type": "address"
            },
            {
              "internalType": "string",
              "name": "userId",
              "type": "string"
            },
            {
              "internalType": "string",
              "name": "userName",
              "type": "string"
            },
            {
              "internalType": "string",
              "name": "pwd",
              "type": "string"
            },
            {
              "internalType": "string",
              "name": "role",
              "type": "string"
            },
            {
              "internalType": "string",
              "name": "assert",
              "type": "string"
            }
          ],
          "internalType": "struct UserInfo.ReturnUser",
          "name": "",
          "type": "tuple"
        }
      ],
      "stateMutability": "view",
      "type": "function"
    },
    {
      "inputs": [
        {
          "internalType": "uint256",
          "name": "_userId",
          "type": "uint256"
        },
        {
          "internalType": "string",
          "name": "_pwd",
          "type": "string"
        }
      ],
      "name": "loginUser",
      "outputs": [
        {
          "internalType": "bool",
          "name": "",
          "type": "bool"
        }
      ],
      "stateMutability": "view",
      "type": "function"
    },
    {
      "inputs": [
        {
          "internalType": "uint256",
          "name": "",
          "type": "uint256"
        }
      ],
      "name": "registeredUserAddresses",
      "outputs": [
        {
          "internalType": "address",
          "name": "",
          "type": "address"
        }
      ],
      "stateMutability": "view",
      "type": "function"
    },
    {
      "inputs": [
        {
          "internalType": "uint256",
          "name": "value",
          "type": "uint256"
        }
      ],
      "name": "uint256ToString",
      "outputs": [
        {
          "internalType": "string",
          "name": "",
          "type": "string"
        }
      ],
      "stateMutability": "pure",
      "type": "function"
    },
    {
      "inputs": [
        {
          "internalType": "address",
          "name": "userAddress",
          "type": "address"
        },
        {
          "internalType": "uint256",
          "name": "userId",
          "type": "uint256"
        },
        {
          "internalType": "string",
          "name": "userName",
          "type": "string"
        },
        {
          "internalType": "string",
          "name": "pwd",
          "type": "string"
        },
        {
          "internalType": "string",
          "name": "role",
          "type": "string"
        },
        {
          "internalType": "uint256",
          "name": "assertUpdate",
          "type": "uint256"
        }
      ],
      "name": "updateUserInfo",
      "outputs": [],
      "stateMutability": "nonpayable",
      "type": "function"
    },
    {
      "inputs": [
        {
          "internalType": "uint256",
          "name": "",
          "type": "uint256"
        }
      ],
      "name": "userMap",
      "outputs": [
        {
          "internalType": "address",
          "name": "userAddress",
          "type": "address"
        },
        {
          "internalType": "uint256",
          "name": "userId",
          "type": "uint256"
        },
        {
          "internalType": "string",
          "name": "userName",
          "type": "string"
        },
        {
          "internalType": "string",
          "name": "pwd",
          "type": "string"
        },
        {
          "internalType": "string",
          "name": "role",
          "type": "string"
        },
        {
          "internalType": "uint256",
          "name": "assert",
          "type": "uint256"
        }
      ],
      "stateMutability": "view",
      "type": "function"
    }
  ],
  "transactionHash": "0x6a1a53494fc6777cd3fa6368a914019740f1ec75f27010013b4acababcaed69c",
  "args": [],
  "numDeployments": 1,
  "solcInputHash": "9198d2609d17b7c2db60eba3971ca80a",
  "bytecode": "0x608060405234801561001057600080fd5b50611731806100206000396000f3fe608060405234801561001057600080fd5b50600436106100885760003560e01c8063b5ca25411161005b578063b5ca254114610125578063be8c225114610141578063ce7e51e314610176578063d379dadf146101a657610088565b806306bda8521461008d5780630ab468c0146100a95780632365dce2146100c5578063b2cb7a59146100f5575b600080fd5b6100a760048036038101906100a29190610f17565b6101d6565b005b6100c360048036038101906100be9190610d7e565b610204565b005b6100df60048036038101906100da9190610eea565b61031c565b6040516100ec91906111e3565b60405180910390f35b61010f600480360381019061010a9190610f17565b61035b565b60405161011c9190611274565b60405180910390f35b61013f600480360381019061013a9190610e5f565b6103c8565b005b61015b60048036038101906101569190610eea565b6105de565b60405161016d969594939291906111fe565b60405180910390f35b610190600480360381019061018b9190610eea565b6107d2565b60405161019d919061128f565b60405180910390f35b6101c060048036038101906101bb9190610eea565b610933565b6040516101cd91906112b1565b60405180910390f35b8060008084815260200190815260200160002060040190805190602001906101ff929190610bf5565b505050565b60006040518060c001604052808873ffffffffffffffffffffffffffffffffffffffff1681526020018781526020018681526020018581526020018481526020018381525090508060008088815260200190815260200160002060008201518160000160006101000a81548173ffffffffffffffffffffffffffffffffffffffff021916908373ffffffffffffffffffffffffffffffffffffffff1602179055506020820151816001015560408201518160020190805190602001906102cb929190610bf5565b5060608201518160030190805190602001906102e8929190610bf5565b506080820151816004019080519060200190610305929190610bf5565b5060a0820151816005015590505050505050505050565b6001818154811061032c57600080fd5b906000526020600020016000915054906101000a900473ffffffffffffffffffffffffffffffffffffffff1681565b60008160405160200161036e919061118d565b604051602081830303815290604052805190602001206000808581526020019081526020016000206003016040516020016103a991906111a4565b6040516020818303038152906040528051906020012014905092915050565b600042846040516020016103dd9291906111bb565b6040516020818303038152906040528051906020012060001c905060006040518060c001604052808473ffffffffffffffffffffffffffffffffffffffff1681526020018381526020018681526020018581526020016040518060400160405280600181526020017f30000000000000000000000000000000000000000000000000000000000000008152508152602001600081525090508060008084815260200190815260200160002060008201518160000160006101000a81548173ffffffffffffffffffffffffffffffffffffffff021916908373ffffffffffffffffffffffffffffffffffffffff1602179055506020820151816001015560408201518160020190805190602001906104f5929190610bf5565b506060820151816003019080519060200190610512929190610bf5565b50608082015181600401908051906020019061052f929190610bf5565b5060a082015181600501559050506001839080600181540180825580915050600190039060005260206000200160009091909190916101000a81548173ffffffffffffffffffffffffffffffffffffffff021916908373ffffffffffffffffffffffffffffffffffffffff1602179055507f6b1da47e6cb6a4952c75fff4300f06caf20aa8269a4a398f315562926c5bed39826040516105cf91906112d3565b60405180910390a15050505050565b60006020528060005260406000206000915090508060000160009054906101000a900473ffffffffffffffffffffffffffffffffffffffff169080600101549080600201805461062d906114d6565b80601f0160208091040260200160405190810160405280929190818152602001828054610659906114d6565b80156106a65780601f1061067b576101008083540402835291602001916106a6565b820191906000526020600020905b81548152906001019060200180831161068957829003601f168201915b5050505050908060030180546106bb906114d6565b80601f01602080910402602001604051908101604052809291908181526020018280546106e7906114d6565b80156107345780601f1061070957610100808354040283529160200191610734565b820191906000526020600020905b81548152906001019060200180831161071757829003601f168201915b505050505090806004018054610749906114d6565b80601f0160208091040260200160405190810160405280929190818152602001828054610775906114d6565b80156107c25780601f10610797576101008083540402835291602001916107c2565b820191906000526020600020905b8154815290600101906020018083116107a557829003601f168201915b5050505050908060050154905086565b6060600082141561081a576040518060400160405280600181526020017f3000000000000000000000000000000000000000000000000000000000000000815250905061092e565b600082905060005b6000821461084c57808061083590611539565b915050600a8261084591906113e7565b9150610822565b60008167ffffffffffffffff81111561086857610867611679565b5b6040519080825280601f01601f19166020018201604052801561089a5781602001600182028036833780820191505090505b5090505b60008514610927576001826108b39190611418565b9150600a856108c2919061158c565b60306108ce9190611391565b60f81b8183815181106108e4576108e361164a565b5b60200101907effffffffffffffffffffffffffffffffffffffffffffffffffffffffffffff1916908160001a905350600a8561092091906113e7565b945061089e565b8093505050505b919050565b61093b610c7b565b60008060008481526020019081526020016000206040518060c00160405290816000820160009054906101000a900473ffffffffffffffffffffffffffffffffffffffff1673ffffffffffffffffffffffffffffffffffffffff1673ffffffffffffffffffffffffffffffffffffffff168152602001600182015481526020016002820180546109ca906114d6565b80601f01602080910402602001604051908101604052809291908181526020018280546109f6906114d6565b8015610a435780601f10610a1857610100808354040283529160200191610a43565b820191906000526020600020905b815481529060010190602001808311610a2657829003601f168201915b50505050508152602001600382018054610a5c906114d6565b80601f0160208091040260200160405190810160405280929190818152602001828054610a88906114d6565b8015610ad55780601f10610aaa57610100808354040283529160200191610ad5565b820191906000526020600020905b815481529060010190602001808311610ab857829003601f168201915b50505050508152602001600482018054610aee906114d6565b80601f0160208091040260200160405190810160405280929190818152602001828054610b1a906114d6565b8015610b675780601f10610b3c57610100808354040283529160200191610b67565b820191906000526020600020905b815481529060010190602001808311610b4a57829003601f168201915b50505050508152602001600582015481525050905060006040518060c00160405280836000015173ffffffffffffffffffffffffffffffffffffffff168152602001610bb684602001516107d2565b8152602001836040015181526020018360600151815260200183608001518152602001610be68460a001516107d2565b81525090508092505050919050565b828054610c01906114d6565b90600052602060002090601f016020900481019282610c235760008555610c6a565b82601f10610c3c57805160ff1916838001178555610c6a565b82800160010185558215610c6a579182015b82811115610c69578251825591602001919060010190610c4e565b5b509050610c779190610cc7565b5090565b6040518060c00160405280600073ffffffffffffffffffffffffffffffffffffffff16815260200160608152602001606081526020016060815260200160608152602001606081525090565b5b80821115610ce0576000816000905550600101610cc8565b5090565b6000610cf7610cf284611313565b6112ee565b905082815260208101848484011115610d1357610d126116ad565b5b610d1e848285611494565b509392505050565b600081359050610d35816116cd565b92915050565b600082601f830112610d5057610d4f6116a8565b5b8135610d60848260208601610ce4565b91505092915050565b600081359050610d78816116e4565b92915050565b60008060008060008060c08789031215610d9b57610d9a6116b7565b5b6000610da989828a01610d26565b9650506020610dba89828a01610d69565b955050604087013567ffffffffffffffff811115610ddb57610dda6116b2565b5b610de789828a01610d3b565b945050606087013567ffffffffffffffff811115610e0857610e076116b2565b5b610e1489828a01610d3b565b935050608087013567ffffffffffffffff811115610e3557610e346116b2565b5b610e4189828a01610d3b565b92505060a0610e5289828a01610d69565b9150509295509295509295565b600080600060608486031215610e7857610e776116b7565b5b600084013567ffffffffffffffff811115610e9657610e956116b2565b5b610ea286828701610d3b565b935050602084013567ffffffffffffffff811115610ec357610ec26116b2565b5b610ecf86828701610d3b565b9250506040610ee086828701610d26565b9150509250925092565b600060208284031215610f0057610eff6116b7565b5b6000610f0e84828501610d69565b91505092915050565b60008060408385031215610f2e57610f2d6116b7565b5b6000610f3c85828601610d69565b925050602083013567ffffffffffffffff811115610f5d57610f5c6116b2565b5b610f6985828601610d3b565b9150509250929050565b610f7c8161144c565b82525050565b610f8b8161144c565b82525050565b610f9a8161145e565b82525050565b6000610fab82611359565b610fb58185611364565b9350610fc58185602086016114a3565b610fce816116bc565b840191505092915050565b6000610fe482611359565b610fee8185611375565b9350610ffe8185602086016114a3565b611007816116bc565b840191505092915050565b600061101d82611359565b6110278185611386565b93506110378185602086016114a3565b80840191505092915050565b60008154611050816114d6565b61105a8186611386565b945060018216600081146110755760018114611086576110b9565b60ff198316865281860193506110b9565b61108f85611344565b60005b838110156110b157815481890152600182019150602081019050611092565b838801955050505b50505092915050565b600060c0830160008301516110da6000860182610f73565b50602083015184820360208601526110f28282610fa0565b9150506040830151848203604086015261110c8282610fa0565b915050606083015184820360608601526111268282610fa0565b915050608083015184820360808601526111408282610fa0565b91505060a083015184820360a086015261115a8282610fa0565b9150508091505092915050565b6111708161148a565b82525050565b6111876111828261148a565b611582565b82525050565b60006111998284611012565b915081905092915050565b60006111b08284611043565b915081905092915050565b60006111c78285611176565b6020820191506111d78284611012565b91508190509392505050565b60006020820190506111f86000830184610f82565b92915050565b600060c0820190506112136000830189610f82565b6112206020830188611167565b81810360408301526112328187610fd9565b905081810360608301526112468186610fd9565b9050818103608083015261125a8185610fd9565b905061126960a0830184611167565b979650505050505050565b60006020820190506112896000830184610f91565b92915050565b600060208201905081810360008301526112a98184610fd9565b905092915050565b600060208201905081810360008301526112cb81846110c2565b905092915050565b60006020820190506112e86000830184611167565b92915050565b60006112f8611309565b90506113048282611508565b919050565b6000604051905090565b600067ffffffffffffffff82111561132e5761132d611679565b5b611337826116bc565b9050602081019050919050565b60008190508160005260206000209050919050565b600081519050919050565b600082825260208201905092915050565b600082825260208201905092915050565b600081905092915050565b600061139c8261148a565b91506113a78361148a565b9250827fffffffffffffffffffffffffffffffffffffffffffffffffffffffffffffffff038211156113dc576113db6115bd565b5b828201905092915050565b60006113f28261148a565b91506113fd8361148a565b92508261140d5761140c6115ec565b5b828204905092915050565b60006114238261148a565b915061142e8361148a565b925082821015611441576114406115bd565b5b828203905092915050565b60006114578261146a565b9050919050565b60008115159050919050565b600073ffffffffffffffffffffffffffffffffffffffff82169050919050565b6000819050919050565b82818337600083830152505050565b60005b838110156114c15780820151818401526020810190506114a6565b838111156114d0576000848401525b50505050565b600060028204905060018216806114ee57607f821691505b602082108114156115025761150161161b565b5b50919050565b611511826116bc565b810181811067ffffffffffffffff821117156115305761152f611679565b5b80604052505050565b60006115448261148a565b91507fffffffffffffffffffffffffffffffffffffffffffffffffffffffffffffffff821415611577576115766115bd565b5b600182019050919050565b6000819050919050565b60006115978261148a565b91506115a28361148a565b9250826115b2576115b16115ec565b5b828206905092915050565b7f4e487b7100000000000000000000000000000000000000000000000000000000600052601160045260246000fd5b7f4e487b7100000000000000000000000000000000000000000000000000000000600052601260045260246000fd5b7f4e487b7100000000000000000000000000000000000000000000000000000000600052602260045260246000fd5b7f4e487b7100000000000000000000000000000000000000000000000000000000600052603260045260246000fd5b7f4e487b7100000000000000000000000000000000000000000000000000000000600052604160045260246000fd5b600080fd5b600080fd5b600080fd5b600080fd5b6000601f19601f8301169050919050565b6116d68161144c565b81146116e157600080fd5b50565b6116ed8161148a565b81146116f857600080fd5b5056fea2646970667358221220071b0d306069a50661235e75a10ce4476ac1f39e9843301e71b0b6b58ac3dea064736f6c63430008070033",
  "devdoc": {
    "kind": "dev",
    "methods": {},
    "version": 1
  },
  "userdoc": {
    "kind": "user",
    "methods": {},
    "version": 1
  },
  "storageLayout": {
    "storage": [
      {
        "astId": 32,
        "contract": "contracts/UserInfo.sol:UserInfo",
        "label": "userMap",
        "offset": 0,
        "slot": "0",
        "type": "t_mapping(t_uint256,t_struct(User)14_storage)"
      },
      {
        "astId": 35,
        "contract": "contracts/UserInfo.sol:UserInfo",
        "label": "registeredUserAddresses",
        "offset": 0,
        "slot": "1",
        "type": "t_array(t_address)dyn_storage"
      }
    ],
    "types": {
      "t_address": {
        "encoding": "inplace",
        "label": "address",
        "numberOfBytes": "20"
      },
      "t_array(t_address)dyn_storage": {
        "base": "t_address",
        "encoding": "dynamic_array",
        "label": "address[]",
        "numberOfBytes": "32"
      },
      "t_mapping(t_uint256,t_struct(User)14_storage)": {
        "encoding": "mapping",
        "key": "t_uint256",
        "label": "mapping(uint256 => struct UserInfo.User)",
        "numberOfBytes": "32",
        "value": "t_struct(User)14_storage"
      },
      "t_string_storage": {
        "encoding": "bytes",
        "label": "string",
        "numberOfBytes": "32"
      },
      "t_struct(User)14_storage": {
        "encoding": "inplace",
        "label": "struct UserInfo.User",
        "members": [
          {
            "astId": 3,
            "contract": "contracts/UserInfo.sol:UserInfo",
            "label": "userAddress",
            "offset": 0,
            "slot": "0",
            "type": "t_address"
          },
          {
            "astId": 5,
            "contract": "contracts/UserInfo.sol:UserInfo",
            "label": "userId",
            "offset": 0,
            "slot": "1",
            "type": "t_uint256"
          },
          {
            "astId": 7,
            "contract": "contracts/UserInfo.sol:UserInfo",
            "label": "userName",
            "offset": 0,
            "slot": "2",
            "type": "t_string_storage"
          },
          {
            "astId": 9,
            "contract": "contracts/UserInfo.sol:UserInfo",
            "label": "pwd",
            "offset": 0,
            "slot": "3",
            "type": "t_string_storage"
          },
          {
            "astId": 11,
            "contract": "contracts/UserInfo.sol:UserInfo",
            "label": "role",
            "offset": 0,
            "slot": "4",
            "type": "t_string_storage"
          },
          {
            "astId": 13,
            "contract": "contracts/UserInfo.sol:UserInfo",
            "label": "assert",
            "offset": 0,
            "slot": "5",
            "type": "t_uint256"
          }
        ],
        "numberOfBytes": "192"
      },
      "t_uint256": {
        "encoding": "inplace",
        "label": "uint256",
        "numberOfBytes": "32"
      }
    }
  }
}