{
  "_format": "hh-sol-artifact-1",
  "contractName": "ManagementInfo",
  "sourceName": "contracts/ManageInfo.sol",
  "abi": [
    {
      "inputs": [
        {
          "internalType": "address",
          "name": "_userInfoAddress",
          "type": "address"
        },
        {
          "internalType": "address",
          "name": "_contentInfoAddress",
          "type": "address"
        }
      ],
      "stateMutability": "nonpayable",
      "type": "constructor"
    },
    {
      "inputs": [],
      "name": "contentInfo",
      "outputs": [
        {
          "internalType": "contract ContentInfo",
          "name": "",
          "type": "address"
        }
      ],
      "stateMutability": "view",
      "type": "function"
    },
    {
      "inputs": [],
      "name": "userInfo",
      "outputs": [
        {
          "internalType": "contract UserInfo",
          "name": "",
          "type": "address"
        }
      ],
      "stateMutability": "view",
      "type": "function"
    }
  ],
  "bytecode": "0x608060405234801561001057600080fd5b5060405161031f38038061031f833981810160405281019061003291906100cf565b816000806101000a81548173ffffffffffffffffffffffffffffffffffffffff021916908373ffffffffffffffffffffffffffffffffffffffff16021790555080600160006101000a81548173ffffffffffffffffffffffffffffffffffffffff021916908373ffffffffffffffffffffffffffffffffffffffff160217905550505061015d565b6000815190506100c981610146565b92915050565b600080604083850312156100e6576100e5610141565b5b60006100f4858286016100ba565b9250506020610105858286016100ba565b9150509250929050565b600061011a82610121565b9050919050565b600073ffffffffffffffffffffffffffffffffffffffff82169050919050565b600080fd5b61014f8161010f565b811461015a57600080fd5b50565b6101b38061016c6000396000f3fe608060405234801561001057600080fd5b50600436106100365760003560e01c8063100e03821461003b57806343a6f4ee14610059575b600080fd5b610043610077565b60405161005091906100df565b60405180910390f35b61006161009d565b60405161006e91906100fa565b60405180910390f35b600160009054906101000a900473ffffffffffffffffffffffffffffffffffffffff1681565b60008054906101000a900473ffffffffffffffffffffffffffffffffffffffff1681565b6100ca81610135565b82525050565b6100d981610147565b82525050565b60006020820190506100f460008301846100c1565b92915050565b600060208201905061010f60008301846100d0565b92915050565b600073ffffffffffffffffffffffffffffffffffffffff82169050919050565b600061014082610159565b9050919050565b600061015282610159565b9050919050565b60006101648261016b565b9050919050565b600061017682610115565b905091905056fea26469706673582212202f151a1fa1fd4a62bae88a8bbf865d7624479b2f7d1173130e6443e6b54089d164736f6c63430008070033",
  "linkReferences": {},
  "deployedLinkReferences": {}
}