{
  "_format": "hh-sol-artifact-1",
  "contractName": "ContentInfo",
  "sourceName": "contracts/ContentInfo.sol",
  "abi": [
    {
      "anonymous": false,
      "inputs": [
        {
          "indexed": false,
          "internalType": "uint256",
          "name": "contentId",
          "type": "uint256"
        }
      ],
      "name": "ContentCreated",
      "type": "event"
    },
    {
      "inputs": [
        {
          "internalType": "uint256",
          "name": "",
          "type": "uint256"
        }
      ],
      "name": "commentMap",
      "outputs": [
        {
          "internalType": "uint256",
          "name": "contentId",
          "type": "uint256"
        },
        {
          "internalType": "uint256",
          "name": "userId",
          "type": "uint256"
        },
        {
          "internalType": "uint256",
          "name": "commentId",
          "type": "uint256"
        },
        {
          "internalType": "string",
          "name": "content",
          "type": "string"
        },
        {
          "internalType": "uint256",
          "name": "updateTime",
          "type": "uint256"
        },
        {
          "internalType": "uint256",
          "name": "praiseCount",
          "type": "uint256"
        },
        {
          "internalType": "uint256",
          "name": "commentState",
          "type": "uint256"
        }
      ],
      "stateMutability": "view",
      "type": "function"
    },
    {
      "inputs": [
        {
          "internalType": "uint256",
          "name": "",
          "type": "uint256"
        }
      ],
      "name": "complainMap",
      "outputs": [
        {
          "internalType": "uint256",
          "name": "complaintId",
          "type": "uint256"
        },
        {
          "internalType": "uint256",
          "name": "contentId",
          "type": "uint256"
        },
        {
          "internalType": "uint256",
          "name": "userId",
          "type": "uint256"
        },
        {
          "internalType": "uint256",
          "name": "commentId",
          "type": "uint256"
        },
        {
          "internalType": "string",
          "name": "content",
          "type": "string"
        },
        {
          "internalType": "uint256",
          "name": "updateTime",
          "type": "uint256"
        },
        {
          "internalType": "uint256",
          "name": "complainState",
          "type": "uint256"
        }
      ],
      "stateMutability": "view",
      "type": "function"
    },
    {
      "inputs": [
        {
          "internalType": "uint256",
          "name": "",
          "type": "uint256"
        }
      ],
      "name": "contentIds",
      "outputs": [
        {
          "internalType": "uint256",
          "name": "",
          "type": "uint256"
        }
      ],
      "stateMutability": "view",
      "type": "function"
    },
    {
      "inputs": [
        {
          "internalType": "uint256",
          "name": "",
          "type": "uint256"
        }
      ],
      "name": "contentMap",
      "outputs": [
        {
          "internalType": "uint256",
          "name": "contentId",
          "type": "uint256"
        },
        {
          "internalType": "uint256",
          "name": "userId",
          "type": "uint256"
        },
        {
          "internalType": "string",
          "name": "title",
          "type": "string"
        },
        {
          "internalType": "string",
          "name": "content",
          "type": "string"
        },
        {
          "internalType": "uint256",
          "name": "updateTime",
          "type": "uint256"
        },
        {
          "internalType": "uint256",
          "name": "praiseCount",
          "type": "uint256"
        },
        {
          "internalType": "uint256",
          "name": "contentState",
          "type": "uint256"
        }
      ],
      "stateMutability": "view",
      "type": "function"
    },
    {
      "inputs": [
        {
          "internalType": "uint256",
          "name": "_userId",
          "type": "uint256"
        },
        {
          "internalType": "string",
          "name": "_title",
          "type": "string"
        },
        {
          "internalType": "string",
          "name": "_content",
          "type": "string"
        }
      ],
      "name": "createContent",
      "outputs": [],
      "stateMutability": "nonpayable",
      "type": "function"
    },
    {
      "inputs": [
        {
          "internalType": "uint256",
          "name": "_contentId",
          "type": "uint256"
        }
      ],
      "name": "deleteContent",
      "outputs": [],
      "stateMutability": "nonpayable",
      "type": "function"
    },
    {
      "inputs": [],
      "name": "getAllContent",
      "outputs": [
        {
          "components": [
            {
              "internalType": "string",
              "name": "contentId",
              "type": "string"
            },
            {
              "internalType": "string",
              "name": "userId",
              "type": "string"
            },
            {
              "internalType": "string",
              "name": "title",
              "type": "string"
            },
            {
              "internalType": "string",
              "name": "content",
              "type": "string"
            },
            {
              "internalType": "string",
              "name": "updateTime",
              "type": "string"
            },
            {
              "internalType": "string",
              "name": "praiseCount",
              "type": "string"
            },
            {
              "internalType": "string",
              "name": "contentState",
              "type": "string"
            }
          ],
          "internalType": "struct ContentInfo.ReturnContent[]",
          "name": "",
          "type": "tuple[]"
        }
      ],
      "stateMutability": "view",
      "type": "function"
    },
    {
      "inputs": [
        {
          "internalType": "uint256",
          "name": "_contentId",
          "type": "uint256"
        }
      ],
      "name": "getContent",
      "outputs": [
        {
          "components": [
            {
              "internalType": "string",
              "name": "contentId",
              "type": "string"
            },
            {
              "internalType": "string",
              "name": "userId",
              "type": "string"
            },
            {
              "internalType": "string",
              "name": "title",
              "type": "string"
            },
            {
              "internalType": "string",
              "name": "content",
              "type": "string"
            },
            {
              "internalType": "string",
              "name": "updateTime",
              "type": "string"
            },
            {
              "internalType": "string",
              "name": "praiseCount",
              "type": "string"
            },
            {
              "internalType": "string",
              "name": "contentState",
              "type": "string"
            }
          ],
          "internalType": "struct ContentInfo.ReturnContent",
          "name": "",
          "type": "tuple"
        }
      ],
      "stateMutability": "view",
      "type": "function"
    },
    {
      "inputs": [
        {
          "internalType": "uint256",
          "name": "_contentId",
          "type": "uint256"
        }
      ],
      "name": "praiseContent",
      "outputs": [],
      "stateMutability": "nonpayable",
      "type": "function"
    },
    {
      "inputs": [
        {
          "internalType": "uint256",
          "name": "value",
          "type": "uint256"
        }
      ],
      "name": "uint256ToString",
      "outputs": [
        {
          "internalType": "string",
          "name": "",
          "type": "string"
        }
      ],
      "stateMutability": "pure",
      "type": "function"
    },
    {
      "inputs": [
        {
          "internalType": "uint256",
          "name": "_contentId",
          "type": "uint256"
        },
        {
          "internalType": "string",
          "name": "_title",
          "type": "string"
        },
        {
          "internalType": "string",
          "name": "_content",
          "type": "string"
        }
      ],
      "name": "updateContent",
      "outputs": [],
      "stateMutability": "nonpayable",
      "type": "function"
    }
  ],
  "bytecode": "0x608060405234801561001057600080fd5b50611c7a806100206000396000f3fe608060405234801561001057600080fd5b50600436106100a95760003560e01c80639ad666a7116100715780639ad666a7146101845780639f3002c2146101a0578063aee91382146101d6578063b7d17b3c146101f2578063ce7e51e314610222578063fed216cb14610252576100a9565b8063064b0155146100ae5780630b7ad54c146100ca5780632efb4840146100fa57806354315084146101305780638072d9e51461014e575b600080fd5b6100c860048036038101906100c391906112dc565b61026e565b005b6100e460048036038101906100df91906112af565b610489565b6040516100f191906116c2565b60405180910390f35b610114600480360381019061010f91906112af565b61068d565b60405161012797969594939291906117f2565b60405180910390f35b610138610757565b604051610145919061167e565b60405180910390f35b610168600480360381019061016391906112af565b6108c2565b60405161017b97969594939291906116ff565b60405180910390f35b61019e600480360381019061019991906112af565b610a14565b005b6101ba60048036038101906101b591906112af565b610ba5565b6040516101cd979695949392919061177c565b60405180910390f35b6101f060048036038101906101eb91906112dc565b610c6f565b005b61020c600480360381019061020791906112af565b610dbd565b60405161021991906116e4565b60405180910390f35b61023c600480360381019061023791906112af565b610de1565b60405161024991906116a0565b60405180910390f35b61026c600480360381019061026791906112af565b610f42565b005b60008060008581526020019081526020016000206040518060e001604052908160008201548152602001600182015481526020016002820180546102b190611a36565b80601f01602080910402602001604051908101604052809291908181526020018280546102dd90611a36565b801561032a5780601f106102ff5761010080835404028352916020019161032a565b820191906000526020600020905b81548152906001019060200180831161030d57829003601f168201915b5050505050815260200160038201805461034390611a36565b80601f016020809104026020016040519081016040528092919081815260200182805461036f90611a36565b80156103bc5780601f10610391576101008083540402835291602001916103bc565b820191906000526020600020905b81548152906001019060200180831161039f57829003601f168201915b505050505081526020016004820154815260200160058201548152602001600682015481525050905082816040018190525081816060018190525042816080018181525050806000808681526020019081526020016000206000820151816000015560208201518160010155604082015181600201908051906020019061044492919061114a565b50606082015181600301908051906020019061046192919061114a565b506080820151816004015560a0820151816005015560c0820151816006015590505050505050565b6104916111d0565b60008060008481526020019081526020016000206040518060e001604052908160008201548152602001600182015481526020016002820180546104d490611a36565b80601f016020809104026020016040519081016040528092919081815260200182805461050090611a36565b801561054d5780601f106105225761010080835404028352916020019161054d565b820191906000526020600020905b81548152906001019060200180831161053057829003601f168201915b5050505050815260200160038201805461056690611a36565b80601f016020809104026020016040519081016040528092919081815260200182805461059290611a36565b80156105df5780601f106105b4576101008083540402835291602001916105df565b820191906000526020600020905b8154815290600101906020018083116105c257829003601f168201915b505050505081526020016004820154815260200160058201548152602001600682015481525050905060006040518060e001604052806106228460000151610de1565b81526020016106348460200151610de1565b8152602001836040015181526020018360600151815260200161065a8460800151610de1565b815260200161066c8460a00151610de1565b815260200161067e8460c00151610de1565b81525090508092505050919050565b60036020528060005260406000206000915090508060000154908060010154908060020154908060030154908060040180546106c890611a36565b80601f01602080910402602001604051908101604052809291908181526020018280546106f490611a36565b80156107415780601f1061071657610100808354040283529160200191610741565b820191906000526020600020905b81548152906001019060200180831161072457829003601f168201915b5050505050908060050154908060060154905087565b6060600060018054905090506000805b828110156107cd5760016000806001848154811061078857610787611baa565b5b906000526020600020015481526020019081526020016000206006015414156107ba5781806107b690611a99565b9250505b80806107c590611a99565b915050610767565b5060008167ffffffffffffffff8111156107ea576107e9611bd9565b5b60405190808252806020026020018201604052801561082357816020015b6108106111d0565b8152602001906001900390816108085790505b5090506000805b848110156108b75760016000806001848154811061084b5761084a611baa565b5b906000526020600020015481526020019081526020016000206006015414156108a45761087781610489565b83838151811061088a57610889611baa565b5b602002602001018190525081806108a090611a99565b9250505b80806108af90611a99565b91505061082a565b508194505050505090565b60006020528060005260406000206000915090508060000154908060010154908060020180546108f190611a36565b80601f016020809104026020016040519081016040528092919081815260200182805461091d90611a36565b801561096a5780601f1061093f5761010080835404028352916020019161096a565b820191906000526020600020905b81548152906001019060200180831161094d57829003601f168201915b50505050509080600301805461097f90611a36565b80601f01602080910402602001604051908101604052809291908181526020018280546109ab90611a36565b80156109f85780601f106109cd576101008083540402835291602001916109f8565b820191906000526020600020905b8154815290600101906020018083116109db57829003601f168201915b5050505050908060040154908060050154908060060154905087565b60008060008381526020019081526020016000206040518060e00160405290816000820154815260200160018201548152602001600282018054610a5790611a36565b80601f0160208091040260200160405190810160405280929190818152602001828054610a8390611a36565b8015610ad05780601f10610aa557610100808354040283529160200191610ad0565b820191906000526020600020905b815481529060010190602001808311610ab357829003601f168201915b50505050508152602001600382018054610ae990611a36565b80601f0160208091040260200160405190810160405280929190818152602001828054610b1590611a36565b8015610b625780601f10610b3757610100808354040283529160200191610b62565b820191906000526020600020905b815481529060010190602001808311610b4557829003601f168201915b50505050508152602001600482015481526020016005820154815260200160068201548152505090508060a0018051809190610b9d90611a99565b815250505050565b6002602052806000526040600020600091509050806000015490806001015490806002015490806003018054610bda90611a36565b80601f0160208091040260200160405190810160405280929190818152602001828054610c0690611a36565b8015610c535780601f10610c2857610100808354040283529160200191610c53565b820191906000526020600020905b815481529060010190602001808311610c3657829003601f168201915b5050505050908060040154908060050154908060060154905087565b6000428484604051602001610c8693929190611645565b6040516020818303038152906040528051906020012060001c90506040518060e0016040528082815260200185815260200184815260200183815260200142815260200160008152602001600181525060008083815260200190815260200160002060008201518160000155602082015181600101556040820151816002019080519060200190610d1892919061114a565b506060820151816003019080519060200190610d3592919061114a565b506080820151816004015560a0820151816005015560c0820151816006015590505060018190806001815401808255809150506001900390600052602060002001600090919091909150557fd2f22dea2df70804f9e20fc76bff2574c5cde894d91655438c75b0532431e14f81604051610daf91906116e4565b60405180910390a150505050565b60018181548110610dcd57600080fd5b906000526020600020016000915090505481565b60606000821415610e29576040518060400160405280600181526020017f30000000000000000000000000000000000000000000000000000000000000008152509050610f3d565b600082905060005b60008214610e5b578080610e4490611a99565b915050600a82610e549190611985565b9150610e31565b60008167ffffffffffffffff811115610e7757610e76611bd9565b5b6040519080825280601f01601f191660200182016040528015610ea95781602001600182028036833780820191505090505b5090505b60008514610f3657600182610ec291906119b6565b9150600a85610ed19190611aec565b6030610edd919061192f565b60f81b818381518110610ef357610ef2611baa565b5b60200101907effffffffffffffffffffffffffffffffffffffffffffffffffffffffffffff1916908160001a905350600a85610f2f9190611985565b9450610ead565b8093505050505b919050565b60008060008381526020019081526020016000206040518060e00160405290816000820154815260200160018201548152602001600282018054610f8590611a36565b80601f0160208091040260200160405190810160405280929190818152602001828054610fb190611a36565b8015610ffe5780601f10610fd357610100808354040283529160200191610ffe565b820191906000526020600020905b815481529060010190602001808311610fe157829003601f168201915b5050505050815260200160038201805461101790611a36565b80601f016020809104026020016040519081016040528092919081815260200182805461104390611a36565b80156110905780601f1061106557610100808354040283529160200191611090565b820191906000526020600020905b81548152906001019060200180831161107357829003601f168201915b505050505081526020016004820154815260200160058201548152602001600682015481525050905060008160c0018181525050806000808481526020019081526020016000206000820151816000015560208201518160010155604082015181600201908051906020019061110792919061114a565b50606082015181600301908051906020019061112492919061114a565b506080820151816004015560a0820151816005015560c082015181600601559050505050565b82805461115690611a36565b90600052602060002090601f01602090048101928261117857600085556111bf565b82601f1061119157805160ff19168380011785556111bf565b828001600101855582156111bf579182015b828111156111be5782518255916020019190600101906111a3565b5b5090506111cc919061120d565b5090565b6040518060e00160405280606081526020016060815260200160608152602001606081526020016060815260200160608152602001606081525090565b5b8082111561122657600081600090555060010161120e565b5090565b600061123d6112388461188d565b611868565b90508281526020810184848401111561125957611258611c0d565b5b6112648482856119f4565b509392505050565b600082601f83011261128157611280611c08565b5b813561129184826020860161122a565b91505092915050565b6000813590506112a981611c2d565b92915050565b6000602082840312156112c5576112c4611c17565b5b60006112d38482850161129a565b91505092915050565b6000806000606084860312156112f5576112f4611c17565b5b60006113038682870161129a565b935050602084013567ffffffffffffffff81111561132457611323611c12565b5b6113308682870161126c565b925050604084013567ffffffffffffffff81111561135157611350611c12565b5b61135d8682870161126c565b9150509250925092565b60006113738383611493565b905092915050565b6000611386826118ce565b61139081856118f1565b9350836020820285016113a2856118be565b8060005b858110156113de57848403895281516113bf8582611367565b94506113ca836118e4565b925060208a019950506001810190506113a6565b50829750879550505050505092915050565b60006113fb826118d9565b6114058185611902565b9350611415818560208601611a03565b61141e81611c1c565b840191505092915050565b6000611434826118d9565b61143e8185611913565b935061144e818560208601611a03565b61145781611c1c565b840191505092915050565b600061146d826118d9565b6114778185611924565b9350611487818560208601611a03565b80840191505092915050565b600060e08301600083015184820360008601526114b082826113f0565b915050602083015184820360208601526114ca82826113f0565b915050604083015184820360408601526114e482826113f0565b915050606083015184820360608601526114fe82826113f0565b9150506080830151848203608086015261151882826113f0565b91505060a083015184820360a086015261153282826113f0565b91505060c083015184820360c086015261154c82826113f0565b9150508091505092915050565b600060e083016000830151848203600086015261157682826113f0565b9150506020830151848203602086015261159082826113f0565b915050604083015184820360408601526115aa82826113f0565b915050606083015184820360608601526115c482826113f0565b915050608083015184820360808601526115de82826113f0565b91505060a083015184820360a08601526115f882826113f0565b91505060c083015184820360c086015261161282826113f0565b9150508091505092915050565b611628816119ea565b82525050565b61163f61163a826119ea565b611ae2565b82525050565b6000611651828661162e565b602082019150611661828561162e565b6020820191506116718284611462565b9150819050949350505050565b60006020820190508181036000830152611698818461137b565b905092915050565b600060208201905081810360008301526116ba8184611429565b905092915050565b600060208201905081810360008301526116dc8184611559565b905092915050565b60006020820190506116f9600083018461161f565b92915050565b600060e082019050611714600083018a61161f565b611721602083018961161f565b81810360408301526117338188611429565b905081810360608301526117478187611429565b9050611756608083018661161f565b61176360a083018561161f565b61177060c083018461161f565b98975050505050505050565b600060e082019050611791600083018a61161f565b61179e602083018961161f565b6117ab604083018861161f565b81810360608301526117bd8187611429565b90506117cc608083018661161f565b6117d960a083018561161f565b6117e660c083018461161f565b98975050505050505050565b600060e082019050611807600083018a61161f565b611814602083018961161f565b611821604083018861161f565b61182e606083018761161f565b81810360808301526118408186611429565b905061184f60a083018561161f565b61185c60c083018461161f565b98975050505050505050565b6000611872611883565b905061187e8282611a68565b919050565b6000604051905090565b600067ffffffffffffffff8211156118a8576118a7611bd9565b5b6118b182611c1c565b9050602081019050919050565b6000819050602082019050919050565b600081519050919050565b600081519050919050565b6000602082019050919050565b600082825260208201905092915050565b600082825260208201905092915050565b600082825260208201905092915050565b600081905092915050565b600061193a826119ea565b9150611945836119ea565b9250827fffffffffffffffffffffffffffffffffffffffffffffffffffffffffffffffff0382111561197a57611979611b1d565b5b828201905092915050565b6000611990826119ea565b915061199b836119ea565b9250826119ab576119aa611b4c565b5b828204905092915050565b60006119c1826119ea565b91506119cc836119ea565b9250828210156119df576119de611b1d565b5b828203905092915050565b6000819050919050565b82818337600083830152505050565b60005b83811015611a21578082015181840152602081019050611a06565b83811115611a30576000848401525b50505050565b60006002820490506001821680611a4e57607f821691505b60208210811415611a6257611a61611b7b565b5b50919050565b611a7182611c1c565b810181811067ffffffffffffffff82111715611a9057611a8f611bd9565b5b80604052505050565b6000611aa4826119ea565b91507fffffffffffffffffffffffffffffffffffffffffffffffffffffffffffffffff821415611ad757611ad6611b1d565b5b600182019050919050565b6000819050919050565b6000611af7826119ea565b9150611b02836119ea565b925082611b1257611b11611b4c565b5b828206905092915050565b7f4e487b7100000000000000000000000000000000000000000000000000000000600052601160045260246000fd5b7f4e487b7100000000000000000000000000000000000000000000000000000000600052601260045260246000fd5b7f4e487b7100000000000000000000000000000000000000000000000000000000600052602260045260246000fd5b7f4e487b7100000000000000000000000000000000000000000000000000000000600052603260045260246000fd5b7f4e487b7100000000000000000000000000000000000000000000000000000000600052604160045260246000fd5b600080fd5b600080fd5b600080fd5b600080fd5b6000601f19601f8301169050919050565b611c36816119ea565b8114611c4157600080fd5b5056fea2646970667358221220f91c494f1500c7d6b9f7e7d8a96367f5f7809620c521ee34bd8e9c0d2d2e359d64736f6c63430008070033",
  "linkReferences": {},
  "deployedLinkReferences": {}
}