{
  "_format": "hh-sol-artifact-1",
  "contractName": "ContentInfo",
  "sourceName": "contracts/ContentInfo.sol",
  "abi": [
    {
      "anonymous": false,
      "inputs": [
        {
          "indexed": false,
          "internalType": "uint256",
          "name": "commentId",
          "type": "uint256"
        }
      ],
      "name": "CommentCreated",
      "type": "event"
    },
    {
      "anonymous": false,
      "inputs": [
        {
          "indexed": false,
          "internalType": "uint256",
          "name": "contentId",
          "type": "uint256"
        }
      ],
      "name": "ContentCreated",
      "type": "event"
    },
    {
      "anonymous": false,
      "inputs": [
        {
          "indexed": false,
          "internalType": "uint256",
          "name": "praiseCount",
          "type": "uint256"
        }
      ],
      "name": "PraiseCommentDone",
      "type": "event"
    },
    {
      "anonymous": false,
      "inputs": [
        {
          "indexed": false,
          "internalType": "uint256",
          "name": "praiseCount",
          "type": "uint256"
        }
      ],
      "name": "PraiseDone",
      "type": "event"
    },
    {
      "inputs": [
        {
          "internalType": "uint256",
          "name": "",
          "type": "uint256"
        }
      ],
      "name": "commentMap",
      "outputs": [
        {
          "internalType": "uint256",
          "name": "contentId",
          "type": "uint256"
        },
        {
          "internalType": "uint256",
          "name": "userId",
          "type": "uint256"
        },
        {
          "internalType": "uint256",
          "name": "commentId",
          "type": "uint256"
        },
        {
          "internalType": "string",
          "name": "comment",
          "type": "string"
        },
        {
          "internalType": "uint256",
          "name": "updateTime",
          "type": "uint256"
        },
        {
          "internalType": "uint256",
          "name": "praiseCount",
          "type": "uint256"
        },
        {
          "internalType": "uint256",
          "name": "commentState",
          "type": "uint256"
        }
      ],
      "stateMutability": "view",
      "type": "function"
    },
    {
      "inputs": [
        {
          "internalType": "uint256",
          "name": "",
          "type": "uint256"
        }
      ],
      "name": "complainMap",
      "outputs": [
        {
          "internalType": "uint256",
          "name": "complaintId",
          "type": "uint256"
        },
        {
          "internalType": "uint256",
          "name": "contentId",
          "type": "uint256"
        },
        {
          "internalType": "uint256",
          "name": "userId",
          "type": "uint256"
        },
        {
          "internalType": "uint256",
          "name": "commentId",
          "type": "uint256"
        },
        {
          "internalType": "string",
          "name": "content",
          "type": "string"
        },
        {
          "internalType": "uint256",
          "name": "updateTime",
          "type": "uint256"
        },
        {
          "internalType": "uint256",
          "name": "complainState",
          "type": "uint256"
        }
      ],
      "stateMutability": "view",
      "type": "function"
    },
    {
      "inputs": [
        {
          "internalType": "uint256",
          "name": "",
          "type": "uint256"
        },
        {
          "internalType": "uint256",
          "name": "",
          "type": "uint256"
        }
      ],
      "name": "contentComments",
      "outputs": [
        {
          "internalType": "uint256",
          "name": "",
          "type": "uint256"
        }
      ],
      "stateMutability": "view",
      "type": "function"
    },
    {
      "inputs": [
        {
          "internalType": "uint256",
          "name": "",
          "type": "uint256"
        }
      ],
      "name": "contentIds",
      "outputs": [
        {
          "internalType": "uint256",
          "name": "",
          "type": "uint256"
        }
      ],
      "stateMutability": "view",
      "type": "function"
    },
    {
      "inputs": [
        {
          "internalType": "uint256",
          "name": "",
          "type": "uint256"
        }
      ],
      "name": "contentMap",
      "outputs": [
        {
          "internalType": "uint256",
          "name": "contentId",
          "type": "uint256"
        },
        {
          "internalType": "uint256",
          "name": "userId",
          "type": "uint256"
        },
        {
          "internalType": "string",
          "name": "title",
          "type": "string"
        },
        {
          "internalType": "string",
          "name": "content",
          "type": "string"
        },
        {
          "internalType": "uint256",
          "name": "updateTime",
          "type": "uint256"
        },
        {
          "internalType": "uint256",
          "name": "praiseCount",
          "type": "uint256"
        },
        {
          "internalType": "uint256",
          "name": "contentState",
          "type": "uint256"
        }
      ],
      "stateMutability": "view",
      "type": "function"
    },
    {
      "inputs": [
        {
          "internalType": "uint256",
          "name": "_contentId",
          "type": "uint256"
        },
        {
          "internalType": "uint256",
          "name": "_userId",
          "type": "uint256"
        },
        {
          "internalType": "string",
          "name": "_comment",
          "type": "string"
        }
      ],
      "name": "createComment",
      "outputs": [],
      "stateMutability": "nonpayable",
      "type": "function"
    },
    {
      "inputs": [
        {
          "internalType": "uint256",
          "name": "_userId",
          "type": "uint256"
        },
        {
          "internalType": "string",
          "name": "_title",
          "type": "string"
        },
        {
          "internalType": "string",
          "name": "_content",
          "type": "string"
        }
      ],
      "name": "createContent",
      "outputs": [],
      "stateMutability": "nonpayable",
      "type": "function"
    },
    {
      "inputs": [
        {
          "internalType": "uint256",
          "name": "_commentId",
          "type": "uint256"
        }
      ],
      "name": "deleteComment",
      "outputs": [],
      "stateMutability": "nonpayable",
      "type": "function"
    },
    {
      "inputs": [
        {
          "internalType": "uint256",
          "name": "_contentId",
          "type": "uint256"
        }
      ],
      "name": "deleteContent",
      "outputs": [],
      "stateMutability": "nonpayable",
      "type": "function"
    },
    {
      "inputs": [],
      "name": "getAllContent",
      "outputs": [
        {
          "components": [
            {
              "internalType": "string",
              "name": "contentId",
              "type": "string"
            },
            {
              "internalType": "string",
              "name": "userId",
              "type": "string"
            },
            {
              "internalType": "string",
              "name": "title",
              "type": "string"
            },
            {
              "internalType": "string",
              "name": "content",
              "type": "string"
            },
            {
              "internalType": "string",
              "name": "updateTime",
              "type": "string"
            },
            {
              "internalType": "string",
              "name": "praiseCount",
              "type": "string"
            },
            {
              "internalType": "string",
              "name": "contentState",
              "type": "string"
            }
          ],
          "internalType": "struct ContentInfo.ReturnContent[]",
          "name": "",
          "type": "tuple[]"
        }
      ],
      "stateMutability": "view",
      "type": "function"
    },
    {
      "inputs": [
        {
          "internalType": "uint256",
          "name": "_commentId",
          "type": "uint256"
        }
      ],
      "name": "getComment",
      "outputs": [
        {
          "components": [
            {
              "internalType": "string",
              "name": "contentId",
              "type": "string"
            },
            {
              "internalType": "string",
              "name": "userId",
              "type": "string"
            },
            {
              "internalType": "string",
              "name": "commentId",
              "type": "string"
            },
            {
              "internalType": "string",
              "name": "comment",
              "type": "string"
            },
            {
              "internalType": "string",
              "name": "updateTime",
              "type": "string"
            },
            {
              "internalType": "string",
              "name": "praiseCount",
              "type": "string"
            },
            {
              "internalType": "string",
              "name": "commentState",
              "type": "string"
            }
          ],
          "internalType": "struct ContentInfo.ReturnComment",
          "name": "",
          "type": "tuple"
        }
      ],
      "stateMutability": "view",
      "type": "function"
    },
    {
      "inputs": [
        {
          "internalType": "uint256",
          "name": "_contentId",
          "type": "uint256"
        }
      ],
      "name": "getCommentsByContentId",
      "outputs": [
        {
          "components": [
            {
              "internalType": "string",
              "name": "contentId",
              "type": "string"
            },
            {
              "internalType": "string",
              "name": "userId",
              "type": "string"
            },
            {
              "internalType": "string",
              "name": "commentId",
              "type": "string"
            },
            {
              "internalType": "string",
              "name": "comment",
              "type": "string"
            },
            {
              "internalType": "string",
              "name": "updateTime",
              "type": "string"
            },
            {
              "internalType": "string",
              "name": "praiseCount",
              "type": "string"
            },
            {
              "internalType": "string",
              "name": "commentState",
              "type": "string"
            }
          ],
          "internalType": "struct ContentInfo.ReturnComment[]",
          "name": "",
          "type": "tuple[]"
        }
      ],
      "stateMutability": "view",
      "type": "function"
    },
    {
      "inputs": [
        {
          "internalType": "uint256",
          "name": "_contentId",
          "type": "uint256"
        }
      ],
      "name": "getContent",
      "outputs": [
        {
          "components": [
            {
              "internalType": "string",
              "name": "contentId",
              "type": "string"
            },
            {
              "internalType": "string",
              "name": "userId",
              "type": "string"
            },
            {
              "internalType": "string",
              "name": "title",
              "type": "string"
            },
            {
              "internalType": "string",
              "name": "content",
              "type": "string"
            },
            {
              "internalType": "string",
              "name": "updateTime",
              "type": "string"
            },
            {
              "internalType": "string",
              "name": "praiseCount",
              "type": "string"
            },
            {
              "internalType": "string",
              "name": "contentState",
              "type": "string"
            }
          ],
          "internalType": "struct ContentInfo.ReturnContent",
          "name": "",
          "type": "tuple"
        }
      ],
      "stateMutability": "view",
      "type": "function"
    },
    {
      "inputs": [
        {
          "internalType": "uint256",
          "name": "_commentId",
          "type": "uint256"
        }
      ],
      "name": "praiseComment",
      "outputs": [],
      "stateMutability": "nonpayable",
      "type": "function"
    },
    {
      "inputs": [
        {
          "internalType": "uint256",
          "name": "_contentId",
          "type": "uint256"
        }
      ],
      "name": "praiseContent",
      "outputs": [],
      "stateMutability": "nonpayable",
      "type": "function"
    },
    {
      "inputs": [
        {
          "internalType": "uint256",
          "name": "value",
          "type": "uint256"
        }
      ],
      "name": "uint256ToString",
      "outputs": [
        {
          "internalType": "string",
          "name": "",
          "type": "string"
        }
      ],
      "stateMutability": "pure",
      "type": "function"
    },
    {
      "inputs": [
        {
          "internalType": "uint256",
          "name": "_commentId",
          "type": "uint256"
        },
        {
          "internalType": "string",
          "name": "_comment",
          "type": "string"
        }
      ],
      "name": "updateComment",
      "outputs": [],
      "stateMutability": "nonpayable",
      "type": "function"
    },
    {
      "inputs": [
        {
          "internalType": "uint256",
          "name": "_contentId",
          "type": "uint256"
        },
        {
          "internalType": "string",
          "name": "_title",
          "type": "string"
        },
        {
          "internalType": "string",
          "name": "_content",
          "type": "string"
        }
      ],
      "name": "updateContent",
      "outputs": [],
      "stateMutability": "nonpayable",
      "type": "function"
    }
  ],
  "bytecode": "0x608060405234801561001057600080fd5b50612b29806100206000396000f3fe608060405234801561001057600080fd5b50600436106101165760003560e01c8063846c5904116100a2578063a55a7cac11610071578063a55a7cac14610313578063aee9138214610343578063b7d17b3c1461035f578063ce7e51e31461038f578063fed216cb146103bf57610116565b8063846c5904146102755780639a55125e146102a55780639ad666a7146102c15780639f3002c2146102dd57610116565b806354315084116100e957806354315084146101cd5780635b5da505146101eb5780637d0b10261461020757806380562999146102235780638072d9e51461023f57610116565b8063064b01551461011b5780630800e300146101375780630b7ad54c146101675780632efb484014610197575b600080fd5b61013560048036038101906101309190611e0d565b6103db565b005b610151600480360381019061014c9190611d84565b6105f6565b60405161015e9190612516565b60405180910390f35b610181600480360381019061017c9190611d84565b61077b565b60405161018e9190612538565b60405180910390f35b6101b160048036038101906101ac9190611d84565b61097f565b6040516101c49796959493929190612668565b60405180910390f35b6101d5610a49565b6040516101e291906124d2565b60405180910390f35b61020560048036038101906102009190611db1565b610bd2565b005b610221600480360381019061021c9190611d84565b610d4a565b005b61023d60048036038101906102389190611d84565b610eb9565b005b61025960048036038101906102549190611d84565b610f35565b60405161026c9796959493929190612575565b60405180910390f35b61028f600480360381019061028a9190611d84565b611087565b60405161029c91906124b0565b60405180910390f35b6102bf60048036038101906102ba9190611ed8565b61126b565b005b6102db60048036038101906102d69190611d84565b6113be565b005b6102f760048036038101906102f29190611d84565b61160c565b60405161030a97969594939291906125f2565b60405180910390f35b61032d60048036038101906103289190611e98565b6116d6565b60405161033a919061255a565b60405180910390f35b61035d60048036038101906103589190611e0d565b611707565b005b61037960048036038101906103749190611d84565b611855565b604051610386919061255a565b60405180910390f35b6103a960048036038101906103a49190611d84565b611879565b6040516103b691906124f4565b60405180910390f35b6103d960048036038101906103d49190611d84565b6119da565b005b60008060008581526020019081526020016000206040518060e0016040529081600082015481526020016001820154815260200160028201805461041e906128e5565b80601f016020809104026020016040519081016040528092919081815260200182805461044a906128e5565b80156104975780601f1061046c57610100808354040283529160200191610497565b820191906000526020600020905b81548152906001019060200180831161047a57829003601f168201915b505050505081526020016003820180546104b0906128e5565b80601f01602080910402602001604051908101604052809291908181526020018280546104dc906128e5565b80156105295780601f106104fe57610100808354040283529160200191610529565b820191906000526020600020905b81548152906001019060200180831161050c57829003601f168201915b50505050508152602001600482015481526020016005820154815260200160068201548152505090508281604001819052508181606001819052504281608001818152505080600080868152602001908152602001600020600082015181600001556020820151816001015560408201518160020190805190602001906105b1929190611be2565b5060608201518160030190805190602001906105ce929190611be2565b506080820151816004015560a0820151816005015560c0820151816006015590505050505050565b6105fe611c68565b6000600260008481526020019081526020016000206040518060e001604052908160008201548152602001600182015481526020016002820154815260200160038201805461064c906128e5565b80601f0160208091040260200160405190810160405280929190818152602001828054610678906128e5565b80156106c55780601f1061069a576101008083540402835291602001916106c5565b820191906000526020600020905b8154815290600101906020018083116106a857829003601f168201915b505050505081526020016004820154815260200160058201548152602001600682015481525050905060006040518060e001604052806107088460000151611879565b815260200161071a8460200151611879565b815260200161072c8460400151611879565b8152602001836060015181526020016107488460800151611879565b815260200161075a8460a00151611879565b815260200161076c8460c00151611879565b81525090508092505050919050565b610783611ca5565b60008060008481526020019081526020016000206040518060e001604052908160008201548152602001600182015481526020016002820180546107c6906128e5565b80601f01602080910402602001604051908101604052809291908181526020018280546107f2906128e5565b801561083f5780601f106108145761010080835404028352916020019161083f565b820191906000526020600020905b81548152906001019060200180831161082257829003601f168201915b50505050508152602001600382018054610858906128e5565b80601f0160208091040260200160405190810160405280929190818152602001828054610884906128e5565b80156108d15780601f106108a6576101008083540402835291602001916108d1565b820191906000526020600020905b8154815290600101906020018083116108b457829003601f168201915b505050505081526020016004820154815260200160058201548152602001600682015481525050905060006040518060e001604052806109148460000151611879565b81526020016109268460200151611879565b8152602001836040015181526020018360600151815260200161094c8460800151611879565b815260200161095e8460a00151611879565b81526020016109708460c00151611879565b81525090508092505050919050565b60036020528060005260406000206000915090508060000154908060010154908060020154908060030154908060040180546109ba906128e5565b80601f01602080910402602001604051908101604052809291908181526020018280546109e6906128e5565b8015610a335780601f10610a0857610100808354040283529160200191610a33565b820191906000526020600020905b815481529060010190602001808311610a1657829003601f168201915b5050505050908060050154908060060154905087565b6060600060018054905090506000805b82811015610abf57600160008060018481548110610a7a57610a79612a59565b5b90600052602060002001548152602001908152602001600020600601541415610aac578180610aa890612948565b9250505b8080610ab790612948565b915050610a59565b5060008167ffffffffffffffff811115610adc57610adb612a88565b5b604051908082528060200260200182016040528015610b1557816020015b610b02611ca5565b815260200190600190039081610afa5790505b5090506000805b84811015610bc757600160008060018481548110610b3d57610b3c612a59565b5b90600052602060002001548152602001908152602001600020600601541415610bb457610b8760018281548110610b7757610b76612a59565b5b906000526020600020015461077b565b838381518110610b9a57610b99612a59565b5b60200260200101819052508180610bb090612948565b9250505b8080610bbf90612948565b915050610b1c565b508194505050505090565b6000600260008481526020019081526020016000206040518060e0016040529081600082015481526020016001820154815260200160028201548152602001600382018054610c20906128e5565b80601f0160208091040260200160405190810160405280929190818152602001828054610c4c906128e5565b8015610c995780601f10610c6e57610100808354040283529160200191610c99565b820191906000526020600020905b815481529060010190602001808311610c7c57829003601f168201915b50505050508152602001600482015481526020016005820154815260200160068201548152505090508181606001819052504281608001818152505080600260008581526020019081526020016000206000820151816000015560208201518160010155604082015181600201556060820151816003019080519060200190610d23929190611be2565b506080820151816004015560a0820151816005015560c08201518160060155905050505050565b6000600260008381526020019081526020016000206040518060e0016040529081600082015481526020016001820154815260200160028201548152602001600382018054610d98906128e5565b80601f0160208091040260200160405190810160405280929190818152602001828054610dc4906128e5565b8015610e115780601f10610de657610100808354040283529160200191610e11565b820191906000526020600020905b815481529060010190602001808311610df457829003601f168201915b505050505081526020016004820154815260200160058201548152602001600682015481525050905060008160c001818152505080600260008481526020019081526020016000206000820151816000015560208201518160010155604082015181600201556060820151816003019080519060200190610e93929190611be2565b506080820151816004015560a0820151816005015560c082015181600601559050505050565b600260008281526020019081526020016000206005016000815480929190610ee090612948565b91905055507f0b87910fc6cc852cdcd8b78a462cbe0b279427cc46dd248400a11bc14bdde8c26002600083815260200190815260200160002060050154604051610f2a919061255a565b60405180910390a150565b6000602052806000526040600020600091509050806000015490806001015490806002018054610f64906128e5565b80601f0160208091040260200160405190810160405280929190818152602001828054610f90906128e5565b8015610fdd5780601f10610fb257610100808354040283529160200191610fdd565b820191906000526020600020905b815481529060010190602001808311610fc057829003601f168201915b505050505090806003018054610ff2906128e5565b80601f016020809104026020016040519081016040528092919081815260200182805461101e906128e5565b801561106b5780601f106110405761010080835404028352916020019161106b565b820191906000526020600020905b81548152906001019060200180831161104e57829003601f168201915b5050505050908060040154908060050154908060060154905087565b60606000600460008481526020019081526020016000208054806020026020016040519081016040528092919081815260200182805480156110e857602002820191906000526020600020905b8154815260200190600101908083116110d4575b505050505090506000815190506000805b8281101561115c5760016002600086848151811061111a57611119612a59565b5b6020026020010151815260200190815260200160002060060154141561114957818061114590612948565b9250505b808061115490612948565b9150506110f9565b5060008167ffffffffffffffff81111561117957611178612a88565b5b6040519080825280602002602001820160405280156111b257816020015b61119f611c68565b8152602001906001900390816111975790505b5090506000805b8481101561125d576001600260008884815181106111da576111d9612a59565b5b6020026020010151815260200190815260200160002060060154141561124a5761121d8682815181106112105761120f612a59565b5b60200260200101516105f6565b8383815181106112305761122f612a59565b5b6020026020010181905250818061124690612948565b9250505b808061125590612948565b9150506111b9565b508195505050505050919050565b600042848460405160200161128293929190612473565b6040516020818303038152906040528051906020012060001c905060006040518060e00160405280868152602001858152602001838152602001848152602001428152602001600081526020016001815250905080600260008481526020019081526020016000206000820151816000015560208201518160010155604082015181600201556060820151816003019080519060200190611324929190611be2565b506080820151816004015560a0820151816005015560c08201518160060155905050600460008681526020019081526020016000208290806001815401808255809150506001900390600052602060002001600090919091909150557f5a1a930fed43f34b3a07db782ebcac28a661c273e662bb98458cfba5a8ccd220826040516113af919061255a565b60405180910390a15050505050565b60008060008381526020019081526020016000206040518060e00160405290816000820154815260200160018201548152602001600282018054611401906128e5565b80601f016020809104026020016040519081016040528092919081815260200182805461142d906128e5565b801561147a5780601f1061144f5761010080835404028352916020019161147a565b820191906000526020600020905b81548152906001019060200180831161145d57829003601f168201915b50505050508152602001600382018054611493906128e5565b80601f01602080910402602001604051908101604052809291908181526020018280546114bf906128e5565b801561150c5780601f106114e15761010080835404028352916020019161150c565b820191906000526020600020905b8154815290600101906020018083116114ef57829003601f168201915b50505050508152602001600482015481526020016005820154815260200160068201548152505090508060a001805180919061154790612948565b81525050806000808481526020019081526020016000206000820151816000015560208201518160010155604082015181600201908051906020019061158e929190611be2565b5060608201518160030190805190602001906115ab929190611be2565b506080820151816004015560a0820151816005015560c082015181600601559050507f666bc1474759f572309589aaab2099f4fa4aec8ef9a66ebc487fef9c7c8b82778160a00151604051611600919061255a565b60405180910390a15050565b6002602052806000526040600020600091509050806000015490806001015490806002015490806003018054611641906128e5565b80601f016020809104026020016040519081016040528092919081815260200182805461166d906128e5565b80156116ba5780601f1061168f576101008083540402835291602001916116ba565b820191906000526020600020905b81548152906001019060200180831161169d57829003601f168201915b5050505050908060040154908060050154908060060154905087565b600460205281600052604060002081815481106116f257600080fd5b90600052602060002001600091509150505481565b600042848460405160200161171e9392919061243a565b6040516020818303038152906040528051906020012060001c90506040518060e00160405280828152602001858152602001848152602001838152602001428152602001600081526020016001815250600080838152602001908152602001600020600082015181600001556020820151816001015560408201518160020190805190602001906117b0929190611be2565b5060608201518160030190805190602001906117cd929190611be2565b506080820151816004015560a0820151816005015560c0820151816006015590505060018190806001815401808255809150506001900390600052602060002001600090919091909150557fd2f22dea2df70804f9e20fc76bff2574c5cde894d91655438c75b0532431e14f81604051611847919061255a565b60405180910390a150505050565b6001818154811061186557600080fd5b906000526020600020016000915090505481565b606060008214156118c1576040518060400160405280600181526020017f300000000000000000000000000000000000000000000000000000000000000081525090506119d5565b600082905060005b600082146118f35780806118dc90612948565b915050600a826118ec9190612834565b91506118c9565b60008167ffffffffffffffff81111561190f5761190e612a88565b5b6040519080825280601f01601f1916602001820160405280156119415781602001600182028036833780820191505090505b5090505b600085146119ce5760018261195a9190612865565b9150600a85611969919061299b565b603061197591906127de565b60f81b81838151811061198b5761198a612a59565b5b60200101907effffffffffffffffffffffffffffffffffffffffffffffffffffffffffffff1916908160001a905350600a856119c79190612834565b9450611945565b8093505050505b919050565b60008060008381526020019081526020016000206040518060e00160405290816000820154815260200160018201548152602001600282018054611a1d906128e5565b80601f0160208091040260200160405190810160405280929190818152602001828054611a49906128e5565b8015611a965780601f10611a6b57610100808354040283529160200191611a96565b820191906000526020600020905b815481529060010190602001808311611a7957829003601f168201915b50505050508152602001600382018054611aaf906128e5565b80601f0160208091040260200160405190810160405280929190818152602001828054611adb906128e5565b8015611b285780601f10611afd57610100808354040283529160200191611b28565b820191906000526020600020905b815481529060010190602001808311611b0b57829003601f168201915b505050505081526020016004820154815260200160058201548152602001600682015481525050905060008160c00181815250508060008084815260200190815260200160002060008201518160000155602082015181600101556040820151816002019080519060200190611b9f929190611be2565b506060820151816003019080519060200190611bbc929190611be2565b506080820151816004015560a0820151816005015560c082015181600601559050505050565b828054611bee906128e5565b90600052602060002090601f016020900481019282611c105760008555611c57565b82601f10611c2957805160ff1916838001178555611c57565b82800160010185558215611c57579182015b82811115611c56578251825591602001919060010190611c3b565b5b509050611c649190611ce2565b5090565b6040518060e00160405280606081526020016060815260200160608152602001606081526020016060815260200160608152602001606081525090565b6040518060e00160405280606081526020016060815260200160608152602001606081526020016060815260200160608152602001606081525090565b5b80821115611cfb576000816000905550600101611ce3565b5090565b6000611d12611d0d84612703565b6126de565b905082815260208101848484011115611d2e57611d2d612abc565b5b611d398482856128a3565b509392505050565b600082601f830112611d5657611d55612ab7565b5b8135611d66848260208601611cff565b91505092915050565b600081359050611d7e81612adc565b92915050565b600060208284031215611d9a57611d99612ac6565b5b6000611da884828501611d6f565b91505092915050565b60008060408385031215611dc857611dc7612ac6565b5b6000611dd685828601611d6f565b925050602083013567ffffffffffffffff811115611df757611df6612ac1565b5b611e0385828601611d41565b9150509250929050565b600080600060608486031215611e2657611e25612ac6565b5b6000611e3486828701611d6f565b935050602084013567ffffffffffffffff811115611e5557611e54612ac1565b5b611e6186828701611d41565b925050604084013567ffffffffffffffff811115611e8257611e81612ac1565b5b611e8e86828701611d41565b9150509250925092565b60008060408385031215611eaf57611eae612ac6565b5b6000611ebd85828601611d6f565b9250506020611ece85828601611d6f565b9150509250929050565b600080600060608486031215611ef157611ef0612ac6565b5b6000611eff86828701611d6f565b9350506020611f1086828701611d6f565b925050604084013567ffffffffffffffff811115611f3157611f30612ac1565b5b611f3d86828701611d41565b9150509250925092565b6000611f5383836120fc565b905092915050565b6000611f678383612288565b905092915050565b6000611f7a82612754565b611f84818561278f565b935083602082028501611f9685612734565b8060005b85811015611fd25784840389528151611fb38582611f47565b9450611fbe83612775565b925060208a01995050600181019050611f9a565b50829750879550505050505092915050565b6000611fef8261275f565b611ff981856127a0565b93508360208202850161200b85612744565b8060005b8581101561204757848403895281516120288582611f5b565b945061203383612782565b925060208a0199505060018101905061200f565b50829750879550505050505092915050565b60006120648261276a565b61206e81856127b1565b935061207e8185602086016128b2565b61208781612acb565b840191505092915050565b600061209d8261276a565b6120a781856127c2565b93506120b78185602086016128b2565b6120c081612acb565b840191505092915050565b60006120d68261276a565b6120e081856127d3565b93506120f08185602086016128b2565b80840191505092915050565b600060e08301600083015184820360008601526121198282612059565b915050602083015184820360208601526121338282612059565b9150506040830151848203604086015261214d8282612059565b915050606083015184820360608601526121678282612059565b915050608083015184820360808601526121818282612059565b91505060a083015184820360a086015261219b8282612059565b91505060c083015184820360c08601526121b58282612059565b9150508091505092915050565b600060e08301600083015184820360008601526121df8282612059565b915050602083015184820360208601526121f98282612059565b915050604083015184820360408601526122138282612059565b9150506060830151848203606086015261222d8282612059565b915050608083015184820360808601526122478282612059565b91505060a083015184820360a08601526122618282612059565b91505060c083015184820360c086015261227b8282612059565b9150508091505092915050565b600060e08301600083015184820360008601526122a58282612059565b915050602083015184820360208601526122bf8282612059565b915050604083015184820360408601526122d98282612059565b915050606083015184820360608601526122f38282612059565b9150506080830151848203608086015261230d8282612059565b91505060a083015184820360a08601526123278282612059565b91505060c083015184820360c08601526123418282612059565b9150508091505092915050565b600060e083016000830151848203600086015261236b8282612059565b915050602083015184820360208601526123858282612059565b9150506040830151848203604086015261239f8282612059565b915050606083015184820360608601526123b98282612059565b915050608083015184820360808601526123d38282612059565b91505060a083015184820360a08601526123ed8282612059565b91505060c083015184820360c08601526124078282612059565b9150508091505092915050565b61241d81612899565b82525050565b61243461242f82612899565b612991565b82525050565b60006124468286612423565b6020820191506124568285612423565b60208201915061246682846120cb565b9150819050949350505050565b600061247f8286612423565b60208201915061248f8285612423565b60208201915061249f8284612423565b602082019150819050949350505050565b600060208201905081810360008301526124ca8184611f6f565b905092915050565b600060208201905081810360008301526124ec8184611fe4565b905092915050565b6000602082019050818103600083015261250e8184612092565b905092915050565b6000602082019050818103600083015261253081846121c2565b905092915050565b60006020820190508181036000830152612552818461234e565b905092915050565b600060208201905061256f6000830184612414565b92915050565b600060e08201905061258a600083018a612414565b6125976020830189612414565b81810360408301526125a98188612092565b905081810360608301526125bd8187612092565b90506125cc6080830186612414565b6125d960a0830185612414565b6125e660c0830184612414565b98975050505050505050565b600060e082019050612607600083018a612414565b6126146020830189612414565b6126216040830188612414565b81810360608301526126338187612092565b90506126426080830186612414565b61264f60a0830185612414565b61265c60c0830184612414565b98975050505050505050565b600060e08201905061267d600083018a612414565b61268a6020830189612414565b6126976040830188612414565b6126a46060830187612414565b81810360808301526126b68186612092565b90506126c560a0830185612414565b6126d260c0830184612414565b98975050505050505050565b60006126e86126f9565b90506126f48282612917565b919050565b6000604051905090565b600067ffffffffffffffff82111561271e5761271d612a88565b5b61272782612acb565b9050602081019050919050565b6000819050602082019050919050565b6000819050602082019050919050565b600081519050919050565b600081519050919050565b600081519050919050565b6000602082019050919050565b6000602082019050919050565b600082825260208201905092915050565b600082825260208201905092915050565b600082825260208201905092915050565b600082825260208201905092915050565b600081905092915050565b60006127e982612899565b91506127f483612899565b9250827fffffffffffffffffffffffffffffffffffffffffffffffffffffffffffffffff03821115612829576128286129cc565b5b828201905092915050565b600061283f82612899565b915061284a83612899565b92508261285a576128596129fb565b5b828204905092915050565b600061287082612899565b915061287b83612899565b92508282101561288e5761288d6129cc565b5b828203905092915050565b6000819050919050565b82818337600083830152505050565b60005b838110156128d05780820151818401526020810190506128b5565b838111156128df576000848401525b50505050565b600060028204905060018216806128fd57607f821691505b6020821081141561291157612910612a2a565b5b50919050565b61292082612acb565b810181811067ffffffffffffffff8211171561293f5761293e612a88565b5b80604052505050565b600061295382612899565b91507fffffffffffffffffffffffffffffffffffffffffffffffffffffffffffffffff821415612986576129856129cc565b5b600182019050919050565b6000819050919050565b60006129a682612899565b91506129b183612899565b9250826129c1576129c06129fb565b5b828206905092915050565b7f4e487b7100000000000000000000000000000000000000000000000000000000600052601160045260246000fd5b7f4e487b7100000000000000000000000000000000000000000000000000000000600052601260045260246000fd5b7f4e487b7100000000000000000000000000000000000000000000000000000000600052602260045260246000fd5b7f4e487b7100000000000000000000000000000000000000000000000000000000600052603260045260246000fd5b7f4e487b7100000000000000000000000000000000000000000000000000000000600052604160045260246000fd5b600080fd5b600080fd5b600080fd5b600080fd5b6000601f19601f8301169050919050565b612ae581612899565b8114612af057600080fd5b5056fea2646970667358221220e8f6a74130763c483f0a77ce05ca20caa46ab4fb746a36c60bf53a7eee40345c64736f6c63430008070033",
  "linkReferences": {},
  "deployedLinkReferences": {}
}